{
  "transactions": [
    {
      "hash": "0x12e474f708c060bbf601b3149e7403a758c8e66d567583c2ca2e5a8aaa77b969",
      "transactionType": "CALL",
      "contractName": null,
      "contractAddress": "0x339513226Afd92B309837Bad402c6D3ADDE9Ad24",
      "function": "register(address)",
      "arguments": [
        "0x33F59bfD58c16dEfB93612De65A5123F982F58bA"
      ],
      "transaction": {
        "type": "0x02",
        "from": "0x33f59bfd58c16defb93612de65a5123f982f58ba",
        "to": "0x339513226afd92b309837bad402c6d3adde9ad24",
        "gas": "0x28265",
        "value": "0x0",
        "data": "0x4420e48600000000000000000000000033f59bfd58c16defb93612de65a5123f982f58ba",
        "nonce": "0xd",
        "accessList": []
      },
      "additionalContracts": [],
      "isFixedGasLimit": false
    }
  ],
  "receipts": [
    {
      "transactionHash": "0x12e474f708c060bbf601b3149e7403a758c8e66d567583c2ca2e5a8aaa77b969",
      "transactionIndex": "0x1",
      "blockHash": "0xc31833960d047eeef6eb0304fc6f7e51568de46c3c449c43920d68691363975d",
      "blockNumber": "0x2ab8589",
      "from": "0x33F59bfD58c16dEfB93612De65A5123F982F58bA",
      "to": "0x339513226Afd92B309837Bad402c6D3ADDE9Ad24",
      "cumulativeGasUsed": "0x1fa1a",
      "gasUsed": "0x1fa1a",
      "contractAddress": null,
      "logs": [
        {
          "address": "0x339513226Afd92B309837Bad402c6D3ADDE9Ad24",
          "topics": [
            "0xf2e19a901b0748d8b08e428d0468896a039ac751ec4fec49b44b7b9c28097e45",
            "0x00000000000000000000000033f59bfd58c16defb93612de65a5123f982f58ba"
          ],
          "data": "0x000000000000000000000000000000000000000000000000000000000000000100000000000000000000000033f59bfd58c16defb93612de65a5123f982f58ba",
          "blockHash": "0xc31833960d047eeef6eb0304fc6f7e51568de46c3c449c43920d68691363975d",
          "blockNumber": "0x2ab8589",
          "transactionHash": "0x12e474f708c060bbf601b3149e7403a758c8e66d567583c2ca2e5a8aaa77b969",
          "transactionIndex": "0x1",
          "logIndex": "0x0",
          "removed": false
        }
      ],
      "status": "0x1",
      "logsBloom": "0x00000000000000000000000000000000000000000000000000000000000000000000000000000000020000000200000000000000000000000000000000000000000020000100000000001000000000000000000000000000000000000000004000000000000000000000000000000000000000000000000000400000000000000000000000000000000000000000000000000000000000000000000000000000000000000000000000000000000000000000000000000000000000000000000000000000000000000008000000000000000000000000000000000000000000000000000000000000000000000000000000000000000000000000000000800000",
      "type": "0x2",
      "effectiveGasPrice": "0x989680"
    }
  ],
  "libraries": [],
  "pending": [],
  "returns": {},
  "timestamp": 1706852488,
  "chain": 42170,
  "multi": false,
  "commit": "bd566c44"
}