{
  "transactions": [
    {
      "hash": "0xb8798ea56c814183ba32a9e79083ec048745f563647a9eb92121d5a189c56d22",
      "transactionType": "CALL",
      "contractName": null,
      "contractAddress": "0xd35fF289853947472b22773E323D6239C32e1E7A",
      "function": "register(address)",
      "arguments": [
        "0x33F59bfD58c16dEfB93612De65A5123F982F58bA"
      ],
      "transaction": {
        "type": "0x02",
        "from": "0x33f59bfd58c16defb93612de65a5123f982f58ba",
        "to": "0xd35ff289853947472b22773e323d6239c32e1e7a",
        "gas": "0x28265",
        "value": "0x0",
        "data": "0x4420e48600000000000000000000000033f59bfd58c16defb93612de65a5123f982f58ba",
        "nonce": "0xf",
        "accessList": []
      },
      "additionalContracts": [],
      "isFixedGasLimit": false
    },
    {
      "hash": "0x4472d55c8709da560ae8d82ac1637b1fdc2d1aecd8d4409c727a0c3ab38512bc",
      "transactionType": "CALL",
      "contractName": null,
      "contractAddress": "0x339513226Afd92B309837Bad402c6D3ADDE9Ad24",
      "function": "newChannel(uint256,bytes,address,bytes)",
      "arguments": [
        "1",
        "0x697066733a2f2f62616679626569637a73736364736273376666717a3535617371646633736d76366b6c637733676f66737a76776c79617263693437626766333534",
        "0x05aD6cA9C2b3F71a6B30A8C7d414C95E10EC0217",
        "0x000000000000000000000000000000000000000000000000000000000000004000000000000000000000000000000000000000000000000000000000000000800000000000000000000000000000000000000000000000000000000000000001000000000000000000000000000000000000000000000000000000000000000100000000000000000000000000000000000000000000000000000000000000010000000000000000000000000000000000000000000000000000000000000002"
      ],
      "transaction": {
        "type": "0x02",
        "from": "0x33f59bfd58c16defb93612de65a5123f982f58ba",
        "to": "0x339513226afd92b309837bad402c6d3adde9ad24",
        "gas": "0x3d5f6",
        "value": "0x0",
        "data": "0x66ce08300000000000000000000000000000000000000000000000000000000000000001000000000000000000000000000000000000000000000000000000000000008000000000000000000000000005ad6ca9c2b3f71a6b30a8c7d414c95e10ec021700000000000000000000000000000000000000000000000000000000000001000000000000000000000000000000000000000000000000000000000000000042697066733a2f2f62616679626569637a73736364736273376666717a3535617371646633736d76366b6c637733676f66737a76776c7961726369343762676633353400000000000000000000000000000000000000000000000000000000000000000000000000000000000000000000000000000000000000000000000000c0000000000000000000000000000000000000000000000000000000000000004000000000000000000000000000000000000000000000000000000000000000800000000000000000000000000000000000000000000000000000000000000001000000000000000000000000000000000000000000000000000000000000000100000000000000000000000000000000000000000000000000000000000000010000000000000000000000000000000000000000000000000000000000000002",
        "nonce": "0x10",
        "accessList": []
      },
      "additionalContracts": [
        {
          "transactionType": "CREATE",
          "address": "0x1C3ea3586B2dFdf545Bd9c9afef6692890272BDA",
          "initCode": "0x630000004380600e6000396000f300697066733a2f2f62616679626569637a73736364736273376666717a3535617371646633736d76366b6c637733676f66737a76776c79617263693437626766333534"
        }
      ],
      "isFixedGasLimit": false
    },
    {
      "hash": "0xa6d91544191e1eafbaa0cac6cc4cb64b8a7c65b3594710b673cda6bd31adf4e0",
      "transactionType": "CALL",
      "contractName": null,
      "contractAddress": "0xEc341633d600Bdad8E704729AE95049DDfec6c6f",
      "function": "newItems(uint256,(bytes,bytes32[])[])",
      "arguments": [
        "1",
        "[(0xdc151805e5a93284e1e337bf5b7c4060ab9bc5be697066733a2f2f62616679626569637a73736364736273376666717a3535617371646633736d76366b6c637733676f66737a76776c79617263693437626766333534, [0x9e65486b59285e02900090a5e02fda49e06e49af0614ed1bb396273ab8c69639])]"
      ],
      "transaction": {
        "type": "0x02",
        "from": "0x33f59bfd58c16defb93612de65a5123f982f58ba",
        "to": "0xec341633d600bdad8e704729ae95049ddfec6c6f",
        "gas": "0x45699",
        "value": "0x0",
        "data": "0x6b7059160000000000000000000000000000000000000000000000000000000000000001000000000000000000000000000000000000000000000000000000000000004000000000000000000000000000000000000000000000000000000000000000010000000000000000000000000000000000000000000000000000000000000020000000000000000000000000000000000000000000000000000000000000004000000000000000000000000000000000000000000000000000000000000000c00000000000000000000000000000000000000000000000000000000000000056dc151805e5a93284e1e337bf5b7c4060ab9bc5be697066733a2f2f62616679626569637a73736364736273376666717a3535617371646633736d76366b6c637733676f66737a76776c796172636934376267663335340000000000000000000000000000000000000000000000000000000000000000000000000000000000019e65486b59285e02900090a5e02fda49e06e49af0614ed1bb396273ab8c69639",
        "nonce": "0x11",
        "accessList": []
      },
      "additionalContracts": [
        {
          "transactionType": "CREATE",
          "address": "0x0fc8B87c81f049fC21839740D23c525A2b794EA8",
          "initCode": "0x630000005780600e6000396000f300dc151805e5a93284e1e337bf5b7c4060ab9bc5be697066733a2f2f62616679626569637a73736364736273376666717a3535617371646633736d76366b6c637733676f66737a76776c79617263693437626766333534"
        }
      ],
      "isFixedGasLimit": false
    }
  ],
  "receipts": [
    {
      "transactionHash": "0xb8798ea56c814183ba32a9e79083ec048745f563647a9eb92121d5a189c56d22",
      "transactionIndex": "0x1",
      "blockHash": "0x2ca1091dc6ce856da03286444ebbfc9767d8cb3fe61f41534445c33cb845d49e",
      "blockNumber": "0xf",
      "from": "0x33F59bfD58c16dEfB93612De65A5123F982F58bA",
      "to": "0xd35fF289853947472b22773E323D6239C32e1E7A",
      "cumulativeGasUsed": "0x1dae6",
      "gasUsed": "0x1dae6",
      "contractAddress": null,
      "logs": [
        {
          "address": "0xd35fF289853947472b22773E323D6239C32e1E7A",
          "topics": [
            "0xf2e19a901b0748d8b08e428d0468896a039ac751ec4fec49b44b7b9c28097e45",
            "0x00000000000000000000000033f59bfd58c16defb93612de65a5123f982f58ba"
          ],
          "data": "0x000000000000000000000000000000000000000000000000000000000000000100000000000000000000000033f59bfd58c16defb93612de65a5123f982f58ba",
          "blockHash": "0x2ca1091dc6ce856da03286444ebbfc9767d8cb3fe61f41534445c33cb845d49e",
          "blockNumber": "0xf",
          "transactionHash": "0xb8798ea56c814183ba32a9e79083ec048745f563647a9eb92121d5a189c56d22",
          "transactionIndex": "0x1",
          "logIndex": "0x0",
          "removed": false
        }
      ],
      "status": "0x1",
      "logsBloom": "0x00000000000000000000000000000000000000020000000000000000000000000000000000000000000000080000000000000000000000000000000000000000000020000100000000001000000000000000000000000000000000000000004000000000000000000000000000000000000000000000000000400000000000000000000000000000000000000000000000000000000000000000000000000000000000000000000000000000000000000000000000000000000000000000000000000000000000000008000000000000000000000000000000000000000000000000000001000000000000000000000000000000000000000000000000000000",
      "type": "0x2",
      "effectiveGasPrice": "0x989680"
    },
    {
      "transactionHash": "0x4472d55c8709da560ae8d82ac1637b1fdc2d1aecd8d4409c727a0c3ab38512bc",
      "transactionIndex": "0x1",
      "blockHash": "0x57f30f7e5c9cbe05942d1cb4ab0f7f63b5a68ed49f3d01e2a75898427a5259c5",
      "blockNumber": "0x10",
      "from": "0x33F59bfD58c16dEfB93612De65A5123F982F58bA",
      "to": "0x339513226Afd92B309837Bad402c6D3ADDE9Ad24",
      "cumulativeGasUsed": "0x2e0ed",
      "gasUsed": "0x2e0ed",
      "contractAddress": null,
      "logs": [
        {
          "address": "0x05aD6cA9C2b3F71a6B30A8C7d414C95E10EC0217",
          "topics": [
            "0x6fed877b6bdcc2bc679758195a73ff22ca816ccdeb56213f85aea5aa3a7eb2bc"
          ],
          "data": "0x000000000000000000000000339513226afd92b309837bad402c6d3adde9ad24000000000000000000000000000000000000000000000000000000000000000100000000000000000000000000000000000000000000000000000000000000a09e65486b59285e02900090a5e02fda49e06e49af0614ed1bb396273ab8c6963900000000000000000000000000000000000000000000000000000000000000e00000000000000000000000000000000000000000000000000000000000000001000000000000000000000000000000000000000000000000000000000000000100000000000000000000000000000000000000000000000000000000000000010000000000000000000000000000000000000000000000000000000000000002",
          "blockHash": "0x57f30f7e5c9cbe05942d1cb4ab0f7f63b5a68ed49f3d01e2a75898427a5259c5",
          "blockNumber": "0x10",
          "transactionHash": "0x4472d55c8709da560ae8d82ac1637b1fdc2d1aecd8d4409c727a0c3ab38512bc",
          "transactionIndex": "0x1",
          "logIndex": "0x0",
          "removed": false
        },
        {
          "address": "0x339513226Afd92B309837Bad402c6D3ADDE9Ad24",
          "topics": [
            "0xc3daaf2a134d45ee8c5c0371ab26629e2bfae5b676d70d967072965bdace9d46"
          ],
          "data": "0x00000000000000000000000033f59bfd58c16defb93612de65a5123f982f58ba00000000000000000000000000000000000000000000000000000000000000019e65486b59285e02900090a5e02fda49e06e49af0614ed1bb396273ab8c696390000000000000000000000001c3ea3586b2dfdf545bd9c9afef6692890272bda00000000000000000000000005ad6ca9c2b3f71a6b30a8c7d414c95e10ec0217",
          "blockHash": "0x57f30f7e5c9cbe05942d1cb4ab0f7f63b5a68ed49f3d01e2a75898427a5259c5",
          "blockNumber": "0x10",
          "transactionHash": "0x4472d55c8709da560ae8d82ac1637b1fdc2d1aecd8d4409c727a0c3ab38512bc",
          "transactionIndex": "0x1",
          "logIndex": "0x1",
          "removed": false
        }
      ],
      "status": "0x1",
      "logsBloom": "0x00000000000000000000800000000000000000000000000000000000000000000000000000000000020000000200000000000000080000000000000000000000000000000010000000000000000000000000000000000000000000000000000000000000000000000000000080000000000000000000000000000000000000000000000000000000008000000000000000000040000000000000000000000000000000000000000000000000000000000000000000000000000000000008000000000000000000000000000000000000000000000000000000000000000000000000000000000000000000000000000400000000000000000000000000a00000",
      "type": "0x2",
      "effectiveGasPrice": "0x989680"
    },
    {
      "transactionHash": "0xa6d91544191e1eafbaa0cac6cc4cb64b8a7c65b3594710b673cda6bd31adf4e0",
      "transactionIndex": "0x2",
      "blockHash": "0x57f30f7e5c9cbe05942d1cb4ab0f7f63b5a68ed49f3d01e2a75898427a5259c5",
      "blockNumber": "0x10",
      "from": "0x33F59bfD58c16dEfB93612De65A5123F982F58bA",
      "to": "0xEc341633d600Bdad8E704729AE95049DDfec6c6f",
      "cumulativeGasUsed": "0x5f2f0",
      "gasUsed": "0x31203",
      "contractAddress": null,
      "logs": [
        {
          "address": "0xEc341633d600Bdad8E704729AE95049DDfec6c6f",
          "topics": [
            "0x66423de90903b1557ce4a917e4b4b8b2abd4f6c6ede91fc703c648da0456f539"
          ],
          "data": "0x00000000000000000000000033f59bfd58c16defb93612de65a5123f982f58ba0000000000000000000000000000000000000000000000000000000000000001fea4dcd653fc4aa71e0c4491a45195e27b0c8bfb5d4c25faf724332c1acaf18b0000000000000000000000000fc8b87c81f049fc21839740d23c525a2b794ea8",
          "blockHash": "0x57f30f7e5c9cbe05942d1cb4ab0f7f63b5a68ed49f3d01e2a75898427a5259c5",
          "blockNumber": "0x10",
          "transactionHash": "0xa6d91544191e1eafbaa0cac6cc4cb64b8a7c65b3594710b673cda6bd31adf4e0",
          "transactionIndex": "0x2",
          "logIndex": "0x2",
          "removed": false
        },
        {
          "address": "0xEc341633d600Bdad8E704729AE95049DDfec6c6f",
          "topics": [
            "0x107dcf2c99bae149eb8d0dddf3a5dfee724a1762573f5ae628ea553fef3bba8f"
          ],
          "data": "0x00000000000000000000000033f59bfd58c16defb93612de65a5123f982f58ba0000000000000000000000000000000000000000000000000000000000000001fea4dcd653fc4aa71e0c4491a45195e27b0c8bfb5d4c25faf724332c1acaf18b9e65486b59285e02900090a5e02fda49e06e49af0614ed1bb396273ab8c69639",
          "blockHash": "0x57f30f7e5c9cbe05942d1cb4ab0f7f63b5a68ed49f3d01e2a75898427a5259c5",
          "blockNumber": "0x10",
          "transactionHash": "0xa6d91544191e1eafbaa0cac6cc4cb64b8a7c65b3594710b673cda6bd31adf4e0",
          "transactionIndex": "0x2",
          "logIndex": "0x3",
          "removed": false
        }
      ],
      "status": "0x1",
      "logsBloom": "0x00000000000000000000000000000000000000000000000000000000000000000000000000000000000000000000000000000000000000000000008000000000004020000000000000000000000000000000000001000000000002000000000000000000000000000010000000000000008000000000000000000000000000000000000200000000000000000000000000000000000000000000000000000000000000000000000000000000000000000000000000000000000000000100000000000000000000000000000000000000000000000000000000000000000000000000000000000000000000000000000000000000000000000000000000000000",
      "type": "0x2",
      "effectiveGasPrice": "0x989680"
    }
  ],
  "libraries": [],
  "pending": [],
  "returns": {},
  "timestamp": 1706245414,
  "chain": 3600855875265181,
  "multi": false,
  "commit": "90bd5e5"
}