{
  "transactions": [
    {
      "hash": "0xc66b9d060c8be6c0160a8219df5706d8f1d3fc18767eb9a8f708e3813d3d9466",
      "transactionType": "CALL",
      "contractName": null,
      "contractAddress": "0x9fE46736679d2D9a65F0992F2272dE9f3c7fa6e0",
      "function": "post((address,(uint256,uint256,uint8,bytes),uint16,bytes32,uint16,bytes))",
      "arguments": [
        "(0xf39Fd6e51aad88F6F4ce6aB8827279cffFb92266, (1, 1706849758, 3, 0x0000000000000000000000000000000000000000000000000000000000000020000000000000000000000000000000000000000000000000000000000000004000000000000000000000000000000000000000000000000000000000000001400000000000000000000000000000000000000000000000000000000000000001000000000000000000000000000000000000000000000000000000000000004000000000000000000000000000000000000000000000000000000000000000a0000000000000000000000000000000000000000000000000000000000000002000000000000000000000000000000000000000000000000000000000000000426f6d52755957316c61324e6f595735755a57784f5957316c6132526c63324e796158423061573975636d4e6f595735755a5778455a584e6a636d6c7764476c7662670000000000000000000000000000000000000000000000000000000000000000000000000000000000000000000000000000000000000000000000000001000000000000000000000000000000000000000000000000000000000000004000000000000000000000000000000000000000000000000000000000000000e00000000000000000000000000000000000000000000000000000000000000040000000000000000000000000000000000000000000000000000000000000008000000000000000000000000000000000000000000000000000000000000000010000000000000000000000000000000000000000000000000000000000000001000000000000000000000000000000000000000000000000000000000000000200000000000000000000000000000000000000000000000000000000000000020000000000000000000000000000000000000000000000000000000000000003), 1, 0x0c6c7dcb54f97574baeb324b1098d6b59b0fc8adabde90e47962f2651466b714, 1, 0xc16a104fb6040839eec7d6b972ad71dcfd4ef637937d5b2721ca610d9ed8ffed1843e9773f4e87a84e24ec69324fa6746b0333676dbab7cfd68ef51adc3bfe651b)"
      ],
      "transaction": {
        "type": "0x02",
        "from": "0xf39fd6e51aad88f6f4ce6ab8827279cfffb92266",
        "to": "0x9fe46736679d2d9a65f0992f2272de9f3c7fa6e0",
        "gas": "0xa107",
        "value": "0x0",
        "data": "0x3e26eb830000000000000000000000000000000000000000000000000000000000000020000000000000000000000000f39fd6e51aad88f6f4ce6ab8827279cfffb9226600000000000000000000000000000000000000000000000000000000000000c000000000000000000000000000000000000000000000000000000000000000010c6c7dcb54f97574baeb324b1098d6b59b0fc8adabde90e47962f2651466b7140000000000000000000000000000000000000000000000000000000000000001000000000000000000000000000000000000000000000000000000000000040000000000000000000000000000000000000000000000000000000000000000010000000000000000000000000000000000000000000000000000000065bc75de0000000000000000000000000000000000000000000000000000000000000003000000000000000000000000000000000000000000000000000000000000008000000000000000000000000000000000000000000000000000000000000002a00000000000000000000000000000000000000000000000000000000000000020000000000000000000000000000000000000000000000000000000000000004000000000000000000000000000000000000000000000000000000000000001400000000000000000000000000000000000000000000000000000000000000001000000000000000000000000000000000000000000000000000000000000004000000000000000000000000000000000000000000000000000000000000000a0000000000000000000000000000000000000000000000000000000000000002000000000000000000000000000000000000000000000000000000000000000426f6d52755957316c61324e6f595735755a57784f5957316c6132526c63324e796158423061573975636d4e6f595735755a5778455a584e6a636d6c7764476c7662670000000000000000000000000000000000000000000000000000000000000000000000000000000000000000000000000000000000000000000000000001000000000000000000000000000000000000000000000000000000000000004000000000000000000000000000000000000000000000000000000000000000e000000000000000000000000000000000000000000000000000000000000000400000000000000000000000000000000000000000000000000000000000000080000000000000000000000000000000000000000000000000000000000000000100000000000000000000000000000000000000000000000000000000000000010000000000000000000000000000000000000000000000000000000000000002000000000000000000000000000000000000000000000000000000000000000200000000000000000000000000000000000000000000000000000000000000030000000000000000000000000000000000000000000000000000000000000041c16a104fb6040839eec7d6b972ad71dcfd4ef637937d5b2721ca610d9ed8ffed1843e9773f4e87a84e24ec69324fa6746b0333676dbab7cfd68ef51adc3bfe651b00000000000000000000000000000000000000000000000000000000000000",
        "nonce": "0x4",
        "accessList": []
      },
      "additionalContracts": [],
      "isFixedGasLimit": false
    }
  ],
  "receipts": [
    {
      "transactionHash": "0xc66b9d060c8be6c0160a8219df5706d8f1d3fc18767eb9a8f708e3813d3d9466",
      "transactionIndex": "0x0",
      "blockHash": "0x10e758ad607461989db411c41dc980ba599a45368506166432c60a00fea315c1",
      "blockNumber": "0x5",
      "from": "0xf39Fd6e51aad88F6F4ce6aB8827279cffFb92266",
      "to": "0x9fE46736679d2D9a65F0992F2272dE9f3c7fa6e0",
      "cumulativeGasUsed": "0x7495",
      "gasUsed": "0x7495",
      "contractAddress": null,
      "logs": [
        {
          "address": "0x9fE46736679d2D9a65F0992F2272dE9f3c7fa6e0",
          "topics": [
            "0xbbd76ddf496bdc451129f83bf75dc2941b7ff0102da7d5f03f07a3a2f741fc70",
            "0x000000000000000000000000f39fd6e51aad88f6f4ce6ab8827279cfffb92266"
          ],
          "data": "0x",
          "blockHash": "0x10e758ad607461989db411c41dc980ba599a45368506166432c60a00fea315c1",
          "blockNumber": "0x5",
          "transactionHash": "0xc66b9d060c8be6c0160a8219df5706d8f1d3fc18767eb9a8f708e3813d3d9466",
          "transactionIndex": "0x0",
          "logIndex": "0x0",
          "transactionLogIndex": "0x0",
          "removed": false
        }
      ],
      "status": "0x1",
      "logsBloom": "0x00000000000000000000000000000000000000000000000000000000000000000000000000000000000000000000000000000000000840200000000000000000000000000000000000000000000000000000000000000000000000000000000000000000000000000000000100000400000000000000000000000000000000000000000000000000000000000000000000000000000000000000000000000000000000000000000000000000000000000000000000000000000000000000000000000000000000200000000002000000000000002000000000000000000000000000000000000000000000000000000000000000000000400000000000000000",
      "type": "0x2",
      "effectiveGasPrice": "0xd6a7dd94"
    }
  ],
  "libraries": [],
  "pending": [],
  "returns": {},
  "timestamp": 1706849852,
  "chain": 31337,
  "multi": false,
  "commit": "bd566c44"
}