{
  "transactions": [
    {
      "hash": "0xe51254b881052c377c66c5e31e1be804dc3a6ff8ba979c210f7077c6bd177b87",
      "transactionType": "CALL",
      "contractName": null,
      "contractAddress": "0x9fE46736679d2D9a65F0992F2272dE9f3c7fa6e0",
      "function": "postBatch((address,(uint256,uint256,uint8,bytes),uint16,bytes32,uint16,bytes)[])",
      "arguments": [
        "[(0xf39Fd6e51aad88F6F4ce6aB8827279cffFb92266, (1, 1706850145, 1, 0x00000000000000000000000000000000000000000000000000000000000000200000000000000000000000000000000000000000000000000000000000000040000000000000000000000000000000000000000000000000000000000000010000000000000000000000000000000000000000000000000000000000000000010000000000000000000000000000000000000000000000000000000000000040000000000000000000000000000000000000000000000000000000000000006000000000000000000000000000000000000000000000000000000000000000200000000000000000000000000000000000000000000000000000000000000019697066733a2f2f706c616365686f6c6465724974656d55726900000000000000000000000000000000000000000000000000000000000000000000000000000100000000000000000000000000000000000000000000000000000000000000400000000000000000000000000000000000000000000000000000000000000060000000000000000000000000000000000000000000000000000000000000002000000000000000000000000000000000000000000000000000000000000000010000000000000000000000000000000000000000000000000000000000000001), 1, 0xadd01ce66e40c723fef2539e122a78f7fa42a001e8f47bc74a082c15c6d01ef7, 1, 0xb1df6edbb1f63847746fe31b2e21b9c3fcdd2dec5975d94f24b8862c2785b4046a04cc766267ae92545b7d9d9ad4e00e2b5280f0868dd1e1581e24ed4f26798e1c), (0xf39Fd6e51aad88F6F4ce6aB8827279cffFb92266, (1, 1706850145, 5, 0x0000000000000000000000000000000000000000000000000000000000000020000000000000000000000000000000000000000000000000000000000000004000000000000000000000000000000000000000000000000000000000000000a0000000000000000000000000000000000000000000000000000000000000003b6261667972656962716568646b6f75767a32706a6533343377676c6d7a75676d6e366873696b616c6667737433687a76756a6a787361786879336d0000000000000000000000000000000000000000000000000000000000000000000000003b626166797265696872616f6d6c6c34326265766b72687237337a6137626c33696474686b6e673464673278706c6d333734656f776835796a347a690000000000), 1, 0x32fb52c673363e12e5aa52c12861da98f733bc469ffdfee233a207100b4c313d, 1, 0x1f03011ac1f4798dd16c77fa5cea146bf136747bbfbb7384d9d11a9c3b8ce3b201a0a5da10193262cf2e0f2a0dc0a389bae7a65ebf788d143cbd1fb3c2beee2a1c)]"
      ],
      "transaction": {
        "type": "0x02",
        "from": "0xf39fd6e51aad88f6f4ce6ab8827279cfffb92266",
        "to": "0x9fe46736679d2d9a65f0992f2272de9f3c7fa6e0",
        "gas": "0xd075",
        "value": "0x0",
        "data": "0xcaa550b40000000000000000000000000000000000000000000000000000000000000020000000000000000000000000000000000000000000000000000000000000000200000000000000000000000000000000000000000000000000000000000000400000000000000000000000000000000000000000000000000000000000000400000000000000000000000000f39fd6e51aad88f6f4ce6ab8827279cfffb9226600000000000000000000000000000000000000000000000000000000000000c00000000000000000000000000000000000000000000000000000000000000001add01ce66e40c723fef2539e122a78f7fa42a001e8f47bc74a082c15c6d01ef70000000000000000000000000000000000000000000000000000000000000001000000000000000000000000000000000000000000000000000000000000034000000000000000000000000000000000000000000000000000000000000000010000000000000000000000000000000000000000000000000000000065bc77610000000000000000000000000000000000000000000000000000000000000001000000000000000000000000000000000000000000000000000000000000008000000000000000000000000000000000000000000000000000000000000001e000000000000000000000000000000000000000000000000000000000000000200000000000000000000000000000000000000000000000000000000000000040000000000000000000000000000000000000000000000000000000000000010000000000000000000000000000000000000000000000000000000000000000010000000000000000000000000000000000000000000000000000000000000040000000000000000000000000000000000000000000000000000000000000006000000000000000000000000000000000000000000000000000000000000000200000000000000000000000000000000000000000000000000000000000000019697066733a2f2f706c616365686f6c6465724974656d557269000000000000000000000000000000000000000000000000000000000000000000000000000001000000000000000000000000000000000000000000000000000000000000004000000000000000000000000000000000000000000000000000000000000000600000000000000000000000000000000000000000000000000000000000000020000000000000000000000000000000000000000000000000000000000000000100000000000000000000000000000000000000000000000000000000000000010000000000000000000000000000000000000000000000000000000000000041b1df6edbb1f63847746fe31b2e21b9c3fcdd2dec5975d94f24b8862c2785b4046a04cc766267ae92545b7d9d9ad4e00e2b5280f0868dd1e1581e24ed4f26798e1c00000000000000000000000000000000000000000000000000000000000000000000000000000000000000f39fd6e51aad88f6f4ce6ab8827279cfffb9226600000000000000000000000000000000000000000000000000000000000000c0000000000000000000000000000000000000000000000000000000000000000132fb52c673363e12e5aa52c12861da98f733bc469ffdfee233a207100b4c313d0000000000000000000000000000000000000000000000000000000000000001000000000000000000000000000000000000000000000000000000000000028000000000000000000000000000000000000000000000000000000000000000010000000000000000000000000000000000000000000000000000000065bc77610000000000000000000000000000000000000000000000000000000000000005000000000000000000000000000000000000000000000000000000000000008000000000000000000000000000000000000000000000000000000000000001200000000000000000000000000000000000000000000000000000000000000020000000000000000000000000000000000000000000000000000000000000004000000000000000000000000000000000000000000000000000000000000000a0000000000000000000000000000000000000000000000000000000000000003b6261667972656962716568646b6f75767a32706a6533343377676c6d7a75676d6e366873696b616c6667737433687a76756a6a787361786879336d0000000000000000000000000000000000000000000000000000000000000000000000003b626166797265696872616f6d6c6c34326265766b72687237337a6137626c33696474686b6e673464673278706c6d333734656f776835796a347a69000000000000000000000000000000000000000000000000000000000000000000000000411f03011ac1f4798dd16c77fa5cea146bf136747bbfbb7384d9d11a9c3b8ce3b201a0a5da10193262cf2e0f2a0dc0a389bae7a65ebf788d143cbd1fb3c2beee2a1c00000000000000000000000000000000000000000000000000000000000000",
        "nonce": "0x5",
        "accessList": []
      },
      "additionalContracts": [],
      "isFixedGasLimit": false
    }
  ],
  "receipts": [
    {
      "transactionHash": "0xe51254b881052c377c66c5e31e1be804dc3a6ff8ba979c210f7077c6bd177b87",
      "transactionIndex": "0x0",
      "blockHash": "0x87753b70ae2fd23c6c19d3ae84c481442d71c639c23a03cadc9666ce00df925b",
      "blockNumber": "0x6",
      "from": "0xf39Fd6e51aad88F6F4ce6aB8827279cffFb92266",
      "to": "0x9fE46736679d2D9a65F0992F2272dE9f3c7fa6e0",
      "cumulativeGasUsed": "0x8e89",
      "gasUsed": "0x8e89",
      "contractAddress": null,
      "logs": [
        {
          "address": "0x9fE46736679d2D9a65F0992F2272dE9f3c7fa6e0",
          "topics": [
            "0xbbd76ddf496bdc451129f83bf75dc2941b7ff0102da7d5f03f07a3a2f741fc70",
            "0x000000000000000000000000f39fd6e51aad88f6f4ce6ab8827279cfffb92266"
          ],
          "data": "0x",
          "blockHash": "0x87753b70ae2fd23c6c19d3ae84c481442d71c639c23a03cadc9666ce00df925b",
          "blockNumber": "0x6",
          "transactionHash": "0xe51254b881052c377c66c5e31e1be804dc3a6ff8ba979c210f7077c6bd177b87",
          "transactionIndex": "0x0",
          "logIndex": "0x0",
          "transactionLogIndex": "0x0",
          "removed": false
        },
        {
          "address": "0x9fE46736679d2D9a65F0992F2272dE9f3c7fa6e0",
          "topics": [
            "0xbbd76ddf496bdc451129f83bf75dc2941b7ff0102da7d5f03f07a3a2f741fc70",
            "0x000000000000000000000000f39fd6e51aad88f6f4ce6ab8827279cfffb92266"
          ],
          "data": "0x",
          "blockHash": "0x87753b70ae2fd23c6c19d3ae84c481442d71c639c23a03cadc9666ce00df925b",
          "blockNumber": "0x6",
          "transactionHash": "0xe51254b881052c377c66c5e31e1be804dc3a6ff8ba979c210f7077c6bd177b87",
          "transactionIndex": "0x0",
          "logIndex": "0x1",
          "transactionLogIndex": "0x1",
          "removed": false
        }
      ],
      "status": "0x1",
      "logsBloom": "0x00000000000000000000000000000000000000000000000000000000000000000000000000000000000000000000000000000000000840200000000000000000000000000000000000000000000000000000000000000000000000000000000000000000000000000000000100000400000000000000000000000000000000000000000000000000000000000000000000000000000000000000000000000000000000000000000000000000000000000000000000000000000000000000000000000000000000200000000002000000000000002000000000000000000000000000000000000000000000000000000000000000000000400000000000000000",
      "type": "0x2",
      "effectiveGasPrice": "0xd22f35d5"
    }
  ],
  "libraries": [],
  "pending": [],
  "returns": {},
  "timestamp": 1706850351,
  "chain": 31337,
  "multi": false,
  "commit": "bd566c44"
}