{
  "transactions": [
    {
      "hash": "0x18d7760e8b84cb472287623920ecba9a6c202a0befd0f6e0067edc8901dada0d",
      "transactionType": "CALL",
      "contractName": null,
      "contractAddress": "0x9fE46736679d2D9a65F0992F2272dE9f3c7fa6e0",
      "function": "post((address,(uint256,uint256,uint8,bytes),uint16,bytes32,uint16,bytes))",
      "arguments": [
        "(0x6CA6d1e2D5347Bfab1d91e883F1915560e09129D, (1, 1706761232, 3, 0x0000000000000000000000000000000000000000000000000000000000000020000000000000000000000000000000000000000000000000000000000000004000000000000000000000000000000000000000000000000000000000000001400000000000000000000000000000000000000000000000000000000000000001000000000000000000000000000000000000000000000000000000000000004000000000000000000000000000000000000000000000000000000000000000a000000000000000000000000000000000000000000000000000000000000000200000000000000000000000000000000000000000000000000000000000000042697066733a2f2f62616679626569637a73736364736273376666717a3535617371646633736d76366b6c637733676f66737a76776c796172636934376267663335340000000000000000000000000000000000000000000000000000000000000000000000000000000000000000000000000000000000000000000000000001000000000000000000000000000000000000000000000000000000000000004000000000000000000000000000000000000000000000000000000000000000e00000000000000000000000000000000000000000000000000000000000000040000000000000000000000000000000000000000000000000000000000000008000000000000000000000000000000000000000000000000000000000000000010000000000000000000000000000000000000000000000000000000000000001000000000000000000000000000000000000000000000000000000000000000200000000000000000000000000000000000000000000000000000000000000020000000000000000000000000000000000000000000000000000000000000003), 1, 0x94e87bcb60a807a9b309e85d70ac02936b42363d77f31b7d4feb38030c8b9716, 1, 0x01d10bee01e1f07deeb21c70ad4d6c73a727fe1e9b60a81828b52c2be5ccdc441f0325ac774ad7f894a2fdaf79bab5117e4e99c391b95b6718c7ab659ccb83ba1b)"
      ],
      "transaction": {
        "type": "0x02",
        "from": "0xf39fd6e51aad88f6f4ce6ab8827279cfffb92266",
        "to": "0x9fe46736679d2d9a65f0992f2272de9f3c7fa6e0",
        "gas": "0xa0e6",
        "value": "0x0",
        "data": "0x3e26eb8300000000000000000000000000000000000000000000000000000000000000200000000000000000000000006ca6d1e2d5347bfab1d91e883f1915560e09129d00000000000000000000000000000000000000000000000000000000000000c0000000000000000000000000000000000000000000000000000000000000000194e87bcb60a807a9b309e85d70ac02936b42363d77f31b7d4feb38030c8b97160000000000000000000000000000000000000000000000000000000000000001000000000000000000000000000000000000000000000000000000000000040000000000000000000000000000000000000000000000000000000000000000010000000000000000000000000000000000000000000000000000000065bb1c100000000000000000000000000000000000000000000000000000000000000003000000000000000000000000000000000000000000000000000000000000008000000000000000000000000000000000000000000000000000000000000002a00000000000000000000000000000000000000000000000000000000000000020000000000000000000000000000000000000000000000000000000000000004000000000000000000000000000000000000000000000000000000000000001400000000000000000000000000000000000000000000000000000000000000001000000000000000000000000000000000000000000000000000000000000004000000000000000000000000000000000000000000000000000000000000000a000000000000000000000000000000000000000000000000000000000000000200000000000000000000000000000000000000000000000000000000000000042697066733a2f2f62616679626569637a73736364736273376666717a3535617371646633736d76366b6c637733676f66737a76776c796172636934376267663335340000000000000000000000000000000000000000000000000000000000000000000000000000000000000000000000000000000000000000000000000001000000000000000000000000000000000000000000000000000000000000004000000000000000000000000000000000000000000000000000000000000000e00000000000000000000000000000000000000000000000000000000000000040000000000000000000000000000000000000000000000000000000000000008000000000000000000000000000000000000000000000000000000000000000010000000000000000000000000000000000000000000000000000000000000001000000000000000000000000000000000000000000000000000000000000000200000000000000000000000000000000000000000000000000000000000000020000000000000000000000000000000000000000000000000000000000000003000000000000000000000000000000000000000000000000000000000000004101d10bee01e1f07deeb21c70ad4d6c73a727fe1e9b60a81828b52c2be5ccdc441f0325ac774ad7f894a2fdaf79bab5117e4e99c391b95b6718c7ab659ccb83ba1b00000000000000000000000000000000000000000000000000000000000000",
        "nonce": "0x4",
        "accessList": []
      },
      "additionalContracts": [],
      "isFixedGasLimit": false
    }
  ],
  "receipts": [
    {
      "transactionHash": "0x18d7760e8b84cb472287623920ecba9a6c202a0befd0f6e0067edc8901dada0d",
      "transactionIndex": "0x0",
      "blockHash": "0x3ca3f77a55748c46c60686551fd054aba8b2d55adf15e0bbdaeaea936c2fb6dc",
      "blockNumber": "0x5",
      "from": "0xf39Fd6e51aad88F6F4ce6aB8827279cffFb92266",
      "to": "0x9fE46736679d2D9a65F0992F2272dE9f3c7fa6e0",
      "cumulativeGasUsed": "0x747e",
      "gasUsed": "0x747e",
      "contractAddress": null,
      "logs": [
        {
          "address": "0x9fE46736679d2D9a65F0992F2272dE9f3c7fa6e0",
          "topics": [
            "0xbbd76ddf496bdc451129f83bf75dc2941b7ff0102da7d5f03f07a3a2f741fc70",
            "0x000000000000000000000000f39fd6e51aad88f6f4ce6ab8827279cfffb92266"
          ],
          "data": "0x",
          "blockHash": "0x3ca3f77a55748c46c60686551fd054aba8b2d55adf15e0bbdaeaea936c2fb6dc",
          "blockNumber": "0x5",
          "transactionHash": "0x18d7760e8b84cb472287623920ecba9a6c202a0befd0f6e0067edc8901dada0d",
          "transactionIndex": "0x0",
          "logIndex": "0x0",
          "transactionLogIndex": "0x0",
          "removed": false
        }
      ],
      "status": "0x1",
      "logsBloom": "0x00000000000000000000000000000000000000000000000000000000000000000000000000000000000000000000000000000000000840200000000000000000000000000000000000000000000000000000000000000000000000000000000000000000000000000000000100000400000000000000000000000000000000000000000000000000000000000000000000000000000000000000000000000000000000000000000000000000000000000000000000000000000000000000000000000000000000200000000002000000000000002000000000000000000000000000000000000000000000000000000000000000000000400000000000000000",
      "type": "0x2",
      "effectiveGasPrice": "0xd69cd849"
    }
  ],
  "libraries": [],
  "pending": [],
  "returns": {},
  "timestamp": 1706762949,
  "chain": 31337,
  "multi": false,
  "commit": "1c3f72bc"
}