{
  "transactions": [
    {
      "hash": "0x599d780bdeefa6fa991051b652a692c331afbb4f2bdb60520450d6a65a1389c2",
      "transactionType": "CALL",
      "contractName": null,
      "contractAddress": "0x9fE46736679d2D9a65F0992F2272dE9f3c7fa6e0",
      "function": "postBatch((address,(uint256,uint256,uint8,bytes),uint16,bytes32,uint16,bytes)[])",
      "arguments": [
        "[(0x6CA6d1e2D5347Bfab1d91e883F1915560e09129D, (1, 1706743141, 1, 0x00000000000000000000000000000000000000000000000000000000000000200000000000000000000000000000000000000000000000000000000000000040000000000000000000000000000000000000000000000000000000000000010000000000000000000000000000000000000000000000000000000000000000010000000000000000000000000000000000000000000000000000000000000040000000000000000000000000000000000000000000000000000000000000006000000000000000000000000000000000000000000000000000000000000000200000000000000000000000000000000000000000000000000000000000000011697066733a2f2f636f6e74656e74734f66000000000000000000000000000000000000000000000000000000000000000000000000000000000000000000000100000000000000000000000000000000000000000000000000000000000000400000000000000000000000000000000000000000000000000000000000000060000000000000000000000000000000000000000000000000000000000000002000000000000000000000000000000000000000000000000000000000000000010000000000000000000000000000000000000000000000000000000000000001), 1, 0x41d5a72c20d1e80cb4e1dbd445d7f561efa08a646669d5f1946dd957dfd53e6b, 1, 0x5b1c68891c7dcfe22362417e3c880519ab61bb6491eba7dc85b1f18338337eaa58515f5e8f2d3aa3123e7636753743e7b429d70abe8ef3fec6be2ca21d5da7f91b), (0x6CA6d1e2D5347Bfab1d91e883F1915560e09129D, (1, 1706743141, 5, 0x0000000000000000000000000000000000000000000000000000000000000020000000000000000000000000000000000000000000000000000000000000004000000000000000000000000000000000000000000000000000000000000000800000000000000000000000000000000000000000000000000000000000000016697066733a2f2f6974656d506c616365686f6c646572000000000000000000000000000000000000000000000000000000000000000000000000000000000019697066733a2f2f6368616e6e656c506c616365686f6c64657200000000000000), 1, 0xa9c55f31751763dd30293ed837faab638c3154744ea2339b3e3945d1305bad9d, 1, 0x875f4d8aa3e56bbbc335a528cccb0be6e2272540a502f188fdf253b88bc041ed0700d66d585280015e4dd53e3d0b0936914abbab3a39003ff9330ba4c6f6f4d41c)]"
      ],
      "transaction": {
        "type": "0x02",
        "from": "0xf39fd6e51aad88f6f4ce6ab8827279cfffb92266",
        "to": "0x9fe46736679d2d9a65f0992f2272de9f3c7fa6e0",
        "gas": "0xc95f",
        "value": "0x0",
        "data": "0xcaa550b400000000000000000000000000000000000000000000000000000000000000200000000000000000000000000000000000000000000000000000000000000002000000000000000000000000000000000000000000000000000000000000004000000000000000000000000000000000000000000000000000000000000004000000000000000000000000006ca6d1e2d5347bfab1d91e883f1915560e09129d00000000000000000000000000000000000000000000000000000000000000c0000000000000000000000000000000000000000000000000000000000000000141d5a72c20d1e80cb4e1dbd445d7f561efa08a646669d5f1946dd957dfd53e6b0000000000000000000000000000000000000000000000000000000000000001000000000000000000000000000000000000000000000000000000000000034000000000000000000000000000000000000000000000000000000000000000010000000000000000000000000000000000000000000000000000000065bad5650000000000000000000000000000000000000000000000000000000000000001000000000000000000000000000000000000000000000000000000000000008000000000000000000000000000000000000000000000000000000000000001e000000000000000000000000000000000000000000000000000000000000000200000000000000000000000000000000000000000000000000000000000000040000000000000000000000000000000000000000000000000000000000000010000000000000000000000000000000000000000000000000000000000000000010000000000000000000000000000000000000000000000000000000000000040000000000000000000000000000000000000000000000000000000000000006000000000000000000000000000000000000000000000000000000000000000200000000000000000000000000000000000000000000000000000000000000011697066733a2f2f636f6e74656e74734f6600000000000000000000000000000000000000000000000000000000000000000000000000000000000000000000010000000000000000000000000000000000000000000000000000000000000040000000000000000000000000000000000000000000000000000000000000006000000000000000000000000000000000000000000000000000000000000000200000000000000000000000000000000000000000000000000000000000000001000000000000000000000000000000000000000000000000000000000000000100000000000000000000000000000000000000000000000000000000000000415b1c68891c7dcfe22362417e3c880519ab61bb6491eba7dc85b1f18338337eaa58515f5e8f2d3aa3123e7636753743e7b429d70abe8ef3fec6be2ca21d5da7f91b000000000000000000000000000000000000000000000000000000000000000000000000000000000000006ca6d1e2d5347bfab1d91e883f1915560e09129d00000000000000000000000000000000000000000000000000000000000000c00000000000000000000000000000000000000000000000000000000000000001a9c55f31751763dd30293ed837faab638c3154744ea2339b3e3945d1305bad9d0000000000000000000000000000000000000000000000000000000000000001000000000000000000000000000000000000000000000000000000000000024000000000000000000000000000000000000000000000000000000000000000010000000000000000000000000000000000000000000000000000000065bad5650000000000000000000000000000000000000000000000000000000000000005000000000000000000000000000000000000000000000000000000000000008000000000000000000000000000000000000000000000000000000000000000e00000000000000000000000000000000000000000000000000000000000000020000000000000000000000000000000000000000000000000000000000000004000000000000000000000000000000000000000000000000000000000000000800000000000000000000000000000000000000000000000000000000000000016697066733a2f2f6974656d506c616365686f6c646572000000000000000000000000000000000000000000000000000000000000000000000000000000000019697066733a2f2f6368616e6e656c506c616365686f6c646572000000000000000000000000000000000000000000000000000000000000000000000000000041875f4d8aa3e56bbbc335a528cccb0be6e2272540a502f188fdf253b88bc041ed0700d66d585280015e4dd53e3d0b0936914abbab3a39003ff9330ba4c6f6f4d41c00000000000000000000000000000000000000000000000000000000000000",
        "nonce": "0x5",
        "accessList": []
      },
      "additionalContracts": [],
      "isFixedGasLimit": false
    }
  ],
  "receipts": [
    {
      "transactionHash": "0x599d780bdeefa6fa991051b652a692c331afbb4f2bdb60520450d6a65a1389c2",
      "transactionIndex": "0x0",
      "blockHash": "0xc7c4a69aac1690cc702cb6191caaf35985f28d8aec39352d7429b34c2a7b74a9",
      "blockNumber": "0x6",
      "from": "0xf39Fd6e51aad88F6F4ce6aB8827279cffFb92266",
      "to": "0x9fE46736679d2D9a65F0992F2272dE9f3c7fa6e0",
      "cumulativeGasUsed": "0x89b1",
      "gasUsed": "0x89b1",
      "contractAddress": null,
      "logs": [
        {
          "address": "0x9fE46736679d2D9a65F0992F2272dE9f3c7fa6e0",
          "topics": [
            "0xbbd76ddf496bdc451129f83bf75dc2941b7ff0102da7d5f03f07a3a2f741fc70",
            "0x000000000000000000000000f39fd6e51aad88f6f4ce6ab8827279cfffb92266"
          ],
          "data": "0x",
          "blockHash": "0xc7c4a69aac1690cc702cb6191caaf35985f28d8aec39352d7429b34c2a7b74a9",
          "blockNumber": "0x6",
          "transactionHash": "0x599d780bdeefa6fa991051b652a692c331afbb4f2bdb60520450d6a65a1389c2",
          "transactionIndex": "0x0",
          "logIndex": "0x0",
          "transactionLogIndex": "0x0",
          "removed": false
        },
        {
          "address": "0x9fE46736679d2D9a65F0992F2272dE9f3c7fa6e0",
          "topics": [
            "0xbbd76ddf496bdc451129f83bf75dc2941b7ff0102da7d5f03f07a3a2f741fc70",
            "0x000000000000000000000000f39fd6e51aad88f6f4ce6ab8827279cfffb92266"
          ],
          "data": "0x",
          "blockHash": "0xc7c4a69aac1690cc702cb6191caaf35985f28d8aec39352d7429b34c2a7b74a9",
          "blockNumber": "0x6",
          "transactionHash": "0x599d780bdeefa6fa991051b652a692c331afbb4f2bdb60520450d6a65a1389c2",
          "transactionIndex": "0x0",
          "logIndex": "0x1",
          "transactionLogIndex": "0x1",
          "removed": false
        }
      ],
      "status": "0x1",
      "logsBloom": "0x00000000000000000000000000000000000000000000000000000000000000000000000000000000000000000000000000000000000840200000000000000000000000000000000000000000000000000000000000000000000000000000000000000000000000000000000100000400000000000000000000000000000000000000000000000000000000000000000000000000000000000000000000000000000000000000000000000000000000000000000000000000000000000000000000000000000000200000000002000000000000002000000000000000000000000000000000000000000000000000000000000000000000400000000000000000",
      "type": "0x2",
      "effectiveGasPrice": "0xd225900c"
    }
  ],
  "libraries": [],
  "pending": [],
  "returns": {},
  "timestamp": 1706743182,
  "chain": 31337,
  "multi": false,
  "commit": "eb3b82ca"
}