{
  "transactions": [
    {
      "hash": "0xba5d02a5a038e5d4151f1f3b1393992ed72bf4a2560aa849ecf256c7fd3a3286",
      "transactionType": "CALL",
      "contractName": null,
      "contractAddress": "0x9fE46736679d2D9a65F0992F2272dE9f3c7fa6e0",
      "function": "post((address,(uint256,uint256,uint8,bytes),uint16,bytes32,uint16,bytes))",
      "arguments": [
        "(0xf39Fd6e51aad88F6F4ce6aB8827279cffFb92266, (1, 1706849357, 3, 0x0000000000000000000000000000000000000000000000000000000000000020000000000000000000000000000000000000000000000000000000000000004000000000000000000000000000000000000000000000000000000000000001400000000000000000000000000000000000000000000000000000000000000001000000000000000000000000000000000000000000000000000000000000004000000000000000000000000000000000000000000000000000000000000000a0000000000000000000000000000000000000000000000000000000000000002000000000000000000000000000000000000000000000000000000000000000426f6d52755957316c61324e6f595735755a57784f5957316c6132526c63324e796158423061573975636d4e6f595735755a5778455a584e6a636d6c7764476c7662670000000000000000000000000000000000000000000000000000000000000000000000000000000000000000000000000000000000000000000000000001000000000000000000000000000000000000000000000000000000000000004000000000000000000000000000000000000000000000000000000000000000e00000000000000000000000000000000000000000000000000000000000000040000000000000000000000000000000000000000000000000000000000000008000000000000000000000000000000000000000000000000000000000000000010000000000000000000000000000000000000000000000000000000000000001000000000000000000000000000000000000000000000000000000000000000200000000000000000000000000000000000000000000000000000000000000020000000000000000000000000000000000000000000000000000000000000003), 1, 0x8e07003810fec179f7da246be0331650b1f4e0605f3014b44d99c96b963a4790, 1, 0xeaf3965650aaacd9019a5fcc44e5f3abc35815b66c2242e7cd04a31b7d0bc0423791563c734732302fb217323a5956ab2f3b5a5b146b97483fb92eeb399fd70f1b)"
      ],
      "transaction": {
        "type": "0x02",
        "from": "0xf39fd6e51aad88f6f4ce6ab8827279cfffb92266",
        "to": "0x9fe46736679d2d9a65f0992f2272de9f3c7fa6e0",
        "gas": "0xaa6e",
        "value": "0x0",
        "data": "0x3e26eb830000000000000000000000000000000000000000000000000000000000000020000000000000000000000000f39fd6e51aad88f6f4ce6ab8827279cfffb9226600000000000000000000000000000000000000000000000000000000000000c000000000000000000000000000000000000000000000000000000000000000018e07003810fec179f7da246be0331650b1f4e0605f3014b44d99c96b963a47900000000000000000000000000000000000000000000000000000000000000001000000000000000000000000000000000000000000000000000000000000040000000000000000000000000000000000000000000000000000000000000000010000000000000000000000000000000000000000000000000000000065bc744d0000000000000000000000000000000000000000000000000000000000000003000000000000000000000000000000000000000000000000000000000000008000000000000000000000000000000000000000000000000000000000000002a00000000000000000000000000000000000000000000000000000000000000020000000000000000000000000000000000000000000000000000000000000004000000000000000000000000000000000000000000000000000000000000001400000000000000000000000000000000000000000000000000000000000000001000000000000000000000000000000000000000000000000000000000000004000000000000000000000000000000000000000000000000000000000000000a0000000000000000000000000000000000000000000000000000000000000002000000000000000000000000000000000000000000000000000000000000000426f6d52755957316c61324e6f595735755a57784f5957316c6132526c63324e796158423061573975636d4e6f595735755a5778455a584e6a636d6c7764476c7662670000000000000000000000000000000000000000000000000000000000000000000000000000000000000000000000000000000000000000000000000001000000000000000000000000000000000000000000000000000000000000004000000000000000000000000000000000000000000000000000000000000000e000000000000000000000000000000000000000000000000000000000000000400000000000000000000000000000000000000000000000000000000000000080000000000000000000000000000000000000000000000000000000000000000100000000000000000000000000000000000000000000000000000000000000010000000000000000000000000000000000000000000000000000000000000002000000000000000000000000000000000000000000000000000000000000000200000000000000000000000000000000000000000000000000000000000000030000000000000000000000000000000000000000000000000000000000000041eaf3965650aaacd9019a5fcc44e5f3abc35815b66c2242e7cd04a31b7d0bc0423791563c734732302fb217323a5956ab2f3b5a5b146b97483fb92eeb399fd70f1b00000000000000000000000000000000000000000000000000000000000000",
        "nonce": "0x4",
        "accessList": []
      },
      "additionalContracts": [],
      "isFixedGasLimit": false
    }
  ],
  "receipts": [
    {
      "transactionHash": "0xba5d02a5a038e5d4151f1f3b1393992ed72bf4a2560aa849ecf256c7fd3a3286",
      "transactionIndex": "0x0",
      "blockHash": "0xbfb01741077c910efe57695309a1b6c3575351fbd223d01f6dc45e8aa96d8bcb",
      "blockNumber": "0x5",
      "from": "0xf39Fd6e51aad88F6F4ce6aB8827279cffFb92266",
      "to": "0x9fE46736679d2D9a65F0992F2272dE9f3c7fa6e0",
      "cumulativeGasUsed": "0x7489",
      "gasUsed": "0x7489",
      "contractAddress": null,
      "logs": [
        {
          "address": "0x9fE46736679d2D9a65F0992F2272dE9f3c7fa6e0",
          "topics": [
            "0xbbd76ddf496bdc451129f83bf75dc2941b7ff0102da7d5f03f07a3a2f741fc70",
            "0x000000000000000000000000f39fd6e51aad88f6f4ce6ab8827279cfffb92266"
          ],
          "data": "0x",
          "blockHash": "0xbfb01741077c910efe57695309a1b6c3575351fbd223d01f6dc45e8aa96d8bcb",
          "blockNumber": "0x5",
          "transactionHash": "0xba5d02a5a038e5d4151f1f3b1393992ed72bf4a2560aa849ecf256c7fd3a3286",
          "transactionIndex": "0x0",
          "logIndex": "0x0",
          "transactionLogIndex": "0x0",
          "removed": false
        }
      ],
      "status": "0x1",
      "logsBloom": "0x00000000000000000000000000000000000000000000000000000000000000000000000000000000000000000000000000000000000840200000000000000000000000000000000000000000000000000000000000000000000000000000000000000000000000000000000100000400000000000000000000000000000000000000000000000000000000000000000000000000000000000000000000000000000000000000000000000000000000000000000000000000000000000000000000000000000000200000000002000000000000002000000000000000000000000000000000000000000000000000000000000000000000400000000000000000",
      "type": "0x2",
      "effectiveGasPrice": "0xd6a7dd94"
    }
  ],
  "libraries": [],
  "pending": [],
  "returns": {},
  "timestamp": 1706849378,
  "chain": 31337,
  "multi": false,
  "commit": "bd566c44"
}