{
  "transactions": [
    {
      "hash": "0x7d2b648e38173879b33023bb26017d511146162bddcc1e42e0b9f09d35950a35",
      "transactionType": "CALL",
      "contractName": null,
      "contractAddress": "0x9fE46736679d2D9a65F0992F2272dE9f3c7fa6e0",
      "function": "post((address,(uint256,uint256,uint8,bytes),uint16,bytes32,uint16,bytes))",
      "arguments": [
        "(0xf39Fd6e51aad88F6F4ce6aB8827279cffFb92266, (1, 1706850037, 3, 0x0000000000000000000000000000000000000000000000000000000000000020000000000000000000000000000000000000000000000000000000000000004000000000000000000000000000000000000000000000000000000000000001400000000000000000000000000000000000000000000000000000000000000001000000000000000000000000000000000000000000000000000000000000004000000000000000000000000000000000000000000000000000000000000000a0000000000000000000000000000000000000000000000000000000000000002000000000000000000000000000000000000000000000000000000000000000426f6d52755957316c61324e6f595735755a57784f5957316c6132526c63324e796158423061573975636d4e6f595735755a5778455a584e6a636d6c7764476c7662670000000000000000000000000000000000000000000000000000000000000000000000000000000000000000000000000000000000000000000000000001000000000000000000000000000000000000000000000000000000000000004000000000000000000000000000000000000000000000000000000000000000e00000000000000000000000000000000000000000000000000000000000000040000000000000000000000000000000000000000000000000000000000000008000000000000000000000000000000000000000000000000000000000000000010000000000000000000000000000000000000000000000000000000000000001000000000000000000000000000000000000000000000000000000000000000200000000000000000000000000000000000000000000000000000000000000020000000000000000000000000000000000000000000000000000000000000003), 1, 0x07f7fae25af0a06c26e68b9f39c9ca6206c855a871ee76fe6c454e86c5ea223d, 1, 0x5190864505d46366eff7d6a1e1c07aa6172801c06969096abd1b4523270babcf1d0802fddb2cdbdd56c7b8b7ad7c1f60a8b04c8241472f36769943763ca1efaa1c)"
      ],
      "transaction": {
        "type": "0x02",
        "from": "0xf39fd6e51aad88f6f4ce6ab8827279cfffb92266",
        "to": "0x9fe46736679d2d9a65f0992f2272de9f3c7fa6e0",
        "gas": "0xa107",
        "value": "0x0",
        "data": "0x3e26eb830000000000000000000000000000000000000000000000000000000000000020000000000000000000000000f39fd6e51aad88f6f4ce6ab8827279cfffb9226600000000000000000000000000000000000000000000000000000000000000c0000000000000000000000000000000000000000000000000000000000000000107f7fae25af0a06c26e68b9f39c9ca6206c855a871ee76fe6c454e86c5ea223d0000000000000000000000000000000000000000000000000000000000000001000000000000000000000000000000000000000000000000000000000000040000000000000000000000000000000000000000000000000000000000000000010000000000000000000000000000000000000000000000000000000065bc76f50000000000000000000000000000000000000000000000000000000000000003000000000000000000000000000000000000000000000000000000000000008000000000000000000000000000000000000000000000000000000000000002a00000000000000000000000000000000000000000000000000000000000000020000000000000000000000000000000000000000000000000000000000000004000000000000000000000000000000000000000000000000000000000000001400000000000000000000000000000000000000000000000000000000000000001000000000000000000000000000000000000000000000000000000000000004000000000000000000000000000000000000000000000000000000000000000a0000000000000000000000000000000000000000000000000000000000000002000000000000000000000000000000000000000000000000000000000000000426f6d52755957316c61324e6f595735755a57784f5957316c6132526c63324e796158423061573975636d4e6f595735755a5778455a584e6a636d6c7764476c7662670000000000000000000000000000000000000000000000000000000000000000000000000000000000000000000000000000000000000000000000000001000000000000000000000000000000000000000000000000000000000000004000000000000000000000000000000000000000000000000000000000000000e0000000000000000000000000000000000000000000000000000000000000004000000000000000000000000000000000000000000000000000000000000000800000000000000000000000000000000000000000000000000000000000000001000000000000000000000000000000000000000000000000000000000000000100000000000000000000000000000000000000000000000000000000000000020000000000000000000000000000000000000000000000000000000000000002000000000000000000000000000000000000000000000000000000000000000300000000000000000000000000000000000000000000000000000000000000415190864505d46366eff7d6a1e1c07aa6172801c06969096abd1b4523270babcf1d0802fddb2cdbdd56c7b8b7ad7c1f60a8b04c8241472f36769943763ca1efaa1c00000000000000000000000000000000000000000000000000000000000000",
        "nonce": "0x4",
        "accessList": []
      },
      "additionalContracts": [],
      "isFixedGasLimit": false
    }
  ],
  "receipts": [
    {
      "transactionHash": "0x7d2b648e38173879b33023bb26017d511146162bddcc1e42e0b9f09d35950a35",
      "transactionIndex": "0x0",
      "blockHash": "0x280272dce034527e5717882d8278c8acd12e120e39dc2d9f6a75213d0003ab60",
      "blockNumber": "0x5",
      "from": "0xf39Fd6e51aad88F6F4ce6aB8827279cffFb92266",
      "to": "0x9fE46736679d2D9a65F0992F2272dE9f3c7fa6e0",
      "cumulativeGasUsed": "0x7495",
      "gasUsed": "0x7495",
      "contractAddress": null,
      "logs": [
        {
          "address": "0x9fE46736679d2D9a65F0992F2272dE9f3c7fa6e0",
          "topics": [
            "0xbbd76ddf496bdc451129f83bf75dc2941b7ff0102da7d5f03f07a3a2f741fc70",
            "0x000000000000000000000000f39fd6e51aad88f6f4ce6ab8827279cfffb92266"
          ],
          "data": "0x",
          "blockHash": "0x280272dce034527e5717882d8278c8acd12e120e39dc2d9f6a75213d0003ab60",
          "blockNumber": "0x5",
          "transactionHash": "0x7d2b648e38173879b33023bb26017d511146162bddcc1e42e0b9f09d35950a35",
          "transactionIndex": "0x0",
          "logIndex": "0x0",
          "transactionLogIndex": "0x0",
          "removed": false
        }
      ],
      "status": "0x1",
      "logsBloom": "0x00000000000000000000000000000000000000000000000000000000000000000000000000000000000000000000000000000000000840200000000000000000000000000000000000000000000000000000000000000000000000000000000000000000000000000000000100000400000000000000000000000000000000000000000000000000000000000000000000000000000000000000000000000000000000000000000000000000000000000000000000000000000000000000000000000000000000200000000002000000000000002000000000000000000000000000000000000000000000000000000000000000000000400000000000000000",
      "type": "0x2",
      "effectiveGasPrice": "0xd6a013b9"
    }
  ],
  "libraries": [],
  "pending": [],
  "returns": {},
  "timestamp": 1706850064,
  "chain": 31337,
  "multi": false,
  "commit": "bd566c44"
}