{
  "transactions": [
    {
      "hash": "0xaafb0e1eeadc349bdd35f52ec606b96834c8bf4b10176b81126cba969eb01c00",
      "transactionType": "CALL",
      "contractName": null,
      "contractAddress": "0x9fE46736679d2D9a65F0992F2272dE9f3c7fa6e0",
      "function": "postBatch((address,(uint256,uint256,uint8,bytes),uint16,bytes32,uint16,bytes)[])",
      "arguments": [
        "[(0xf39Fd6e51aad88F6F4ce6aB8827279cffFb92266, (1, 1706849379, 1, 0x00000000000000000000000000000000000000000000000000000000000000200000000000000000000000000000000000000000000000000000000000000040000000000000000000000000000000000000000000000000000000000000010000000000000000000000000000000000000000000000000000000000000000010000000000000000000000000000000000000000000000000000000000000040000000000000000000000000000000000000000000000000000000000000006000000000000000000000000000000000000000000000000000000000000000200000000000000000000000000000000000000000000000000000000000000019697066733a2f2f706c616365686f6c6465724974656d55726900000000000000000000000000000000000000000000000000000000000000000000000000000100000000000000000000000000000000000000000000000000000000000000400000000000000000000000000000000000000000000000000000000000000060000000000000000000000000000000000000000000000000000000000000002000000000000000000000000000000000000000000000000000000000000000010000000000000000000000000000000000000000000000000000000000000001), 1, 0xa8c1f376442b738e6a6391a72ccfb3ee77e6b5307fbf5c6f8c00b318f4d41e5f, 1, 0x77e53f14b5b3abdd212ab29377e86ffaeb929830a4146bcf254af0b2e483bca55d56b9f0c5c801ec150b60300348d38785581e9d3f8766431e578cc0135a73971b), (0xf39Fd6e51aad88F6F4ce6aB8827279cffFb92266, (1, 1706849379, 5, 0x0000000000000000000000000000000000000000000000000000000000000020000000000000000000000000000000000000000000000000000000000000004000000000000000000000000000000000000000000000000000000000000000800000000000000000000000000000000000000000000000000000000000000016697066733a2f2f6974656d506c616365686f6c646572000000000000000000000000000000000000000000000000000000000000000000000000000000000019697066733a2f2f6368616e6e656c506c616365686f6c64657200000000000000), 1, 0xa5610e38f6b1f59b7ca34b7efc37b65c63de61a362d8a93a47f300ef44900ab3, 1, 0x4b23bac3f6a574271b5da3c687fc509a9dd2696262d5563cf594d3695dc866377169761606b92be40ae2170627e926137fe675990b65e38a6972a834835d5c2b1b)]"
      ],
      "transaction": {
        "type": "0x02",
        "from": "0xf39fd6e51aad88f6f4ce6ab8827279cfffb92266",
        "to": "0x9fe46736679d2d9a65f0992f2272de9f3c7fa6e0",
        "gas": "0xc9eb",
        "value": "0x0",
        "data": "0xcaa550b40000000000000000000000000000000000000000000000000000000000000020000000000000000000000000000000000000000000000000000000000000000200000000000000000000000000000000000000000000000000000000000000400000000000000000000000000000000000000000000000000000000000000400000000000000000000000000f39fd6e51aad88f6f4ce6ab8827279cfffb9226600000000000000000000000000000000000000000000000000000000000000c00000000000000000000000000000000000000000000000000000000000000001a8c1f376442b738e6a6391a72ccfb3ee77e6b5307fbf5c6f8c00b318f4d41e5f0000000000000000000000000000000000000000000000000000000000000001000000000000000000000000000000000000000000000000000000000000034000000000000000000000000000000000000000000000000000000000000000010000000000000000000000000000000000000000000000000000000065bc74630000000000000000000000000000000000000000000000000000000000000001000000000000000000000000000000000000000000000000000000000000008000000000000000000000000000000000000000000000000000000000000001e000000000000000000000000000000000000000000000000000000000000000200000000000000000000000000000000000000000000000000000000000000040000000000000000000000000000000000000000000000000000000000000010000000000000000000000000000000000000000000000000000000000000000010000000000000000000000000000000000000000000000000000000000000040000000000000000000000000000000000000000000000000000000000000006000000000000000000000000000000000000000000000000000000000000000200000000000000000000000000000000000000000000000000000000000000019697066733a2f2f706c616365686f6c6465724974656d55726900000000000000000000000000000000000000000000000000000000000000000000000000000100000000000000000000000000000000000000000000000000000000000000400000000000000000000000000000000000000000000000000000000000000060000000000000000000000000000000000000000000000000000000000000002000000000000000000000000000000000000000000000000000000000000000010000000000000000000000000000000000000000000000000000000000000001000000000000000000000000000000000000000000000000000000000000004177e53f14b5b3abdd212ab29377e86ffaeb929830a4146bcf254af0b2e483bca55d56b9f0c5c801ec150b60300348d38785581e9d3f8766431e578cc0135a73971b00000000000000000000000000000000000000000000000000000000000000000000000000000000000000f39fd6e51aad88f6f4ce6ab8827279cfffb9226600000000000000000000000000000000000000000000000000000000000000c00000000000000000000000000000000000000000000000000000000000000001a5610e38f6b1f59b7ca34b7efc37b65c63de61a362d8a93a47f300ef44900ab30000000000000000000000000000000000000000000000000000000000000001000000000000000000000000000000000000000000000000000000000000024000000000000000000000000000000000000000000000000000000000000000010000000000000000000000000000000000000000000000000000000065bc74630000000000000000000000000000000000000000000000000000000000000005000000000000000000000000000000000000000000000000000000000000008000000000000000000000000000000000000000000000000000000000000000e00000000000000000000000000000000000000000000000000000000000000020000000000000000000000000000000000000000000000000000000000000004000000000000000000000000000000000000000000000000000000000000000800000000000000000000000000000000000000000000000000000000000000016697066733a2f2f6974656d506c616365686f6c646572000000000000000000000000000000000000000000000000000000000000000000000000000000000019697066733a2f2f6368616e6e656c506c616365686f6c6465720000000000000000000000000000000000000000000000000000000000000000000000000000414b23bac3f6a574271b5da3c687fc509a9dd2696262d5563cf594d3695dc866377169761606b92be40ae2170627e926137fe675990b65e38a6972a834835d5c2b1b00000000000000000000000000000000000000000000000000000000000000",
        "nonce": "0x5",
        "accessList": []
      },
      "additionalContracts": [],
      "isFixedGasLimit": false
    }
  ],
  "receipts": [
    {
      "transactionHash": "0xaafb0e1eeadc349bdd35f52ec606b96834c8bf4b10176b81126cba969eb01c00",
      "transactionIndex": "0x0",
      "blockHash": "0xc906a6677aa4a244067ae11d8ca137edcf2f4a03649e5ca2f32f856f62d89604",
      "blockNumber": "0x6",
      "from": "0xf39Fd6e51aad88F6F4ce6aB8827279cffFb92266",
      "to": "0x9fE46736679d2D9a65F0992F2272dE9f3c7fa6e0",
      "cumulativeGasUsed": "0x8a11",
      "gasUsed": "0x8a11",
      "contractAddress": null,
      "logs": [
        {
          "address": "0x9fE46736679d2D9a65F0992F2272dE9f3c7fa6e0",
          "topics": [
            "0xbbd76ddf496bdc451129f83bf75dc2941b7ff0102da7d5f03f07a3a2f741fc70",
            "0x000000000000000000000000f39fd6e51aad88f6f4ce6ab8827279cfffb92266"
          ],
          "data": "0x",
          "blockHash": "0xc906a6677aa4a244067ae11d8ca137edcf2f4a03649e5ca2f32f856f62d89604",
          "blockNumber": "0x6",
          "transactionHash": "0xaafb0e1eeadc349bdd35f52ec606b96834c8bf4b10176b81126cba969eb01c00",
          "transactionIndex": "0x0",
          "logIndex": "0x0",
          "transactionLogIndex": "0x0",
          "removed": false
        },
        {
          "address": "0x9fE46736679d2D9a65F0992F2272dE9f3c7fa6e0",
          "topics": [
            "0xbbd76ddf496bdc451129f83bf75dc2941b7ff0102da7d5f03f07a3a2f741fc70",
            "0x000000000000000000000000f39fd6e51aad88f6f4ce6ab8827279cfffb92266"
          ],
          "data": "0x",
          "blockHash": "0xc906a6677aa4a244067ae11d8ca137edcf2f4a03649e5ca2f32f856f62d89604",
          "blockNumber": "0x6",
          "transactionHash": "0xaafb0e1eeadc349bdd35f52ec606b96834c8bf4b10176b81126cba969eb01c00",
          "transactionIndex": "0x0",
          "logIndex": "0x1",
          "transactionLogIndex": "0x1",
          "removed": false
        }
      ],
      "status": "0x1",
      "logsBloom": "0x00000000000000000000000000000000000000000000000000000000000000000000000000000000000000000000000000000000000840200000000000000000000000000000000000000000000000000000000000000000000000000000000000000000000000000000000100000400000000000000000000000000000000000000000000000000000000000000000000000000000000000000000000000000000000000000000000000000000000000000000000000000000000000000000000000000000000200000000002000000000000002000000000000000000000000000000000000000000000000000000000000000000000400000000000000000",
      "type": "0x2",
      "effectiveGasPrice": "0xd22f3599"
    }
  ],
  "libraries": [],
  "pending": [],
  "returns": {},
  "timestamp": 1706849407,
  "chain": 31337,
  "multi": false,
  "commit": "bd566c44"
}