{
  "transactions": [
    {
      "hash": "0x70ea6a2f33b62493a3f6b8c54049bf5a1c8662bd789ae5a068a83ce6ea1c5580",
      "transactionType": "CALL",
      "contractName": null,
      "contractAddress": "0x9fE46736679d2D9a65F0992F2272dE9f3c7fa6e0",
      "function": "postBatch((address,(uint256,uint256,uint8,bytes),uint16,bytes32,uint16,bytes)[])",
      "arguments": [
        "[(0xf39Fd6e51aad88F6F4ce6aB8827279cffFb92266, (1, 1706824265, 1, 0x00000000000000000000000000000000000000000000000000000000000000200000000000000000000000000000000000000000000000000000000000000040000000000000000000000000000000000000000000000000000000000000010000000000000000000000000000000000000000000000000000000000000000010000000000000000000000000000000000000000000000000000000000000040000000000000000000000000000000000000000000000000000000000000006000000000000000000000000000000000000000000000000000000000000000200000000000000000000000000000000000000000000000000000000000000019697066733a2f2f706c616365686f6c6465724974656d55726900000000000000000000000000000000000000000000000000000000000000000000000000000100000000000000000000000000000000000000000000000000000000000000400000000000000000000000000000000000000000000000000000000000000060000000000000000000000000000000000000000000000000000000000000002000000000000000000000000000000000000000000000000000000000000000010000000000000000000000000000000000000000000000000000000000000001), 1, 0x8351d2f0acdfe812b0b324ccd7bb146f42814e45cecae6f5d99c84cc21001905, 1, 0xdf0bbc03f60a4fc07f2ab55d8afd9fa9d2d642cc2eacdb5ac45f38518dee51400fba41f74af56dee975ff00dc4c03d203781f0b4c46e3cedee3451125c7714f41b), (0xf39Fd6e51aad88F6F4ce6aB8827279cffFb92266, (1, 1706824265, 5, 0x0000000000000000000000000000000000000000000000000000000000000020000000000000000000000000000000000000000000000000000000000000004000000000000000000000000000000000000000000000000000000000000000800000000000000000000000000000000000000000000000000000000000000016697066733a2f2f6974656d506c616365686f6c646572000000000000000000000000000000000000000000000000000000000000000000000000000000000019697066733a2f2f6368616e6e656c506c616365686f6c64657200000000000000), 1, 0x79c8da8fd7f5bdb0bae409dcbf15f34685297538e04e9c14ba798f3efba9bafe, 1, 0x5c65fd96d469236f1305f03cb82d737991b7a5209becd38e8f96b9a51cf3fa312a86dd676c9ddea21453d0ca10520ce9a3eb4fb96f666797a69bff1c8da1b4e41b)]"
      ],
      "transaction": {
        "type": "0x02",
        "from": "0xf39fd6e51aad88f6f4ce6ab8827279cfffb92266",
        "to": "0x9fe46736679d2d9a65f0992f2272de9f3c7fa6e0",
        "gas": "0xca1d",
        "value": "0x0",
        "data": "0xcaa550b40000000000000000000000000000000000000000000000000000000000000020000000000000000000000000000000000000000000000000000000000000000200000000000000000000000000000000000000000000000000000000000000400000000000000000000000000000000000000000000000000000000000000400000000000000000000000000f39fd6e51aad88f6f4ce6ab8827279cfffb9226600000000000000000000000000000000000000000000000000000000000000c000000000000000000000000000000000000000000000000000000000000000018351d2f0acdfe812b0b324ccd7bb146f42814e45cecae6f5d99c84cc210019050000000000000000000000000000000000000000000000000000000000000001000000000000000000000000000000000000000000000000000000000000034000000000000000000000000000000000000000000000000000000000000000010000000000000000000000000000000000000000000000000000000065bc12490000000000000000000000000000000000000000000000000000000000000001000000000000000000000000000000000000000000000000000000000000008000000000000000000000000000000000000000000000000000000000000001e000000000000000000000000000000000000000000000000000000000000000200000000000000000000000000000000000000000000000000000000000000040000000000000000000000000000000000000000000000000000000000000010000000000000000000000000000000000000000000000000000000000000000010000000000000000000000000000000000000000000000000000000000000040000000000000000000000000000000000000000000000000000000000000006000000000000000000000000000000000000000000000000000000000000000200000000000000000000000000000000000000000000000000000000000000019697066733a2f2f706c616365686f6c6465724974656d557269000000000000000000000000000000000000000000000000000000000000000000000000000001000000000000000000000000000000000000000000000000000000000000004000000000000000000000000000000000000000000000000000000000000000600000000000000000000000000000000000000000000000000000000000000020000000000000000000000000000000000000000000000000000000000000000100000000000000000000000000000000000000000000000000000000000000010000000000000000000000000000000000000000000000000000000000000041df0bbc03f60a4fc07f2ab55d8afd9fa9d2d642cc2eacdb5ac45f38518dee51400fba41f74af56dee975ff00dc4c03d203781f0b4c46e3cedee3451125c7714f41b00000000000000000000000000000000000000000000000000000000000000000000000000000000000000f39fd6e51aad88f6f4ce6ab8827279cfffb9226600000000000000000000000000000000000000000000000000000000000000c0000000000000000000000000000000000000000000000000000000000000000179c8da8fd7f5bdb0bae409dcbf15f34685297538e04e9c14ba798f3efba9bafe0000000000000000000000000000000000000000000000000000000000000001000000000000000000000000000000000000000000000000000000000000024000000000000000000000000000000000000000000000000000000000000000010000000000000000000000000000000000000000000000000000000065bc12490000000000000000000000000000000000000000000000000000000000000005000000000000000000000000000000000000000000000000000000000000008000000000000000000000000000000000000000000000000000000000000000e00000000000000000000000000000000000000000000000000000000000000020000000000000000000000000000000000000000000000000000000000000004000000000000000000000000000000000000000000000000000000000000000800000000000000000000000000000000000000000000000000000000000000016697066733a2f2f6974656d506c616365686f6c646572000000000000000000000000000000000000000000000000000000000000000000000000000000000019697066733a2f2f6368616e6e656c506c616365686f6c6465720000000000000000000000000000000000000000000000000000000000000000000000000000415c65fd96d469236f1305f03cb82d737991b7a5209becd38e8f96b9a51cf3fa312a86dd676c9ddea21453d0ca10520ce9a3eb4fb96f666797a69bff1c8da1b4e41b00000000000000000000000000000000000000000000000000000000000000",
        "nonce": "0x5",
        "accessList": []
      },
      "additionalContracts": [],
      "isFixedGasLimit": false
    }
  ],
  "receipts": [
    {
      "transactionHash": "0x70ea6a2f33b62493a3f6b8c54049bf5a1c8662bd789ae5a068a83ce6ea1c5580",
      "transactionIndex": "0x0",
      "blockHash": "0x4007dca762bcb3cf407556aad9b1ace8198f695c10729e819aa32534d7a5f931",
      "blockNumber": "0x6",
      "from": "0xf39Fd6e51aad88F6F4ce6aB8827279cffFb92266",
      "to": "0x9fE46736679d2D9a65F0992F2272dE9f3c7fa6e0",
      "cumulativeGasUsed": "0x8a33",
      "gasUsed": "0x8a33",
      "contractAddress": null,
      "logs": [
        {
          "address": "0x9fE46736679d2D9a65F0992F2272dE9f3c7fa6e0",
          "topics": [
            "0xbbd76ddf496bdc451129f83bf75dc2941b7ff0102da7d5f03f07a3a2f741fc70",
            "0x000000000000000000000000f39fd6e51aad88f6f4ce6ab8827279cfffb92266"
          ],
          "data": "0x",
          "blockHash": "0x4007dca762bcb3cf407556aad9b1ace8198f695c10729e819aa32534d7a5f931",
          "blockNumber": "0x6",
          "transactionHash": "0x70ea6a2f33b62493a3f6b8c54049bf5a1c8662bd789ae5a068a83ce6ea1c5580",
          "transactionIndex": "0x0",
          "logIndex": "0x0",
          "transactionLogIndex": "0x0",
          "removed": false
        },
        {
          "address": "0x9fE46736679d2D9a65F0992F2272dE9f3c7fa6e0",
          "topics": [
            "0xbbd76ddf496bdc451129f83bf75dc2941b7ff0102da7d5f03f07a3a2f741fc70",
            "0x000000000000000000000000f39fd6e51aad88f6f4ce6ab8827279cfffb92266"
          ],
          "data": "0x",
          "blockHash": "0x4007dca762bcb3cf407556aad9b1ace8198f695c10729e819aa32534d7a5f931",
          "blockNumber": "0x6",
          "transactionHash": "0x70ea6a2f33b62493a3f6b8c54049bf5a1c8662bd789ae5a068a83ce6ea1c5580",
          "transactionIndex": "0x0",
          "logIndex": "0x1",
          "transactionLogIndex": "0x1",
          "removed": false
        }
      ],
      "status": "0x1",
      "logsBloom": "0x00000000000000000000000000000000000000000000000000000000000000000000000000000000000000000000000000000000000840200000000000000000000000000000000000000000000000000000000000000000000000000000000000000000000000000000000100000400000000000000000000000000000000000000000000000000000000000000000000000000000000000000000000000000000000000000000000000000000000000000000000000000000000000000000000000000000000200000000002000000000000002000000000000000000000000000000000000000000000000000000000000000000000400000000000000000",
      "type": "0x2",
      "effectiveGasPrice": "0xd22c7d2a"
    }
  ],
  "libraries": [],
  "pending": [],
  "returns": {},
  "timestamp": 1706832848,
  "chain": 31337,
  "multi": false,
  "commit": "219784a2"
}