{
  "transactions": [
    {
      "hash": "0x8c0e41e49c87d010c3569128059544fea9ac1c11c8768a291f583b8ad8dd70e5",
      "transactionType": "CALL",
      "contractName": null,
      "contractAddress": "0x9fE46736679d2D9a65F0992F2272dE9f3c7fa6e0",
      "function": "postBatch((address,(uint256,uint256,uint8,bytes),uint16,bytes32,uint16,bytes)[])",
      "arguments": [
        "[(0xf39Fd6e51aad88F6F4ce6aB8827279cffFb92266, (1, 1706850145, 1, 0x00000000000000000000000000000000000000000000000000000000000000200000000000000000000000000000000000000000000000000000000000000040000000000000000000000000000000000000000000000000000000000000010000000000000000000000000000000000000000000000000000000000000000010000000000000000000000000000000000000000000000000000000000000040000000000000000000000000000000000000000000000000000000000000006000000000000000000000000000000000000000000000000000000000000000200000000000000000000000000000000000000000000000000000000000000019697066733a2f2f706c616365686f6c6465724974656d55726900000000000000000000000000000000000000000000000000000000000000000000000000000100000000000000000000000000000000000000000000000000000000000000400000000000000000000000000000000000000000000000000000000000000060000000000000000000000000000000000000000000000000000000000000002000000000000000000000000000000000000000000000000000000000000000010000000000000000000000000000000000000000000000000000000000000001), 1, 0xadd01ce66e40c723fef2539e122a78f7fa42a001e8f47bc74a082c15c6d01ef7, 1, 0xb1df6edbb1f63847746fe31b2e21b9c3fcdd2dec5975d94f24b8862c2785b4046a04cc766267ae92545b7d9d9ad4e00e2b5280f0868dd1e1581e24ed4f26798e1c), (0xf39Fd6e51aad88F6F4ce6aB8827279cffFb92266, (1, 1706850145, 5, 0x0000000000000000000000000000000000000000000000000000000000000020000000000000000000000000000000000000000000000000000000000000004000000000000000000000000000000000000000000000000000000000000000a0000000000000000000000000000000000000000000000000000000000000003b626166797265696263796c6c6d6f346e787971696a776b36376f6477626c333632766b6d706d636571327a707a7678683568657474356e36746f690000000000000000000000000000000000000000000000000000000000000000000000003b6261667972656962626a6a36726c7077753733667a6a6661356b7164367837666a376d6f6f6b736a73617564636b6a356b676432757a6264376c790000000000), 1, 0x800dedafa975b61c1665d1ddf9cdcd20334db816dca2622db1672329a614b4db, 1, 0x698473e68fd7452cb7ae09cb4b02f5707263854f6440efa1d97ed31d397ccc3c7be058525499d7f2b4ef7ff1bb52257c68ff367cc0a103d7d1eabe1e769e09491c)]"
      ],
      "transaction": {
        "type": "0x02",
        "from": "0xf39fd6e51aad88f6f4ce6ab8827279cfffb92266",
        "to": "0x9fe46736679d2d9a65f0992f2272de9f3c7fa6e0",
        "gas": "0xd075",
        "value": "0x0",
        "data": "0xcaa550b40000000000000000000000000000000000000000000000000000000000000020000000000000000000000000000000000000000000000000000000000000000200000000000000000000000000000000000000000000000000000000000000400000000000000000000000000000000000000000000000000000000000000400000000000000000000000000f39fd6e51aad88f6f4ce6ab8827279cfffb9226600000000000000000000000000000000000000000000000000000000000000c00000000000000000000000000000000000000000000000000000000000000001add01ce66e40c723fef2539e122a78f7fa42a001e8f47bc74a082c15c6d01ef70000000000000000000000000000000000000000000000000000000000000001000000000000000000000000000000000000000000000000000000000000034000000000000000000000000000000000000000000000000000000000000000010000000000000000000000000000000000000000000000000000000065bc77610000000000000000000000000000000000000000000000000000000000000001000000000000000000000000000000000000000000000000000000000000008000000000000000000000000000000000000000000000000000000000000001e000000000000000000000000000000000000000000000000000000000000000200000000000000000000000000000000000000000000000000000000000000040000000000000000000000000000000000000000000000000000000000000010000000000000000000000000000000000000000000000000000000000000000010000000000000000000000000000000000000000000000000000000000000040000000000000000000000000000000000000000000000000000000000000006000000000000000000000000000000000000000000000000000000000000000200000000000000000000000000000000000000000000000000000000000000019697066733a2f2f706c616365686f6c6465724974656d557269000000000000000000000000000000000000000000000000000000000000000000000000000001000000000000000000000000000000000000000000000000000000000000004000000000000000000000000000000000000000000000000000000000000000600000000000000000000000000000000000000000000000000000000000000020000000000000000000000000000000000000000000000000000000000000000100000000000000000000000000000000000000000000000000000000000000010000000000000000000000000000000000000000000000000000000000000041b1df6edbb1f63847746fe31b2e21b9c3fcdd2dec5975d94f24b8862c2785b4046a04cc766267ae92545b7d9d9ad4e00e2b5280f0868dd1e1581e24ed4f26798e1c00000000000000000000000000000000000000000000000000000000000000000000000000000000000000f39fd6e51aad88f6f4ce6ab8827279cfffb9226600000000000000000000000000000000000000000000000000000000000000c00000000000000000000000000000000000000000000000000000000000000001800dedafa975b61c1665d1ddf9cdcd20334db816dca2622db1672329a614b4db0000000000000000000000000000000000000000000000000000000000000001000000000000000000000000000000000000000000000000000000000000028000000000000000000000000000000000000000000000000000000000000000010000000000000000000000000000000000000000000000000000000065bc77610000000000000000000000000000000000000000000000000000000000000005000000000000000000000000000000000000000000000000000000000000008000000000000000000000000000000000000000000000000000000000000001200000000000000000000000000000000000000000000000000000000000000020000000000000000000000000000000000000000000000000000000000000004000000000000000000000000000000000000000000000000000000000000000a0000000000000000000000000000000000000000000000000000000000000003b626166797265696263796c6c6d6f346e787971696a776b36376f6477626c333632766b6d706d636571327a707a7678683568657474356e36746f690000000000000000000000000000000000000000000000000000000000000000000000003b6261667972656962626a6a36726c7077753733667a6a6661356b7164367837666a376d6f6f6b736a73617564636b6a356b676432757a6264376c7900000000000000000000000000000000000000000000000000000000000000000000000041698473e68fd7452cb7ae09cb4b02f5707263854f6440efa1d97ed31d397ccc3c7be058525499d7f2b4ef7ff1bb52257c68ff367cc0a103d7d1eabe1e769e09491c00000000000000000000000000000000000000000000000000000000000000",
        "nonce": "0x5",
        "accessList": []
      },
      "additionalContracts": [],
      "isFixedGasLimit": false
    }
  ],
  "receipts": [
    {
      "transactionHash": "0x8c0e41e49c87d010c3569128059544fea9ac1c11c8768a291f583b8ad8dd70e5",
      "transactionIndex": "0x0",
      "blockHash": "0xade35e20a1cf17849d48bb07ec741ffd38f1ec54203fd002da98ec8ffc00c1fa",
      "blockNumber": "0x6",
      "from": "0xf39Fd6e51aad88F6F4ce6aB8827279cffFb92266",
      "to": "0x9fE46736679d2D9a65F0992F2272dE9f3c7fa6e0",
      "cumulativeGasUsed": "0x8e89",
      "gasUsed": "0x8e89",
      "contractAddress": null,
      "logs": [
        {
          "address": "0x9fE46736679d2D9a65F0992F2272dE9f3c7fa6e0",
          "topics": [
            "0xbbd76ddf496bdc451129f83bf75dc2941b7ff0102da7d5f03f07a3a2f741fc70",
            "0x000000000000000000000000f39fd6e51aad88f6f4ce6ab8827279cfffb92266"
          ],
          "data": "0x",
          "blockHash": "0xade35e20a1cf17849d48bb07ec741ffd38f1ec54203fd002da98ec8ffc00c1fa",
          "blockNumber": "0x6",
          "transactionHash": "0x8c0e41e49c87d010c3569128059544fea9ac1c11c8768a291f583b8ad8dd70e5",
          "transactionIndex": "0x0",
          "logIndex": "0x0",
          "transactionLogIndex": "0x0",
          "removed": false
        },
        {
          "address": "0x9fE46736679d2D9a65F0992F2272dE9f3c7fa6e0",
          "topics": [
            "0xbbd76ddf496bdc451129f83bf75dc2941b7ff0102da7d5f03f07a3a2f741fc70",
            "0x000000000000000000000000f39fd6e51aad88f6f4ce6ab8827279cfffb92266"
          ],
          "data": "0x",
          "blockHash": "0xade35e20a1cf17849d48bb07ec741ffd38f1ec54203fd002da98ec8ffc00c1fa",
          "blockNumber": "0x6",
          "transactionHash": "0x8c0e41e49c87d010c3569128059544fea9ac1c11c8768a291f583b8ad8dd70e5",
          "transactionIndex": "0x0",
          "logIndex": "0x1",
          "transactionLogIndex": "0x1",
          "removed": false
        }
      ],
      "status": "0x1",
      "logsBloom": "0x00000000000000000000000000000000000000000000000000000000000000000000000000000000000000000000000000000000000840200000000000000000000000000000000000000000000000000000000000000000000000000000000000000000000000000000000100000400000000000000000000000000000000000000000000000000000000000000000000000000000000000000000000000000000000000000000000000000000000000000000000000000000000000000000000000000000000200000000002000000000000002000000000000000000000000000000000000000000000000000000000000000000000400000000000000000",
      "type": "0x2",
      "effectiveGasPrice": "0xd22f35d5"
    }
  ],
  "libraries": [],
  "pending": [],
  "returns": {},
  "timestamp": 1706850528,
  "chain": 31337,
  "multi": false,
  "commit": "bd566c44"
}