{
  "transactions": [
    {
      "hash": "0xb957d3c5743b6889c0f4a308b1e56a8bc735a27ee942afc91b630dac3b85279f",
      "transactionType": "CALL",
      "contractName": null,
      "contractAddress": "0x9fE46736679d2D9a65F0992F2272dE9f3c7fa6e0",
      "function": "post((address,(uint256,uint256,uint8,bytes),uint16,bytes32,uint16,bytes))",
      "arguments": [
        "(0x6CA6d1e2D5347Bfab1d91e883F1915560e09129D, (1, 1706765865, 3, 0x0000000000000000000000000000000000000000000000000000000000000020000000000000000000000000000000000000000000000000000000000000004000000000000000000000000000000000000000000000000000000000000001400000000000000000000000000000000000000000000000000000000000000001000000000000000000000000000000000000000000000000000000000000004000000000000000000000000000000000000000000000000000000000000000a000000000000000000000000000000000000000000000000000000000000000200000000000000000000000000000000000000000000000000000000000000042697066733a2f2f62616679626569637a73736364736273376666717a3535617371646633736d76366b6c637733676f66737a76776c796172636934376267663335340000000000000000000000000000000000000000000000000000000000000000000000000000000000000000000000000000000000000000000000000001000000000000000000000000000000000000000000000000000000000000004000000000000000000000000000000000000000000000000000000000000000e00000000000000000000000000000000000000000000000000000000000000040000000000000000000000000000000000000000000000000000000000000008000000000000000000000000000000000000000000000000000000000000000010000000000000000000000000000000000000000000000000000000000000001000000000000000000000000000000000000000000000000000000000000000200000000000000000000000000000000000000000000000000000000000000020000000000000000000000000000000000000000000000000000000000000003), 1, 0xb8ed4d911f5de49399c536d2cc7b76d60ff046c927c3515378622dca0fbaab58, 1, 0xccd39914137ec519ddc32c05b6f56e5c74a85c575312d3a4fcc0af9a70150fad3df369b7db01fe8f949a51573a4fa630ddb513ba853e1687a47e6730bbf573cb1b)"
      ],
      "transaction": {
        "type": "0x02",
        "from": "0xf39fd6e51aad88f6f4ce6ab8827279cfffb92266",
        "to": "0x9fe46736679d2d9a65f0992f2272de9f3c7fa6e0",
        "gas": "0xa0e6",
        "value": "0x0",
        "data": "0x3e26eb8300000000000000000000000000000000000000000000000000000000000000200000000000000000000000006ca6d1e2d5347bfab1d91e883f1915560e09129d00000000000000000000000000000000000000000000000000000000000000c00000000000000000000000000000000000000000000000000000000000000001b8ed4d911f5de49399c536d2cc7b76d60ff046c927c3515378622dca0fbaab580000000000000000000000000000000000000000000000000000000000000001000000000000000000000000000000000000000000000000000000000000040000000000000000000000000000000000000000000000000000000000000000010000000000000000000000000000000000000000000000000000000065bb2e290000000000000000000000000000000000000000000000000000000000000003000000000000000000000000000000000000000000000000000000000000008000000000000000000000000000000000000000000000000000000000000002a00000000000000000000000000000000000000000000000000000000000000020000000000000000000000000000000000000000000000000000000000000004000000000000000000000000000000000000000000000000000000000000001400000000000000000000000000000000000000000000000000000000000000001000000000000000000000000000000000000000000000000000000000000004000000000000000000000000000000000000000000000000000000000000000a000000000000000000000000000000000000000000000000000000000000000200000000000000000000000000000000000000000000000000000000000000042697066733a2f2f62616679626569637a73736364736273376666717a3535617371646633736d76366b6c637733676f66737a76776c796172636934376267663335340000000000000000000000000000000000000000000000000000000000000000000000000000000000000000000000000000000000000000000000000001000000000000000000000000000000000000000000000000000000000000004000000000000000000000000000000000000000000000000000000000000000e000000000000000000000000000000000000000000000000000000000000000400000000000000000000000000000000000000000000000000000000000000080000000000000000000000000000000000000000000000000000000000000000100000000000000000000000000000000000000000000000000000000000000010000000000000000000000000000000000000000000000000000000000000002000000000000000000000000000000000000000000000000000000000000000200000000000000000000000000000000000000000000000000000000000000030000000000000000000000000000000000000000000000000000000000000041ccd39914137ec519ddc32c05b6f56e5c74a85c575312d3a4fcc0af9a70150fad3df369b7db01fe8f949a51573a4fa630ddb513ba853e1687a47e6730bbf573cb1b00000000000000000000000000000000000000000000000000000000000000",
        "nonce": "0x5",
        "accessList": []
      },
      "additionalContracts": [],
      "isFixedGasLimit": false
    }
  ],
  "receipts": [
    {
      "transactionHash": "0xb957d3c5743b6889c0f4a308b1e56a8bc735a27ee942afc91b630dac3b85279f",
      "transactionIndex": "0x0",
      "blockHash": "0x71824fefd6623ba1da75443f2286087bdaf20aa7d9be3633ab7463b943dbe7fe",
      "blockNumber": "0x6",
      "from": "0xf39Fd6e51aad88F6F4ce6aB8827279cffFb92266",
      "to": "0x9fE46736679d2D9a65F0992F2272dE9f3c7fa6e0",
      "cumulativeGasUsed": "0x747e",
      "gasUsed": "0x747e",
      "contractAddress": null,
      "logs": [
        {
          "address": "0x9fE46736679d2D9a65F0992F2272dE9f3c7fa6e0",
          "topics": [
            "0xbbd76ddf496bdc451129f83bf75dc2941b7ff0102da7d5f03f07a3a2f741fc70",
            "0x000000000000000000000000f39fd6e51aad88f6f4ce6ab8827279cfffb92266"
          ],
          "data": "0x",
          "blockHash": "0x71824fefd6623ba1da75443f2286087bdaf20aa7d9be3633ab7463b943dbe7fe",
          "blockNumber": "0x6",
          "transactionHash": "0xb957d3c5743b6889c0f4a308b1e56a8bc735a27ee942afc91b630dac3b85279f",
          "transactionIndex": "0x0",
          "logIndex": "0x0",
          "transactionLogIndex": "0x0",
          "removed": false
        }
      ],
      "status": "0x1",
      "logsBloom": "0x00000000000000000000000000000000000000000000000000000000000000000000000000000000000000000000000000000000000840200000000000000000000000000000000000000000000000000000000000000000000000000000000000000000000000000000000100000400000000000000000000000000000000000000000000000000000000000000000000000000000000000000000000000000000000000000000000000000000000000000000000000000000000000000000000000000000000200000000002000000000000002000000000000000000000000000000000000000000000000000000000000000000000400000000000000000",
      "type": "0x2",
      "effectiveGasPrice": "0xd225900c"
    }
  ],
  "libraries": [],
  "pending": [],
  "returns": {},
  "timestamp": 1706766109,
  "chain": 31337,
  "multi": false,
  "commit": "1c3f72bc"
}