{
  "transactions": [
    {
      "hash": "0x47f84610eaa0743b6066d17efa4a93689ec61bbb1b375f2e27e3b44db427e06a",
      "transactionType": "CALL",
      "contractName": null,
      "contractAddress": "0x9fE46736679d2D9a65F0992F2272dE9f3c7fa6e0",
      "function": "postBatch((address,(uint256,uint256,uint8,bytes),uint16,bytes32,uint16,bytes)[])",
      "arguments": [
        "[(0x6CA6d1e2D5347Bfab1d91e883F1915560e09129D, (1, 1706762950, 1, 0x00000000000000000000000000000000000000000000000000000000000000200000000000000000000000000000000000000000000000000000000000000040000000000000000000000000000000000000000000000000000000000000010000000000000000000000000000000000000000000000000000000000000000010000000000000000000000000000000000000000000000000000000000000040000000000000000000000000000000000000000000000000000000000000006000000000000000000000000000000000000000000000000000000000000000200000000000000000000000000000000000000000000000000000000000000011697066733a2f2f636f6e74656e74734f66000000000000000000000000000000000000000000000000000000000000000000000000000000000000000000000100000000000000000000000000000000000000000000000000000000000000400000000000000000000000000000000000000000000000000000000000000060000000000000000000000000000000000000000000000000000000000000002000000000000000000000000000000000000000000000000000000000000000010000000000000000000000000000000000000000000000000000000000000001), 1, 0x2efc52ffed25a95cadb07805d4cb0c9bcef94da5517f797835714d153148359c, 1, 0x08c7aa5a045689b57f98e090c02983c9fa08b1fa1bc6a7d957c6baf329a4accc2494c901f771f78b92009c3e404752b9b67934fb60715a95bd71694f52cf14131b), (0x6CA6d1e2D5347Bfab1d91e883F1915560e09129D, (1, 1706762950, 5, 0x0000000000000000000000000000000000000000000000000000000000000020000000000000000000000000000000000000000000000000000000000000004000000000000000000000000000000000000000000000000000000000000000800000000000000000000000000000000000000000000000000000000000000016697066733a2f2f6974656d506c616365686f6c646572000000000000000000000000000000000000000000000000000000000000000000000000000000000019697066733a2f2f6368616e6e656c506c616365686f6c64657200000000000000), 1, 0x7e01d92776c4fc5864cf3d60c1b01fd4f0051964c538481b5e49673bd51a1872, 1, 0xae4306ca80087cc1d3298992e368a78270ec0aa7bdc0a021750a806d5dd04acc4715d63c9dd37d7e4725b6522a2bc13dbfd8879bcfad62326c8935da6c0939401b)]"
      ],
      "transaction": {
        "type": "0x02",
        "from": "0xf39fd6e51aad88f6f4ce6ab8827279cfffb92266",
        "to": "0x9fe46736679d2d9a65f0992f2272de9f3c7fa6e0",
        "gas": "0xbe3f",
        "value": "0x0",
        "data": "0xcaa550b400000000000000000000000000000000000000000000000000000000000000200000000000000000000000000000000000000000000000000000000000000002000000000000000000000000000000000000000000000000000000000000004000000000000000000000000000000000000000000000000000000000000004000000000000000000000000006ca6d1e2d5347bfab1d91e883f1915560e09129d00000000000000000000000000000000000000000000000000000000000000c000000000000000000000000000000000000000000000000000000000000000012efc52ffed25a95cadb07805d4cb0c9bcef94da5517f797835714d153148359c0000000000000000000000000000000000000000000000000000000000000001000000000000000000000000000000000000000000000000000000000000034000000000000000000000000000000000000000000000000000000000000000010000000000000000000000000000000000000000000000000000000065bb22c60000000000000000000000000000000000000000000000000000000000000001000000000000000000000000000000000000000000000000000000000000008000000000000000000000000000000000000000000000000000000000000001e000000000000000000000000000000000000000000000000000000000000000200000000000000000000000000000000000000000000000000000000000000040000000000000000000000000000000000000000000000000000000000000010000000000000000000000000000000000000000000000000000000000000000010000000000000000000000000000000000000000000000000000000000000040000000000000000000000000000000000000000000000000000000000000006000000000000000000000000000000000000000000000000000000000000000200000000000000000000000000000000000000000000000000000000000000011697066733a2f2f636f6e74656e74734f66000000000000000000000000000000000000000000000000000000000000000000000000000000000000000000000100000000000000000000000000000000000000000000000000000000000000400000000000000000000000000000000000000000000000000000000000000060000000000000000000000000000000000000000000000000000000000000002000000000000000000000000000000000000000000000000000000000000000010000000000000000000000000000000000000000000000000000000000000001000000000000000000000000000000000000000000000000000000000000004108c7aa5a045689b57f98e090c02983c9fa08b1fa1bc6a7d957c6baf329a4accc2494c901f771f78b92009c3e404752b9b67934fb60715a95bd71694f52cf14131b000000000000000000000000000000000000000000000000000000000000000000000000000000000000006ca6d1e2d5347bfab1d91e883f1915560e09129d00000000000000000000000000000000000000000000000000000000000000c000000000000000000000000000000000000000000000000000000000000000017e01d92776c4fc5864cf3d60c1b01fd4f0051964c538481b5e49673bd51a18720000000000000000000000000000000000000000000000000000000000000001000000000000000000000000000000000000000000000000000000000000024000000000000000000000000000000000000000000000000000000000000000010000000000000000000000000000000000000000000000000000000065bb22c60000000000000000000000000000000000000000000000000000000000000005000000000000000000000000000000000000000000000000000000000000008000000000000000000000000000000000000000000000000000000000000000e00000000000000000000000000000000000000000000000000000000000000020000000000000000000000000000000000000000000000000000000000000004000000000000000000000000000000000000000000000000000000000000000800000000000000000000000000000000000000000000000000000000000000016697066733a2f2f6974656d506c616365686f6c646572000000000000000000000000000000000000000000000000000000000000000000000000000000000019697066733a2f2f6368616e6e656c506c616365686f6c646572000000000000000000000000000000000000000000000000000000000000000000000000000041ae4306ca80087cc1d3298992e368a78270ec0aa7bdc0a021750a806d5dd04acc4715d63c9dd37d7e4725b6522a2bc13dbfd8879bcfad62326c8935da6c0939401b00000000000000000000000000000000000000000000000000000000000000",
        "nonce": "0x5",
        "accessList": []
      },
      "additionalContracts": [],
      "isFixedGasLimit": false
    }
  ],
  "receipts": [
    {
      "transactionHash": "0x47f84610eaa0743b6066d17efa4a93689ec61bbb1b375f2e27e3b44db427e06a",
      "transactionIndex": "0x0",
      "blockHash": "0xb791538eb34b4022b1a4972b4a8d3f5113b5b953b29ea90349b94c9cc448ca0c",
      "blockNumber": "0x6",
      "from": "0xf39Fd6e51aad88F6F4ce6aB8827279cffFb92266",
      "to": "0x9fE46736679d2D9a65F0992F2272dE9f3c7fa6e0",
      "cumulativeGasUsed": "0x89bd",
      "gasUsed": "0x89bd",
      "contractAddress": null,
      "logs": [
        {
          "address": "0x9fE46736679d2D9a65F0992F2272dE9f3c7fa6e0",
          "topics": [
            "0xbbd76ddf496bdc451129f83bf75dc2941b7ff0102da7d5f03f07a3a2f741fc70",
            "0x000000000000000000000000f39fd6e51aad88f6f4ce6ab8827279cfffb92266"
          ],
          "data": "0x",
          "blockHash": "0xb791538eb34b4022b1a4972b4a8d3f5113b5b953b29ea90349b94c9cc448ca0c",
          "blockNumber": "0x6",
          "transactionHash": "0x47f84610eaa0743b6066d17efa4a93689ec61bbb1b375f2e27e3b44db427e06a",
          "transactionIndex": "0x0",
          "logIndex": "0x0",
          "transactionLogIndex": "0x0",
          "removed": false
        },
        {
          "address": "0x9fE46736679d2D9a65F0992F2272dE9f3c7fa6e0",
          "topics": [
            "0xbbd76ddf496bdc451129f83bf75dc2941b7ff0102da7d5f03f07a3a2f741fc70",
            "0x000000000000000000000000f39fd6e51aad88f6f4ce6ab8827279cfffb92266"
          ],
          "data": "0x",
          "blockHash": "0xb791538eb34b4022b1a4972b4a8d3f5113b5b953b29ea90349b94c9cc448ca0c",
          "blockNumber": "0x6",
          "transactionHash": "0x47f84610eaa0743b6066d17efa4a93689ec61bbb1b375f2e27e3b44db427e06a",
          "transactionIndex": "0x0",
          "logIndex": "0x1",
          "transactionLogIndex": "0x1",
          "removed": false
        }
      ],
      "status": "0x1",
      "logsBloom": "0x00000000000000000000000000000000000000000000000000000000000000000000000000000000000000000000000000000000000840200000000000000000000000000000000000000000000000000000000000000000000000000000000000000000000000000000000100000400000000000000000000000000000000000000000000000000000000000000000000000000000000000000000000000000000000000000000000000000000000000000000000000000000000000000000000000000000000200000000002000000000000002000000000000000000000000000000000000000000000000000000000000000000000400000000000000000",
      "type": "0x2",
      "effectiveGasPrice": "0xd225900c"
    }
  ],
  "libraries": [],
  "pending": [],
  "returns": {},
  "timestamp": 1706763566,
  "chain": 31337,
  "multi": false,
  "commit": "1c3f72bc"
}