{
  "transactions": [
    {
      "hash": "0x38bb52d7495cf733415ad3375b1914efd7d5d6dcaa70eefa33f2c28cc23842e4",
      "transactionType": "CALL",
      "contractName": null,
      "contractAddress": "0x9fE46736679d2D9a65F0992F2272dE9f3c7fa6e0",
      "function": "post((address,(uint256,uint256,uint8,bytes),uint16,bytes32,uint16,bytes))",
      "arguments": [
        "(0x6CA6d1e2D5347Bfab1d91e883F1915560e09129D, (1, 1706766110, 3, 0x0000000000000000000000000000000000000000000000000000000000000020000000000000000000000000000000000000000000000000000000000000004000000000000000000000000000000000000000000000000000000000000001400000000000000000000000000000000000000000000000000000000000000001000000000000000000000000000000000000000000000000000000000000004000000000000000000000000000000000000000000000000000000000000000a000000000000000000000000000000000000000000000000000000000000000200000000000000000000000000000000000000000000000000000000000000042697066733a2f2f62616679626569637a73736364736273376666717a3535617371646633736d76366b6c637733676f66737a76776c796172636934376267663335340000000000000000000000000000000000000000000000000000000000000000000000000000000000000000000000000000000000000000000000000001000000000000000000000000000000000000000000000000000000000000004000000000000000000000000000000000000000000000000000000000000000e00000000000000000000000000000000000000000000000000000000000000040000000000000000000000000000000000000000000000000000000000000008000000000000000000000000000000000000000000000000000000000000000010000000000000000000000000000000000000000000000000000000000000001000000000000000000000000000000000000000000000000000000000000000200000000000000000000000000000000000000000000000000000000000000020000000000000000000000000000000000000000000000000000000000000003), 1, 0xe689da5e1f0eaaab16c8bca331f2336601773e9ce6fe7455d82945b907586d0c, 1, 0x14ad4b59b3f3d4c2a2b8b3e20db82e2c5734aeca9a21cce425a713dd4c198aca4d4d7cf352ef401bc07a0cc68c221485755999276002f3b073ef3f0fd9a40ffd1c)"
      ],
      "transaction": {
        "type": "0x02",
        "from": "0xf39fd6e51aad88f6f4ce6ab8827279cfffb92266",
        "to": "0x9fe46736679d2d9a65f0992f2272de9f3c7fa6e0",
        "gas": "0xa0e6",
        "value": "0x0",
        "data": "0x3e26eb8300000000000000000000000000000000000000000000000000000000000000200000000000000000000000006ca6d1e2d5347bfab1d91e883f1915560e09129d00000000000000000000000000000000000000000000000000000000000000c00000000000000000000000000000000000000000000000000000000000000001e689da5e1f0eaaab16c8bca331f2336601773e9ce6fe7455d82945b907586d0c0000000000000000000000000000000000000000000000000000000000000001000000000000000000000000000000000000000000000000000000000000040000000000000000000000000000000000000000000000000000000000000000010000000000000000000000000000000000000000000000000000000065bb2f1e0000000000000000000000000000000000000000000000000000000000000003000000000000000000000000000000000000000000000000000000000000008000000000000000000000000000000000000000000000000000000000000002a00000000000000000000000000000000000000000000000000000000000000020000000000000000000000000000000000000000000000000000000000000004000000000000000000000000000000000000000000000000000000000000001400000000000000000000000000000000000000000000000000000000000000001000000000000000000000000000000000000000000000000000000000000004000000000000000000000000000000000000000000000000000000000000000a000000000000000000000000000000000000000000000000000000000000000200000000000000000000000000000000000000000000000000000000000000042697066733a2f2f62616679626569637a73736364736273376666717a3535617371646633736d76366b6c637733676f66737a76776c796172636934376267663335340000000000000000000000000000000000000000000000000000000000000000000000000000000000000000000000000000000000000000000000000001000000000000000000000000000000000000000000000000000000000000004000000000000000000000000000000000000000000000000000000000000000e00000000000000000000000000000000000000000000000000000000000000040000000000000000000000000000000000000000000000000000000000000008000000000000000000000000000000000000000000000000000000000000000010000000000000000000000000000000000000000000000000000000000000001000000000000000000000000000000000000000000000000000000000000000200000000000000000000000000000000000000000000000000000000000000020000000000000000000000000000000000000000000000000000000000000003000000000000000000000000000000000000000000000000000000000000004114ad4b59b3f3d4c2a2b8b3e20db82e2c5734aeca9a21cce425a713dd4c198aca4d4d7cf352ef401bc07a0cc68c221485755999276002f3b073ef3f0fd9a40ffd1c00000000000000000000000000000000000000000000000000000000000000",
        "nonce": "0x6",
        "accessList": []
      },
      "additionalContracts": [],
      "isFixedGasLimit": false
    }
  ],
  "receipts": [
    {
      "transactionHash": "0x38bb52d7495cf733415ad3375b1914efd7d5d6dcaa70eefa33f2c28cc23842e4",
      "transactionIndex": "0x0",
      "blockHash": "0x0683fbbe9ed2ca225da92af6be960cbcf5a4d944bd2d028e860088f978de7a08",
      "blockNumber": "0x7",
      "from": "0xf39Fd6e51aad88F6F4ce6aB8827279cffFb92266",
      "to": "0x9fE46736679d2D9a65F0992F2272dE9f3c7fa6e0",
      "cumulativeGasUsed": "0x747e",
      "gasUsed": "0x747e",
      "contractAddress": null,
      "logs": [
        {
          "address": "0x9fE46736679d2D9a65F0992F2272dE9f3c7fa6e0",
          "topics": [
            "0xbbd76ddf496bdc451129f83bf75dc2941b7ff0102da7d5f03f07a3a2f741fc70",
            "0x000000000000000000000000f39fd6e51aad88f6f4ce6ab8827279cfffb92266"
          ],
          "data": "0x",
          "blockHash": "0x0683fbbe9ed2ca225da92af6be960cbcf5a4d944bd2d028e860088f978de7a08",
          "blockNumber": "0x7",
          "transactionHash": "0x38bb52d7495cf733415ad3375b1914efd7d5d6dcaa70eefa33f2c28cc23842e4",
          "transactionIndex": "0x0",
          "logIndex": "0x0",
          "transactionLogIndex": "0x0",
          "removed": false
        }
      ],
      "status": "0x1",
      "logsBloom": "0x00000000000000000000000000000000000000000000000000000000000000000000000000000000000000000000000000000000000840200000000000000000000000000000000000000000000000000000000000000000000000000000000000000000000000000000000100000400000000000000000000000000000000000000000000000000000000000000000000000000000000000000000000000000000000000000000000000000000000000000000000000000000000000000000000000000000000200000000002000000000000002000000000000000000000000000000000000000000000000000000000000000000000400000000000000000",
      "type": "0x2",
      "effectiveGasPrice": "0xce3ce81b"
    }
  ],
  "libraries": [],
  "pending": [],
  "returns": {},
  "timestamp": 1706766145,
  "chain": 31337,
  "multi": false,
  "commit": "1c3f72bc"
}