{
  "transactions": [
    {
      "hash": "0xfa9fb12c817cb5d5286b72571072df00b5069db80680aa4680b8cf4304cb0212",
      "transactionType": "CALL",
      "contractName": null,
      "contractAddress": "0x9fE46736679d2D9a65F0992F2272dE9f3c7fa6e0",
      "function": "postBatch((address,(uint256,uint256,uint8,bytes),uint16,bytes32,uint16,bytes)[])",
      "arguments": [
        "[(0xf39Fd6e51aad88F6F4ce6aB8827279cffFb92266, (1, 1706846823, 1, 0x00000000000000000000000000000000000000000000000000000000000000200000000000000000000000000000000000000000000000000000000000000040000000000000000000000000000000000000000000000000000000000000010000000000000000000000000000000000000000000000000000000000000000010000000000000000000000000000000000000000000000000000000000000040000000000000000000000000000000000000000000000000000000000000006000000000000000000000000000000000000000000000000000000000000000200000000000000000000000000000000000000000000000000000000000000019697066733a2f2f706c616365686f6c6465724974656d55726900000000000000000000000000000000000000000000000000000000000000000000000000000100000000000000000000000000000000000000000000000000000000000000400000000000000000000000000000000000000000000000000000000000000060000000000000000000000000000000000000000000000000000000000000002000000000000000000000000000000000000000000000000000000000000000010000000000000000000000000000000000000000000000000000000000000001), 1, 0x616995f660a252da4905e294f9c7ab820635cb50fefa6fc643e6a1722d362bbf, 1, 0x317ea3b3e52caa58d2a9971c1c17911b02b28e901582ea7d47999f2101161f613887146eafc2dd1b0105344529ece779a486db5cdc800a8b5273a7a0997eaf821c), (0xf39Fd6e51aad88F6F4ce6aB8827279cffFb92266, (1, 1706846823, 5, 0x0000000000000000000000000000000000000000000000000000000000000020000000000000000000000000000000000000000000000000000000000000004000000000000000000000000000000000000000000000000000000000000000800000000000000000000000000000000000000000000000000000000000000016697066733a2f2f6974656d506c616365686f6c646572000000000000000000000000000000000000000000000000000000000000000000000000000000000019697066733a2f2f6368616e6e656c506c616365686f6c64657200000000000000), 1, 0xdddc376b0da78638f6238c8401c09dc6c6d1f74faa4b842ac57eaee54c1d9ac5, 1, 0x7c934ec715322f5eceb2455270a734dfe30fad8f92807e6efd6727d17a18b72c6966c5f223a97f49117514aa01942009300f8a563f793691efbf0d35c1b6ea071c)]"
      ],
      "transaction": {
        "type": "0x02",
        "from": "0xf39fd6e51aad88f6f4ce6ab8827279cfffb92266",
        "to": "0x9fe46736679d2d9a65f0992f2272de9f3c7fa6e0",
        "gas": "0xca0f",
        "value": "0x0",
        "data": "0xcaa550b40000000000000000000000000000000000000000000000000000000000000020000000000000000000000000000000000000000000000000000000000000000200000000000000000000000000000000000000000000000000000000000000400000000000000000000000000000000000000000000000000000000000000400000000000000000000000000f39fd6e51aad88f6f4ce6ab8827279cfffb9226600000000000000000000000000000000000000000000000000000000000000c00000000000000000000000000000000000000000000000000000000000000001616995f660a252da4905e294f9c7ab820635cb50fefa6fc643e6a1722d362bbf0000000000000000000000000000000000000000000000000000000000000001000000000000000000000000000000000000000000000000000000000000034000000000000000000000000000000000000000000000000000000000000000010000000000000000000000000000000000000000000000000000000065bc6a670000000000000000000000000000000000000000000000000000000000000001000000000000000000000000000000000000000000000000000000000000008000000000000000000000000000000000000000000000000000000000000001e000000000000000000000000000000000000000000000000000000000000000200000000000000000000000000000000000000000000000000000000000000040000000000000000000000000000000000000000000000000000000000000010000000000000000000000000000000000000000000000000000000000000000010000000000000000000000000000000000000000000000000000000000000040000000000000000000000000000000000000000000000000000000000000006000000000000000000000000000000000000000000000000000000000000000200000000000000000000000000000000000000000000000000000000000000019697066733a2f2f706c616365686f6c6465724974656d557269000000000000000000000000000000000000000000000000000000000000000000000000000001000000000000000000000000000000000000000000000000000000000000004000000000000000000000000000000000000000000000000000000000000000600000000000000000000000000000000000000000000000000000000000000020000000000000000000000000000000000000000000000000000000000000000100000000000000000000000000000000000000000000000000000000000000010000000000000000000000000000000000000000000000000000000000000041317ea3b3e52caa58d2a9971c1c17911b02b28e901582ea7d47999f2101161f613887146eafc2dd1b0105344529ece779a486db5cdc800a8b5273a7a0997eaf821c00000000000000000000000000000000000000000000000000000000000000000000000000000000000000f39fd6e51aad88f6f4ce6ab8827279cfffb9226600000000000000000000000000000000000000000000000000000000000000c00000000000000000000000000000000000000000000000000000000000000001dddc376b0da78638f6238c8401c09dc6c6d1f74faa4b842ac57eaee54c1d9ac50000000000000000000000000000000000000000000000000000000000000001000000000000000000000000000000000000000000000000000000000000024000000000000000000000000000000000000000000000000000000000000000010000000000000000000000000000000000000000000000000000000065bc6a670000000000000000000000000000000000000000000000000000000000000005000000000000000000000000000000000000000000000000000000000000008000000000000000000000000000000000000000000000000000000000000000e00000000000000000000000000000000000000000000000000000000000000020000000000000000000000000000000000000000000000000000000000000004000000000000000000000000000000000000000000000000000000000000000800000000000000000000000000000000000000000000000000000000000000016697066733a2f2f6974656d506c616365686f6c646572000000000000000000000000000000000000000000000000000000000000000000000000000000000019697066733a2f2f6368616e6e656c506c616365686f6c6465720000000000000000000000000000000000000000000000000000000000000000000000000000417c934ec715322f5eceb2455270a734dfe30fad8f92807e6efd6727d17a18b72c6966c5f223a97f49117514aa01942009300f8a563f793691efbf0d35c1b6ea071c00000000000000000000000000000000000000000000000000000000000000",
        "nonce": "0x5",
        "accessList": []
      },
      "additionalContracts": [],
      "isFixedGasLimit": false
    }
  ],
  "receipts": [
    {
      "transactionHash": "0xfa9fb12c817cb5d5286b72571072df00b5069db80680aa4680b8cf4304cb0212",
      "transactionIndex": "0x0",
      "blockHash": "0x83a06d15381a36fdf675be64c42649fc7d369479dea1feb4e1bff91e1213083e",
      "blockNumber": "0x5",
      "from": "0xf39Fd6e51aad88F6F4ce6aB8827279cffFb92266",
      "to": "0x9fE46736679d2D9a65F0992F2272dE9f3c7fa6e0",
      "cumulativeGasUsed": "0x8a29",
      "gasUsed": "0x8a29",
      "contractAddress": null,
      "logs": [
        {
          "address": "0x9fE46736679d2D9a65F0992F2272dE9f3c7fa6e0",
          "topics": [
            "0xbbd76ddf496bdc451129f83bf75dc2941b7ff0102da7d5f03f07a3a2f741fc70",
            "0x000000000000000000000000f39fd6e51aad88f6f4ce6ab8827279cfffb92266"
          ],
          "data": "0x",
          "blockHash": "0x83a06d15381a36fdf675be64c42649fc7d369479dea1feb4e1bff91e1213083e",
          "blockNumber": "0x5",
          "transactionHash": "0xfa9fb12c817cb5d5286b72571072df00b5069db80680aa4680b8cf4304cb0212",
          "transactionIndex": "0x0",
          "logIndex": "0x0",
          "transactionLogIndex": "0x0",
          "removed": false
        },
        {
          "address": "0x9fE46736679d2D9a65F0992F2272dE9f3c7fa6e0",
          "topics": [
            "0xbbd76ddf496bdc451129f83bf75dc2941b7ff0102da7d5f03f07a3a2f741fc70",
            "0x000000000000000000000000f39fd6e51aad88f6f4ce6ab8827279cfffb92266"
          ],
          "data": "0x",
          "blockHash": "0x83a06d15381a36fdf675be64c42649fc7d369479dea1feb4e1bff91e1213083e",
          "blockNumber": "0x5",
          "transactionHash": "0xfa9fb12c817cb5d5286b72571072df00b5069db80680aa4680b8cf4304cb0212",
          "transactionIndex": "0x0",
          "logIndex": "0x1",
          "transactionLogIndex": "0x1",
          "removed": false
        }
      ],
      "status": "0x1",
      "logsBloom": "0x00000000000000000000000000000000000000000000000000000000000000000000000000000000000000000000000000000000000840200000000000000000000000000000000000000000000000000000000000000000000000000000000000000000000000000000000100000400000000000000000000000000000000000000000000000000000000000000000000000000000000000000000000000000000000000000000000000000000000000000000000000000000000000000000000000000000000200000000002000000000000002000000000000000000000000000000000000000000000000000000000000000000000400000000000000000",
      "type": "0x2",
      "effectiveGasPrice": "0xd6aa765b"
    }
  ],
  "libraries": [],
  "pending": [],
  "returns": {},
  "timestamp": 1706846998,
  "chain": 31337,
  "multi": false,
  "commit": "bd566c44"
}