{
  "transactions": [
    {
      "hash": "0x588ac8de3ac52088e326607bdf2b773a267f53cc6f3f5260c423207110c7eacf",
      "transactionType": "CALL",
      "contractName": null,
      "contractAddress": "0x9fE46736679d2D9a65F0992F2272dE9f3c7fa6e0",
      "function": "post((address,(uint256,uint256,uint32,bytes),uint16,bytes32,uint16,bytes))",
      "arguments": [
        "(0x6CA6d1e2D5347Bfab1d91e883F1915560e09129D, (1, 1706732325, 100, 0x00000000000000000000000000000000000000000000000000000000000000200000000000000000000000000000000000000000000000000000000000000002000000000000000000000000000000000000000000000000000000000000006000000000000000000000000000000000000000000000000000000000000001600000000000000000000000000000000000000000000000000000000000000001000000000000000000000000000000000000000000000000000000000000004000000000000000000000000000000000000000000000000000000000000000a000000000000000000000000000000000000000000000000000000000000000200000000000000000000000000000000000000000000000000000000000000042697066733a2f2f62616679626569637a73736364736273376666717a3535617371646633736d76366b6c637733676f66737a76776c796172636934376267663335340000000000000000000000000000000000000000000000000000000000000000000000000000000000000000000000000000000000000000000000000001000000000000000000000000000000000000000000000000000000000000004000000000000000000000000000000000000000000000000000000000000000e00000000000000000000000000000000000000000000000000000000000000040000000000000000000000000000000000000000000000000000000000000008000000000000000000000000000000000000000000000000000000000000000010000000000000000000000000000000000000000000000000000000000000001000000000000000000000000000000000000000000000000000000000000000200000000000000000000000000000000000000000000000000000000000000020000000000000000000000000000000000000000000000000000000000000003), 1, 0x7490157b4164724fef3408e6b06f1ae69d395a7079fb5dfb44c5ba441c549150, 1, 0x6a4bc64125a026ad5f039f88ac55616517ac5eba3b4ba3a9a10796076620657d602116c2e3ba7ea052bf081eb714456a90ebb40b3eb6131bcf98b02474a0abed1c)"
      ],
      "transaction": {
        "type": "0x02",
        "from": "0xf39fd6e51aad88f6f4ce6ab8827279cfffb92266",
        "to": "0x9fe46736679d2d9a65f0992f2272de9f3c7fa6e0",
        "gas": "0xa1b9",
        "value": "0x0",
        "data": "0x8a65376400000000000000000000000000000000000000000000000000000000000000200000000000000000000000006ca6d1e2d5347bfab1d91e883f1915560e09129d00000000000000000000000000000000000000000000000000000000000000c000000000000000000000000000000000000000000000000000000000000000017490157b4164724fef3408e6b06f1ae69d395a7079fb5dfb44c5ba441c5491500000000000000000000000000000000000000000000000000000000000000001000000000000000000000000000000000000000000000000000000000000042000000000000000000000000000000000000000000000000000000000000000010000000000000000000000000000000000000000000000000000000065baab250000000000000000000000000000000000000000000000000000000000000064000000000000000000000000000000000000000000000000000000000000008000000000000000000000000000000000000000000000000000000000000002c000000000000000000000000000000000000000000000000000000000000000200000000000000000000000000000000000000000000000000000000000000002000000000000000000000000000000000000000000000000000000000000006000000000000000000000000000000000000000000000000000000000000001600000000000000000000000000000000000000000000000000000000000000001000000000000000000000000000000000000000000000000000000000000004000000000000000000000000000000000000000000000000000000000000000a000000000000000000000000000000000000000000000000000000000000000200000000000000000000000000000000000000000000000000000000000000042697066733a2f2f62616679626569637a73736364736273376666717a3535617371646633736d76366b6c637733676f66737a76776c796172636934376267663335340000000000000000000000000000000000000000000000000000000000000000000000000000000000000000000000000000000000000000000000000001000000000000000000000000000000000000000000000000000000000000004000000000000000000000000000000000000000000000000000000000000000e0000000000000000000000000000000000000000000000000000000000000004000000000000000000000000000000000000000000000000000000000000000800000000000000000000000000000000000000000000000000000000000000001000000000000000000000000000000000000000000000000000000000000000100000000000000000000000000000000000000000000000000000000000000020000000000000000000000000000000000000000000000000000000000000002000000000000000000000000000000000000000000000000000000000000000300000000000000000000000000000000000000000000000000000000000000416a4bc64125a026ad5f039f88ac55616517ac5eba3b4ba3a9a10796076620657d602116c2e3ba7ea052bf081eb714456a90ebb40b3eb6131bcf98b02474a0abed1c00000000000000000000000000000000000000000000000000000000000000",
        "nonce": "0x4",
        "accessList": []
      },
      "additionalContracts": [],
      "isFixedGasLimit": false
    }
  ],
  "receipts": [
    {
      "transactionHash": "0x588ac8de3ac52088e326607bdf2b773a267f53cc6f3f5260c423207110c7eacf",
      "transactionIndex": "0x0",
      "blockHash": "0x611d171d674000d334616d505c1f68b5512f4c4642c27a5a124a820231959a0e",
      "blockNumber": "0x5",
      "from": "0xf39Fd6e51aad88F6F4ce6aB8827279cffFb92266",
      "to": "0x9fE46736679d2D9a65F0992F2272dE9f3c7fa6e0",
      "cumulativeGasUsed": "0x7516",
      "gasUsed": "0x7516",
      "contractAddress": null,
      "logs": [
        {
          "address": "0x9fE46736679d2D9a65F0992F2272dE9f3c7fa6e0",
          "topics": [
            "0xbbd76ddf496bdc451129f83bf75dc2941b7ff0102da7d5f03f07a3a2f741fc70",
            "0x000000000000000000000000f39fd6e51aad88f6f4ce6ab8827279cfffb92266"
          ],
          "data": "0x",
          "blockHash": "0x611d171d674000d334616d505c1f68b5512f4c4642c27a5a124a820231959a0e",
          "blockNumber": "0x5",
          "transactionHash": "0x588ac8de3ac52088e326607bdf2b773a267f53cc6f3f5260c423207110c7eacf",
          "transactionIndex": "0x0",
          "logIndex": "0x0",
          "transactionLogIndex": "0x0",
          "removed": false
        }
      ],
      "status": "0x1",
      "logsBloom": "0x00000000000000000000000000000000000000000000000000000000000000000000000000000000000000000000000000000000000840200000000000000000000000000000000000000000000000000000000000000000000000000000000000000000000000000000000100000400000000000000000000000000000000000000000000000000000000000000000000000000000000000000000000000000000000000000000000000000000000000000000000000000000000000000000000000000000000200000000002000000000000002000000000000000000000000000000000000000000000000000000000000000000000400000000000000000",
      "type": "0x2",
      "effectiveGasPrice": "0xd69cd849"
    }
  ],
  "libraries": [],
  "pending": [],
  "returns": {},
  "timestamp": 1706733023,
  "chain": 31337,
  "multi": false,
  "commit": "eb3b82ca"
}