{
  "transactions": [
    {
      "hash": "0x07e30f278299a9b1b4801c9876250406884a1a74e7892dabfa9275c1cc6979e7",
      "transactionType": "CALL",
      "contractName": null,
      "contractAddress": "0x9fE46736679d2D9a65F0992F2272dE9f3c7fa6e0",
      "function": "postBatch((address,(uint256,uint256,uint8,bytes),uint16,bytes32,uint16,bytes)[])",
      "arguments": [
        "[(0xf39Fd6e51aad88F6F4ce6aB8827279cffFb92266, (1, 1706849853, 1, 0x00000000000000000000000000000000000000000000000000000000000000200000000000000000000000000000000000000000000000000000000000000040000000000000000000000000000000000000000000000000000000000000010000000000000000000000000000000000000000000000000000000000000000010000000000000000000000000000000000000000000000000000000000000040000000000000000000000000000000000000000000000000000000000000006000000000000000000000000000000000000000000000000000000000000000200000000000000000000000000000000000000000000000000000000000000019697066733a2f2f706c616365686f6c6465724974656d55726900000000000000000000000000000000000000000000000000000000000000000000000000000100000000000000000000000000000000000000000000000000000000000000400000000000000000000000000000000000000000000000000000000000000060000000000000000000000000000000000000000000000000000000000000002000000000000000000000000000000000000000000000000000000000000000010000000000000000000000000000000000000000000000000000000000000001), 1, 0x7f496d77767c078ebee7a2bd7867cbf4a93e2c61961cd69d996195e0d0b04e02, 1, 0xf6e4554c3419d5d46f2b675770224d367564fc54ed146e476d2cf947dd451bba49840d11925279c6c58d93c5c4b41e0bcdfa80acfc035c4b0054204cfbdd88c91c), (0xf39Fd6e51aad88F6F4ce6aB8827279cffFb92266, (1, 1706849853, 5, 0x0000000000000000000000000000000000000000000000000000000000000020000000000000000000000000000000000000000000000000000000000000004000000000000000000000000000000000000000000000000000000000000000a0000000000000000000000000000000000000000000000000000000000000003b6261667972656962716568646b6f75767a32706a6533343377676c6d7a75676d6e366873696b616c6667737433687a76756a6a787361786879336d0000000000000000000000000000000000000000000000000000000000000000000000003b626166797265696872616f6d6c6c34326265766b72687237337a6137626c33696474686b6e673464673278706c6d333734656f776835796a347a690000000000), 1, 0x172fa0eace25ce325b6ac31054476b93104b192cb583cb24296a3cee8a0b3ee1, 1, 0xba2d0efb9953f812214a60cd86e7b6ed62a27b97c85eddb6c1bbc1921ebad60f0ea7f7b68c963d5536b3af0d108de167aed071bdce2afa4b5a09622cc42872c81b)]"
      ],
      "transaction": {
        "type": "0x02",
        "from": "0xf39fd6e51aad88f6f4ce6ab8827279cfffb92266",
        "to": "0x9fe46736679d2d9a65f0992f2272de9f3c7fa6e0",
        "gas": "0xc4ce",
        "value": "0x0",
        "data": "0xcaa550b40000000000000000000000000000000000000000000000000000000000000020000000000000000000000000000000000000000000000000000000000000000200000000000000000000000000000000000000000000000000000000000000400000000000000000000000000000000000000000000000000000000000000400000000000000000000000000f39fd6e51aad88f6f4ce6ab8827279cfffb9226600000000000000000000000000000000000000000000000000000000000000c000000000000000000000000000000000000000000000000000000000000000017f496d77767c078ebee7a2bd7867cbf4a93e2c61961cd69d996195e0d0b04e020000000000000000000000000000000000000000000000000000000000000001000000000000000000000000000000000000000000000000000000000000034000000000000000000000000000000000000000000000000000000000000000010000000000000000000000000000000000000000000000000000000065bc763d0000000000000000000000000000000000000000000000000000000000000001000000000000000000000000000000000000000000000000000000000000008000000000000000000000000000000000000000000000000000000000000001e000000000000000000000000000000000000000000000000000000000000000200000000000000000000000000000000000000000000000000000000000000040000000000000000000000000000000000000000000000000000000000000010000000000000000000000000000000000000000000000000000000000000000010000000000000000000000000000000000000000000000000000000000000040000000000000000000000000000000000000000000000000000000000000006000000000000000000000000000000000000000000000000000000000000000200000000000000000000000000000000000000000000000000000000000000019697066733a2f2f706c616365686f6c6465724974656d557269000000000000000000000000000000000000000000000000000000000000000000000000000001000000000000000000000000000000000000000000000000000000000000004000000000000000000000000000000000000000000000000000000000000000600000000000000000000000000000000000000000000000000000000000000020000000000000000000000000000000000000000000000000000000000000000100000000000000000000000000000000000000000000000000000000000000010000000000000000000000000000000000000000000000000000000000000041f6e4554c3419d5d46f2b675770224d367564fc54ed146e476d2cf947dd451bba49840d11925279c6c58d93c5c4b41e0bcdfa80acfc035c4b0054204cfbdd88c91c00000000000000000000000000000000000000000000000000000000000000000000000000000000000000f39fd6e51aad88f6f4ce6ab8827279cfffb9226600000000000000000000000000000000000000000000000000000000000000c00000000000000000000000000000000000000000000000000000000000000001172fa0eace25ce325b6ac31054476b93104b192cb583cb24296a3cee8a0b3ee10000000000000000000000000000000000000000000000000000000000000001000000000000000000000000000000000000000000000000000000000000028000000000000000000000000000000000000000000000000000000000000000010000000000000000000000000000000000000000000000000000000065bc763d0000000000000000000000000000000000000000000000000000000000000005000000000000000000000000000000000000000000000000000000000000008000000000000000000000000000000000000000000000000000000000000001200000000000000000000000000000000000000000000000000000000000000020000000000000000000000000000000000000000000000000000000000000004000000000000000000000000000000000000000000000000000000000000000a0000000000000000000000000000000000000000000000000000000000000003b6261667972656962716568646b6f75767a32706a6533343377676c6d7a75676d6e366873696b616c6667737433687a76756a6a787361786879336d0000000000000000000000000000000000000000000000000000000000000000000000003b626166797265696872616f6d6c6c34326265766b72687237337a6137626c33696474686b6e673464673278706c6d333734656f776835796a347a6900000000000000000000000000000000000000000000000000000000000000000000000041ba2d0efb9953f812214a60cd86e7b6ed62a27b97c85eddb6c1bbc1921ebad60f0ea7f7b68c963d5536b3af0d108de167aed071bdce2afa4b5a09622cc42872c81b00000000000000000000000000000000000000000000000000000000000000",
        "nonce": "0x5",
        "accessList": []
      },
      "additionalContracts": [],
      "isFixedGasLimit": false
    }
  ],
  "receipts": [
    {
      "transactionHash": "0x07e30f278299a9b1b4801c9876250406884a1a74e7892dabfa9275c1cc6979e7",
      "transactionIndex": "0x0",
      "blockHash": "0xe956fe7f6108748a6c443d25e4707e8eb11f5b77bd186667b70fdfb823f9ce18",
      "blockNumber": "0x6",
      "from": "0xf39Fd6e51aad88F6F4ce6aB8827279cffFb92266",
      "to": "0x9fE46736679d2D9a65F0992F2272dE9f3c7fa6e0",
      "cumulativeGasUsed": "0x8e7d",
      "gasUsed": "0x8e7d",
      "contractAddress": null,
      "logs": [
        {
          "address": "0x9fE46736679d2D9a65F0992F2272dE9f3c7fa6e0",
          "topics": [
            "0xbbd76ddf496bdc451129f83bf75dc2941b7ff0102da7d5f03f07a3a2f741fc70",
            "0x000000000000000000000000f39fd6e51aad88f6f4ce6ab8827279cfffb92266"
          ],
          "data": "0x",
          "blockHash": "0xe956fe7f6108748a6c443d25e4707e8eb11f5b77bd186667b70fdfb823f9ce18",
          "blockNumber": "0x6",
          "transactionHash": "0x07e30f278299a9b1b4801c9876250406884a1a74e7892dabfa9275c1cc6979e7",
          "transactionIndex": "0x0",
          "logIndex": "0x0",
          "transactionLogIndex": "0x0",
          "removed": false
        },
        {
          "address": "0x9fE46736679d2D9a65F0992F2272dE9f3c7fa6e0",
          "topics": [
            "0xbbd76ddf496bdc451129f83bf75dc2941b7ff0102da7d5f03f07a3a2f741fc70",
            "0x000000000000000000000000f39fd6e51aad88f6f4ce6ab8827279cfffb92266"
          ],
          "data": "0x",
          "blockHash": "0xe956fe7f6108748a6c443d25e4707e8eb11f5b77bd186667b70fdfb823f9ce18",
          "blockNumber": "0x6",
          "transactionHash": "0x07e30f278299a9b1b4801c9876250406884a1a74e7892dabfa9275c1cc6979e7",
          "transactionIndex": "0x0",
          "logIndex": "0x1",
          "transactionLogIndex": "0x1",
          "removed": false
        }
      ],
      "status": "0x1",
      "logsBloom": "0x00000000000000000000000000000000000000000000000000000000000000000000000000000000000000000000000000000000000840200000000000000000000000000000000000000000000000000000000000000000000000000000000000000000000000000000000100000400000000000000000000000000000000000000000000000000000000000000000000000000000000000000000000000000000000000000000000000000000000000000000000000000000000000000000000000000000000200000000002000000000000002000000000000000000000000000000000000000000000000000000000000000000000400000000000000000",
      "type": "0x2",
      "effectiveGasPrice": "0xd22f35d5"
    }
  ],
  "libraries": [],
  "pending": [],
  "returns": {},
  "timestamp": 1706849869,
  "chain": 31337,
  "multi": false,
  "commit": "bd566c44"
}