{
  "transactions": [
    {
      "hash": "0x9dd248d20e523c83dcf410b95901d500dd5afedadac103a5a5fd8a2f4bea6553",
      "transactionType": "CALL",
      "contractName": null,
      "contractAddress": "0x73c68a5Cc6d6586CA5Bd2F0c6f8eC8524f33557b",
      "function": "register(address)",
      "arguments": [
        "0x0000000000000000000000000000000000000000"
      ],
      "transaction": {
        "type": "0x02",
        "from": "0x33f59bfd58c16defb93612de65a5123f982f58ba",
        "to": "0x73c68a5cc6d6586ca5bd2f0c6f8ec8524f33557b",
        "gas": "0x1f0d1",
        "value": "0x0",
        "data": "0x4420e4860000000000000000000000000000000000000000000000000000000000000000",
        "nonce": "0x17d",
        "accessList": []
      },
      "additionalContracts": [],
      "isFixedGasLimit": false
    },
    {
      "hash": "0x287787f4cd1faa59199c7d6abcbd2014250052f2e6f4b9a3b23b434dc3c2239e",
      "transactionType": "CALL",
      "contractName": null,
      "contractAddress": "0x201957E490Ea29B4f42A68a21228D181867d6E39",
      "function": "newChannel(uint256,uint256[],uint8[],string)",
      "arguments": [
        "1",
        "[1]",
        "[2]",
        "\"ipfs://bafybeiczsscdsbs7ffqz55asqdf3smv6klcw3gofszvwlyarci47bgf354\""
      ],
      "transaction": {
        "type": "0x02",
        "from": "0x33f59bfd58c16defb93612de65a5123f982f58ba",
        "to": "0x201957e490ea29b4f42a68a21228d181867d6e39",
        "gas": "0x45546",
        "value": "0x0",
        "data": "0x6b9a1b830000000000000000000000000000000000000000000000000000000000000001000000000000000000000000000000000000000000000000000000000000008000000000000000000000000000000000000000000000000000000000000000c0000000000000000000000000000000000000000000000000000000000000010000000000000000000000000000000000000000000000000000000000000000010000000000000000000000000000000000000000000000000000000000000001000000000000000000000000000000000000000000000000000000000000000100000000000000000000000000000000000000000000000000000000000000020000000000000000000000000000000000000000000000000000000000000042697066733a2f2f62616679626569637a73736364736273376666717a3535617371646633736d76366b6c637733676f66737a76776c79617263693437626766333534000000000000000000000000000000000000000000000000000000000000",
        "nonce": "0x17e",
        "accessList": []
      },
      "additionalContracts": [],
      "isFixedGasLimit": false
    },
    {
      "hash": "0xe1998fe8532a0e6cfadda0415c2fb8a60f8b9d0ad0ae832fded1ec461d3f1fc7",
      "transactionType": "CALL",
      "contractName": null,
      "contractAddress": "0xeC3D44B91Ca1720671Ca5405c4b25c82F18F1a66",
      "function": "newItems(uint256,address,(address,bytes,uint256[])[])",
      "arguments": [
        "1",
        "0x201957E490Ea29B4f42A68a21228D181867d6E39",
        "[(0xf6B63Eb54EF06808495Dbb4D7EbFed675fFbCD72, 0x697066733a2f2f62616679626569637a73736364736273376666717a3535617371646633736d76366b6c637733676f66737a76776c79617263693437626766333534, [1])]"
      ],
      "transaction": {
        "type": "0x02",
        "from": "0x33f59bfd58c16defb93612de65a5123f982f58ba",
        "to": "0xec3d44b91ca1720671ca5405c4b25c82f18f1a66",
        "gas": "0x50c71",
        "value": "0x0",
        "data": "0x8f78779d0000000000000000000000000000000000000000000000000000000000000001000000000000000000000000201957e490ea29b4f42a68a21228d181867d6e39000000000000000000000000000000000000000000000000000000000000006000000000000000000000000000000000000000000000000000000000000000010000000000000000000000000000000000000000000000000000000000000020000000000000000000000000f6b63eb54ef06808495dbb4d7ebfed675ffbcd72000000000000000000000000000000000000000000000000000000000000006000000000000000000000000000000000000000000000000000000000000000e00000000000000000000000000000000000000000000000000000000000000042697066733a2f2f62616679626569637a73736364736273376666717a3535617371646633736d76366b6c637733676f66737a76776c7961726369343762676633353400000000000000000000000000000000000000000000000000000000000000000000000000000000000000000000000000000000000000000000000000010000000000000000000000000000000000000000000000000000000000000001",
        "nonce": "0x17f",
        "accessList": []
      },
      "additionalContracts": [
        {
          "transactionType": "CREATE",
          "address": "0x02a8ac80b602dBFd61eaC63637239b946E928eff",
          "initCode": "0x630000004380600e6000396000f300697066733a2f2f62616679626569637a73736364736273376666717a3535617371646633736d76366b6c637733676f66737a76776c79617263693437626766333534"
        }
      ],
      "isFixedGasLimit": false
    }
  ],
  "receipts": [
    {
      "transactionHash": "0x9dd248d20e523c83dcf410b95901d500dd5afedadac103a5a5fd8a2f4bea6553",
      "transactionIndex": "0x1",
      "blockHash": "0xa255de1a3b1a3760e9c836226ada2a7ae23adc59012cd3ca2ad27ed08d89c8b6",
      "blockNumber": "0xc5462",
      "from": "0x33F59bfD58c16dEfB93612De65A5123F982F58bA",
      "to": "0x73c68a5Cc6d6586CA5Bd2F0c6f8eC8524f33557b",
      "cumulativeGasUsed": "0x22ce9",
      "gasUsed": "0x167b0",
      "contractAddress": null,
      "logs": [
        {
          "address": "0x73c68a5Cc6d6586CA5Bd2F0c6f8eC8524f33557b",
          "topics": [
            "0xf2e19a901b0748d8b08e428d0468896a039ac751ec4fec49b44b7b9c28097e45"
          ],
          "data": "0x00000000000000000000000033f59bfd58c16defb93612de65a5123f982f58ba00000000000000000000000000000000000000000000000000000000000000010000000000000000000000000000000000000000000000000000000000000000",
          "blockHash": "0xa255de1a3b1a3760e9c836226ada2a7ae23adc59012cd3ca2ad27ed08d89c8b6",
          "blockNumber": "0xc5462",
          "transactionHash": "0x9dd248d20e523c83dcf410b95901d500dd5afedadac103a5a5fd8a2f4bea6553",
          "transactionIndex": "0x1",
          "logIndex": "0x0",
          "removed": false
        }
      ],
      "status": "0x1",
      "logsBloom": "0x00000000000000000000000000000000000000000000000000000000000000000000080000000000000000000000000000000000000000000000000000000000000020000000000000001000000000000000000000000000000000000000004000000000000000000000000000000000000000000000000000000000000000000000000000000000000000000000000000000000000000000000000000000000000000000000000000000000000000000000000000000000000000000000000000000000000000000000000000000000000000001000000000000000000000000000000000000000000000000000000000000000000000000000000000080000",
      "type": "0x2",
      "effectiveGasPrice": "0xb2d05e32"
    },
    {
      "transactionHash": "0x287787f4cd1faa59199c7d6abcbd2014250052f2e6f4b9a3b23b434dc3c2239e",
      "transactionIndex": "0x2",
      "blockHash": "0xa255de1a3b1a3760e9c836226ada2a7ae23adc59012cd3ca2ad27ed08d89c8b6",
      "blockNumber": "0xc5462",
      "from": "0x33F59bfD58c16dEfB93612De65A5123F982F58bA",
      "to": "0x201957E490Ea29B4f42A68a21228D181867d6E39",
      "cumulativeGasUsed": "0x52364",
      "gasUsed": "0x2f67b",
      "contractAddress": null,
      "logs": [
        {
          "address": "0x201957E490Ea29B4f42A68a21228D181867d6E39",
          "topics": [
            "0x1822ce9c64e39790348e4a8258d6dcde2cc59b817130ebcb01ab5be2c49ddd0e"
          ],
          "data": "0x00000000000000000000000033f59bfd58c16defb93612de65a5123f982f58ba0000000000000000000000000000000000000000000000000000000000000001000000000000000000000000000000000000000000000000000000000000000100000000000000000000000000000000000000000000000000000000000000c00000000000000000000000000000000000000000000000000000000000000100000000000000000000000000000000000000000000000000000000000000014000000000000000000000000000000000000000000000000000000000000000010000000000000000000000000000000000000000000000000000000000000001000000000000000000000000000000000000000000000000000000000000000100000000000000000000000000000000000000000000000000000000000000020000000000000000000000000000000000000000000000000000000000000042697066733a2f2f62616679626569637a73736364736273376666717a3535617371646633736d76366b6c637733676f66737a76776c79617263693437626766333534000000000000000000000000000000000000000000000000000000000000",
          "blockHash": "0xa255de1a3b1a3760e9c836226ada2a7ae23adc59012cd3ca2ad27ed08d89c8b6",
          "blockNumber": "0xc5462",
          "transactionHash": "0x287787f4cd1faa59199c7d6abcbd2014250052f2e6f4b9a3b23b434dc3c2239e",
          "transactionIndex": "0x2",
          "logIndex": "0x1",
          "removed": false
        }
      ],
      "status": "0x1",
      "logsBloom": "0x00000000000000000000000000000000000000000000000000000000000000000000000000000000000000000000002000000000000000000000000000000000000000000000000000000000000000000000000000000000000000000001000000000000000000000000000100021000000000000000000000000000000000000000000000000000000000000000000000000000000000000000000000000000000000000000000000000000000000000000020000000000000000000000000000000000000000000000000000000000000000000000000000000000000000000000000000000000000000000000000000000000000000000000000000000000",
      "type": "0x2",
      "effectiveGasPrice": "0xb2d05e32"
    },
    {
      "transactionHash": "0xe1998fe8532a0e6cfadda0415c2fb8a60f8b9d0ad0ae832fded1ec461d3f1fc7",
      "transactionIndex": "0x3",
      "blockHash": "0xa255de1a3b1a3760e9c836226ada2a7ae23adc59012cd3ca2ad27ed08d89c8b6",
      "blockNumber": "0xc5462",
      "from": "0x33F59bfD58c16dEfB93612De65A5123F982F58bA",
      "to": "0xeC3D44B91Ca1720671Ca5405c4b25c82F18F1a66",
      "cumulativeGasUsed": "0x8971d",
      "gasUsed": "0x373b9",
      "contractAddress": null,
      "logs": [
        {
          "address": "0x201957E490Ea29B4f42A68a21228D181867d6E39",
          "topics": [
            "0xa2ba758028b7d21eee988892461f8630fe375441d69998d867174616c5eef8fb"
          ],
          "data": "0x000000000000000000000000ec3d44b91ca1720671ca5405c4b25c82f18f1a66000000000000000000000000000000000000000000000000000000000000000100000000000000000000000000000000000000000000000000000000000000010000000000000000000000000000000000000000000000000000000000000001",
          "blockHash": "0xa255de1a3b1a3760e9c836226ada2a7ae23adc59012cd3ca2ad27ed08d89c8b6",
          "blockNumber": "0xc5462",
          "transactionHash": "0xe1998fe8532a0e6cfadda0415c2fb8a60f8b9d0ad0ae832fded1ec461d3f1fc7",
          "transactionIndex": "0x3",
          "logIndex": "0x2",
          "removed": false
        },
        {
          "address": "0xeC3D44B91Ca1720671Ca5405c4b25c82F18F1a66",
          "topics": [
            "0x3e10234a4e857177ddefae5dc2656f753841721aaf25cedf749203be33f80ee4"
          ],
          "data": "0x00000000000000000000000033f59bfd58c16defb93612de65a5123f982f58ba00000000000000000000000000000000000000000000000000000000000000010000000000000000000000000000000000000000000000000000000000000001",
          "blockHash": "0xa255de1a3b1a3760e9c836226ada2a7ae23adc59012cd3ca2ad27ed08d89c8b6",
          "blockNumber": "0xc5462",
          "transactionHash": "0xe1998fe8532a0e6cfadda0415c2fb8a60f8b9d0ad0ae832fded1ec461d3f1fc7",
          "transactionIndex": "0x3",
          "logIndex": "0x3",
          "removed": false
        }
      ],
      "status": "0x1",
      "logsBloom": "0x00000000000000000000000000000000000000000000000000000000000000000000000000000000010000000000002000000000000000000000000000000000000000000000000000000000100000000000000000000000000000000000000000000000000000000000000100001000000000000000000000000000000000000000000000000000000000000000000000000000000000000000000000000000000000000000200000000000000000000000000000000000000000000000000000000000000000000000800000200000000000000000000040000000000000000000000000000000000000000004000000000000100000000000000000000010",
      "type": "0x2",
      "effectiveGasPrice": "0xb2d05e32"
    }
  ],
  "libraries": [],
  "pending": [],
  "returns": {},
  "timestamp": 1704490771,
  "chain": 36912,
  "multi": false,
  "commit": "c80d0cd"
}