{
  "transactions": [
    {
      "hash": "0xf3293450ff5da60121b87d6447b1c205d5381361916214002085ed40f6bcaf0e",
      "transactionType": "CALL",
      "contractName": null,
      "contractAddress": "0xd7CBFd1ACbb4314007AAf0fcA8BebdE91585302e",
      "function": "register(address)",
      "arguments": [
        "0x0000000000000000000000000000000000000000"
      ],
      "transaction": {
        "type": "0x02",
        "from": "0x33f59bfd58c16defb93612de65a5123f982f58ba",
        "to": "0xd7cbfd1acbb4314007aaf0fca8bebde91585302e",
        "gas": "0x1f0d1",
        "value": "0x0",
        "data": "0x4420e4860000000000000000000000000000000000000000000000000000000000000000",
        "nonce": "0x173",
        "accessList": []
      },
      "additionalContracts": [],
      "isFixedGasLimit": false
    },
    {
      "hash": "0x9de254f42512da782d5d390ac8639e9d2cd3c20702505e530e94f5373425c1b7",
      "transactionType": "CALL",
      "contractName": null,
      "contractAddress": "0x5a94bfaF87dB3f34F5abbD28eB2E4E8B4537B00b",
      "function": "newChannel(uint256,uint256[],uint8[],string)",
      "arguments": [
        "1",
        "[1]",
        "[2]",
        "\"ipfs://bafybeiczsscdsbs7ffqz55asqdf3smv6klcw3gofszvwlyarci47bgf354\""
      ],
      "transaction": {
        "type": "0x02",
        "from": "0x33f59bfd58c16defb93612de65a5123f982f58ba",
        "to": "0x5a94bfaf87db3f34f5abbd28eb2e4e8b4537b00b",
        "gas": "0x45546",
        "value": "0x0",
        "data": "0x6b9a1b830000000000000000000000000000000000000000000000000000000000000001000000000000000000000000000000000000000000000000000000000000008000000000000000000000000000000000000000000000000000000000000000c0000000000000000000000000000000000000000000000000000000000000010000000000000000000000000000000000000000000000000000000000000000010000000000000000000000000000000000000000000000000000000000000001000000000000000000000000000000000000000000000000000000000000000100000000000000000000000000000000000000000000000000000000000000020000000000000000000000000000000000000000000000000000000000000042697066733a2f2f62616679626569637a73736364736273376666717a3535617371646633736d76366b6c637733676f66737a76776c79617263693437626766333534000000000000000000000000000000000000000000000000000000000000",
        "nonce": "0x174",
        "accessList": []
      },
      "additionalContracts": [],
      "isFixedGasLimit": false
    },
    {
      "hash": "0xdf05a91d9dae52973e7b57c66d5979252b1b5d1194666cdcc499f9b2ff87f6d0",
      "transactionType": "CALL",
      "contractName": null,
      "contractAddress": "0xc285B55a5048BCaAb7B7D1112f3cc41C365328CF",
      "function": "newItems(uint256,address,(address,bytes,uint256[])[])",
      "arguments": [
        "1",
        "0x5a94bfaF87dB3f34F5abbD28eB2E4E8B4537B00b",
        "[(0x4Bc34f03ccEE9838A98c8cFbaC5a2300B20231cF, 0x697066733a2f2f62616679626569637a73736364736273376666717a3535617371646633736d76366b6c637733676f66737a76776c79617263693437626766333534, [1])]"
      ],
      "transaction": {
        "type": "0x02",
        "from": "0x33f59bfd58c16defb93612de65a5123f982f58ba",
        "to": "0xc285b55a5048bcaab7b7d1112f3cc41c365328cf",
        "gas": "0x4c492",
        "value": "0x0",
        "data": "0x8f78779d00000000000000000000000000000000000000000000000000000000000000010000000000000000000000005a94bfaf87db3f34f5abbd28eb2e4e8b4537b00b0000000000000000000000000000000000000000000000000000000000000060000000000000000000000000000000000000000000000000000000000000000100000000000000000000000000000000000000000000000000000000000000200000000000000000000000004bc34f03ccee9838a98c8cfbac5a2300b20231cf000000000000000000000000000000000000000000000000000000000000006000000000000000000000000000000000000000000000000000000000000000e00000000000000000000000000000000000000000000000000000000000000042697066733a2f2f62616679626569637a73736364736273376666717a3535617371646633736d76366b6c637733676f66737a76776c7961726369343762676633353400000000000000000000000000000000000000000000000000000000000000000000000000000000000000000000000000000000000000000000000000010000000000000000000000000000000000000000000000000000000000000001",
        "nonce": "0x175",
        "accessList": []
      },
      "additionalContracts": [
        {
          "transactionType": "CREATE",
          "address": "0x84A4FF7F55D2e8caEd9a11046dAde94398cd1Abd",
          "initCode": "0x630000004380600e6000396000f300697066733a2f2f62616679626569637a73736364736273376666717a3535617371646633736d76366b6c637733676f66737a76776c79617263693437626766333534"
        }
      ],
      "isFixedGasLimit": false
    }
  ],
  "receipts": [
    {
      "transactionHash": "0xf3293450ff5da60121b87d6447b1c205d5381361916214002085ed40f6bcaf0e",
      "transactionIndex": "0x1",
      "blockHash": "0x9028c3fe122a71009dd732948f8f5553710e8154d10524cab1bfb795f0914cf5",
      "blockNumber": "0xc5137",
      "from": "0x33F59bfD58c16dEfB93612De65A5123F982F58bA",
      "to": "0xd7CBFd1ACbb4314007AAf0fcA8BebdE91585302e",
      "cumulativeGasUsed": "0x261a5",
      "gasUsed": "0x167b0",
      "contractAddress": null,
      "logs": [
        {
          "address": "0xd7CBFd1ACbb4314007AAf0fcA8BebdE91585302e",
          "topics": [
            "0xf2e19a901b0748d8b08e428d0468896a039ac751ec4fec49b44b7b9c28097e45"
          ],
          "data": "0x00000000000000000000000033f59bfd58c16defb93612de65a5123f982f58ba00000000000000000000000000000000000000000000000000000000000000010000000000000000000000000000000000000000000000000000000000000000",
          "blockHash": "0x9028c3fe122a71009dd732948f8f5553710e8154d10524cab1bfb795f0914cf5",
          "blockNumber": "0xc5137",
          "transactionHash": "0xf3293450ff5da60121b87d6447b1c205d5381361916214002085ed40f6bcaf0e",
          "transactionIndex": "0x1",
          "logIndex": "0x0",
          "removed": false
        }
      ],
      "status": "0x1",
      "logsBloom": "0x00000000000000000000000000000000000000000000000000000000000000000800000000000000000000000000000000000000000000000000000000000000000020000000000000001000000000000000000000000000000000000000004000000000000000000000000000000000000000000000000000000000000000000000000000000000000000000000000000000000000000000000000000000000000000000000000000000000000000000000000000000000000000000000000000080000000000000000000000000000000000000000000000000000000100000000000000000000000000000000000000000000000000000000000000000000",
      "type": "0x2",
      "effectiveGasPrice": "0xb2d05e32"
    },
    {
      "transactionHash": "0x9de254f42512da782d5d390ac8639e9d2cd3c20702505e530e94f5373425c1b7",
      "transactionIndex": "0x2",
      "blockHash": "0x9028c3fe122a71009dd732948f8f5553710e8154d10524cab1bfb795f0914cf5",
      "blockNumber": "0xc5137",
      "from": "0x33F59bfD58c16dEfB93612De65A5123F982F58bA",
      "to": "0x5a94bfaF87dB3f34F5abbD28eB2E4E8B4537B00b",
      "cumulativeGasUsed": "0x55820",
      "gasUsed": "0x2f67b",
      "contractAddress": null,
      "logs": [
        {
          "address": "0x5a94bfaF87dB3f34F5abbD28eB2E4E8B4537B00b",
          "topics": [
            "0x1822ce9c64e39790348e4a8258d6dcde2cc59b817130ebcb01ab5be2c49ddd0e"
          ],
          "data": "0x00000000000000000000000033f59bfd58c16defb93612de65a5123f982f58ba0000000000000000000000000000000000000000000000000000000000000001000000000000000000000000000000000000000000000000000000000000000100000000000000000000000000000000000000000000000000000000000000c00000000000000000000000000000000000000000000000000000000000000100000000000000000000000000000000000000000000000000000000000000014000000000000000000000000000000000000000000000000000000000000000010000000000000000000000000000000000000000000000000000000000000001000000000000000000000000000000000000000000000000000000000000000100000000000000000000000000000000000000000000000000000000000000020000000000000000000000000000000000000000000000000000000000000042697066733a2f2f62616679626569637a73736364736273376666717a3535617371646633736d76366b6c637733676f66737a76776c79617263693437626766333534000000000000000000000000000000000000000000000000000000000000",
          "blockHash": "0x9028c3fe122a71009dd732948f8f5553710e8154d10524cab1bfb795f0914cf5",
          "blockNumber": "0xc5137",
          "transactionHash": "0x9de254f42512da782d5d390ac8639e9d2cd3c20702505e530e94f5373425c1b7",
          "transactionIndex": "0x2",
          "logIndex": "0x1",
          "removed": false
        }
      ],
      "status": "0x1",
      "logsBloom": "0x00000000000000000000000000000000000000000000000000000000000000000000000000000000000000000000000000000000000000000000000000000000000000000000000000000000000000000000020000000000000000200001000000000000000000000000000000020000000000040000000000000000000000000000000000000000000000000000000000000000000000000000000000000000000000000000000000000000000000000000020000000000000000000000000000000000000000000000000000000000000000000000000000000000000000000000000000000000000000000000000000000000000000000000000000000000",
      "type": "0x2",
      "effectiveGasPrice": "0xb2d05e32"
    },
    {
      "transactionHash": "0xdf05a91d9dae52973e7b57c66d5979252b1b5d1194666cdcc499f9b2ff87f6d0",
      "transactionIndex": "0x3",
      "blockHash": "0x9028c3fe122a71009dd732948f8f5553710e8154d10524cab1bfb795f0914cf5",
      "blockNumber": "0xc5137",
      "from": "0x33F59bfD58c16dEfB93612De65A5123F982F58bA",
      "to": "0xc285B55a5048BCaAb7B7D1112f3cc41C365328CF",
      "cumulativeGasUsed": "0x8cbcd",
      "gasUsed": "0x373ad",
      "contractAddress": null,
      "logs": [
        {
          "address": "0x5a94bfaF87dB3f34F5abbD28eB2E4E8B4537B00b",
          "topics": [
            "0xa2ba758028b7d21eee988892461f8630fe375441d69998d867174616c5eef8fb"
          ],
          "data": "0x000000000000000000000000c285b55a5048bcaab7b7d1112f3cc41c365328cf000000000000000000000000000000000000000000000000000000000000000100000000000000000000000000000000000000000000000000000000000000010000000000000000000000000000000000000000000000000000000000000001",
          "blockHash": "0x9028c3fe122a71009dd732948f8f5553710e8154d10524cab1bfb795f0914cf5",
          "blockNumber": "0xc5137",
          "transactionHash": "0xdf05a91d9dae52973e7b57c66d5979252b1b5d1194666cdcc499f9b2ff87f6d0",
          "transactionIndex": "0x3",
          "logIndex": "0x2",
          "removed": false
        },
        {
          "address": "0xc285B55a5048BCaAb7B7D1112f3cc41C365328CF",
          "topics": [
            "0x3e10234a4e857177ddefae5dc2656f753841721aaf25cedf749203be33f80ee4"
          ],
          "data": "0x00000000000000000000000033f59bfd58c16defb93612de65a5123f982f58ba00000000000000000000000000000000000000000000000000000000000000010000000000000000000000000000000000000000000000000000000000000001",
          "blockHash": "0x9028c3fe122a71009dd732948f8f5553710e8154d10524cab1bfb795f0914cf5",
          "blockNumber": "0xc5137",
          "transactionHash": "0xdf05a91d9dae52973e7b57c66d5979252b1b5d1194666cdcc499f9b2ff87f6d0",
          "transactionIndex": "0x3",
          "logIndex": "0x3",
          "removed": false
        }
      ],
      "status": "0x1",
      "logsBloom": "0x00000000000000000000000000002000000000000000000000000000000000000000000000000000000000000000000000000000000000010000000000000000000000000000000000000000100000000000020000000000000000200000000000000000000000000000000000000001000000040000000000000000000000000000000000000000000000000000000000000000000000000000000000000000000000000000000000000000000000000000000000000000000000000000000000000000000000000000800000000000000000000000000040000000000000000000000000000000000000000004000000000000100000000000000000000010",
      "type": "0x2",
      "effectiveGasPrice": "0xb2d05e32"
    }
  ],
  "libraries": [],
  "pending": [],
  "returns": {},
  "timestamp": 1704489148,
  "chain": 36912,
  "multi": false,
  "commit": "c80d0cd"
}