{
  "transactions": [
    {
      "hash": "0xefd841229f9498fc4ca3d766ec45dbfaf61c23673b10192bd11caae27d865fa7",
      "transactionType": "CALL",
      "contractName": null,
      "contractAddress": "0x372d44903056fCdF643B75a660Fb0e8D79A7293F",
      "function": "newChannel(uint256,uint256[],uint8[],string)",
      "arguments": [
        "1",
        "[1]",
        "[2]",
        "\"ipfs://bafybeiczsscdsbs7ffqz55asqdf3smv6klcw3gofszvwlyarci47bgf354\""
      ],
      "transaction": {
        "type": "0x02",
        "from": "0x33f59bfd58c16defb93612de65a5123f982f58ba",
        "to": "0x372d44903056fcdf643b75a660fb0e8d79a7293f",
        "gas": "0x435be",
        "value": "0x0",
        "data": "0x6b9a1b830000000000000000000000000000000000000000000000000000000000000001000000000000000000000000000000000000000000000000000000000000008000000000000000000000000000000000000000000000000000000000000000c0000000000000000000000000000000000000000000000000000000000000010000000000000000000000000000000000000000000000000000000000000000010000000000000000000000000000000000000000000000000000000000000001000000000000000000000000000000000000000000000000000000000000000100000000000000000000000000000000000000000000000000000000000000020000000000000000000000000000000000000000000000000000000000000042697066733a2f2f62616679626569637a73736364736273376666717a3535617371646633736d76366b6c637733676f66737a76776c79617263693437626766333534000000000000000000000000000000000000000000000000000000000000",
        "nonce": "0x197",
        "accessList": []
      },
      "additionalContracts": [],
      "isFixedGasLimit": false
    },
    {
      "hash": "0x24774a06a20008c837c3698cff1e8f28d59d44eb3b510562b1f88b9cfc86e840",
      "transactionType": "CALL",
      "contractName": null,
      "contractAddress": "0x5226c4A81ed525bdc4AA97558fb596ddd9B34e0E",
      "function": "newItems(uint256,(bytes,uint256[])[])",
      "arguments": [
        "1",
        "[(0x1358b4111fbfd1929d3d47cfab2f00bf134e3918697066733a2f2f62616679626569637a73736364736273376666717a3535617371646633736d76366b6c637733676f66737a76776c79617263693437626766333534, [1])]"
      ],
      "transaction": {
        "type": "0x02",
        "from": "0x33f59bfd58c16defb93612de65a5123f982f58ba",
        "to": "0x5226c4a81ed525bdc4aa97558fb596ddd9b34e0e",
        "gas": "0x44da3",
        "value": "0x0",
        "data": "0x5b773d930000000000000000000000000000000000000000000000000000000000000001000000000000000000000000000000000000000000000000000000000000004000000000000000000000000000000000000000000000000000000000000000010000000000000000000000000000000000000000000000000000000000000020000000000000000000000000000000000000000000000000000000000000004000000000000000000000000000000000000000000000000000000000000000c000000000000000000000000000000000000000000000000000000000000000561358b4111fbfd1929d3d47cfab2f00bf134e3918697066733a2f2f62616679626569637a73736364736273376666717a3535617371646633736d76366b6c637733676f66737a76776c796172636934376267663335340000000000000000000000000000000000000000000000000000000000000000000000000000000000010000000000000000000000000000000000000000000000000000000000000001",
        "nonce": "0x198",
        "accessList": []
      },
      "additionalContracts": [
        {
          "transactionType": "CREATE",
          "address": "0x28C174b10d24944704903aE100AF70e6B547e9D3",
          "initCode": "0x630000005780600e6000396000f3001358b4111fbfd1929d3d47cfab2f00bf134e3918697066733a2f2f62616679626569637a73736364736273376666717a3535617371646633736d76366b6c637733676f66737a76776c79617263693437626766333534"
        }
      ],
      "isFixedGasLimit": false
    }
  ],
  "receipts": [
    {
      "transactionHash": "0xefd841229f9498fc4ca3d766ec45dbfaf61c23673b10192bd11caae27d865fa7",
      "transactionIndex": "0x1",
      "blockHash": "0xd567b580cad11a38e53ddc8f1aa273c37e03ab4aca2dd9a1c68f598bd71b85a1",
      "blockNumber": "0xf9823",
      "from": "0x33F59bfD58c16dEfB93612De65A5123F982F58bA",
      "to": "0x372d44903056fCdF643B75a660Fb0e8D79A7293F",
      "cumulativeGasUsed": "0x40646",
      "gasUsed": "0x30c45",
      "contractAddress": null,
      "logs": [
        {
          "address": "0x372d44903056fCdF643B75a660Fb0e8D79A7293F",
          "topics": [
            "0x1822ce9c64e39790348e4a8258d6dcde2cc59b817130ebcb01ab5be2c49ddd0e"
          ],
          "data": "0x00000000000000000000000033f59bfd58c16defb93612de65a5123f982f58ba0000000000000000000000000000000000000000000000000000000000000001000000000000000000000000000000000000000000000000000000000000000100000000000000000000000000000000000000000000000000000000000000c00000000000000000000000000000000000000000000000000000000000000100000000000000000000000000000000000000000000000000000000000000014000000000000000000000000000000000000000000000000000000000000000010000000000000000000000000000000000000000000000000000000000000001000000000000000000000000000000000000000000000000000000000000000100000000000000000000000000000000000000000000000000000000000000020000000000000000000000000000000000000000000000000000000000000042697066733a2f2f62616679626569637a73736364736273376666717a3535617371646633736d76366b6c637733676f66737a76776c79617263693437626766333534000000000000000000000000000000000000000000000000000000000000",
          "blockHash": "0xd567b580cad11a38e53ddc8f1aa273c37e03ab4aca2dd9a1c68f598bd71b85a1",
          "blockNumber": "0xf9823",
          "transactionHash": "0xefd841229f9498fc4ca3d766ec45dbfaf61c23673b10192bd11caae27d865fa7",
          "transactionIndex": "0x1",
          "logIndex": "0x0",
          "removed": false
        }
      ],
      "status": "0x1",
      "logsBloom": "0x00000000000000000000000000000000000000000000000000000000000000000000000000000000000000000002000000000000000000000000000000000000000000000000000000000000000000000000000000000020000000000001000000000000000000000000000000020000000000000000000000000000040000000000000000000000000000000000000000000000000000000000000000000000000000000000000000000000000000000000020000000000000000000000000000000000000000000000000000000000000000000000000000000000000000000000000000000000000000000000000000000000000000000000000000000000",
      "type": "0x2",
      "effectiveGasPrice": "0xb2d05e32"
    },
    {
      "transactionHash": "0x24774a06a20008c837c3698cff1e8f28d59d44eb3b510562b1f88b9cfc86e840",
      "transactionIndex": "0x2",
      "blockHash": "0xd567b580cad11a38e53ddc8f1aa273c37e03ab4aca2dd9a1c68f598bd71b85a1",
      "blockNumber": "0xf9823",
      "from": "0x33F59bfD58c16dEfB93612De65A5123F982F58bA",
      "to": "0x5226c4A81ed525bdc4AA97558fb596ddd9B34e0E",
      "cumulativeGasUsed": "0x6f788",
      "gasUsed": "0x2f142",
      "contractAddress": null,
      "logs": [
        {
          "address": "0x5226c4A81ed525bdc4AA97558fb596ddd9B34e0E",
          "topics": [
            "0xa2ba758028b7d21eee988892461f8630fe375441d69998d867174616c5eef8fb"
          ],
          "data": "0x00000000000000000000000033f59bfd58c16defb93612de65a5123f982f58ba000000000000000000000000000000000000000000000000000000000000000100000000000000000000000000000000000000000000000000000000000000010000000000000000000000000000000000000000000000000000000000000001",
          "blockHash": "0xd567b580cad11a38e53ddc8f1aa273c37e03ab4aca2dd9a1c68f598bd71b85a1",
          "blockNumber": "0xf9823",
          "transactionHash": "0x24774a06a20008c837c3698cff1e8f28d59d44eb3b510562b1f88b9cfc86e840",
          "transactionIndex": "0x2",
          "logIndex": "0x1",
          "removed": false
        },
        {
          "address": "0x5226c4A81ed525bdc4AA97558fb596ddd9B34e0E",
          "topics": [
            "0xcb8ed0ee097b44fc214187fb8b4aac936c98c2b9100a018852e798d2a225ad76"
          ],
          "data": "0x00000000000000000000000033f59bfd58c16defb93612de65a5123f982f58ba0000000000000000000000000000000000000000000000000000000000000001000000000000000000000000000000000000000000000000000000000000008000000000000000000000000000000000000000000000000000000000000000c000000000000000000000000000000000000000000000000000000000000000010000000000000000000000000000000000000000000000000000000000000001000000000000000000000000000000000000000000000000000000000000000100000000000000000000000028c174b10d24944704903ae100af70e6b547e9d3",
          "blockHash": "0xd567b580cad11a38e53ddc8f1aa273c37e03ab4aca2dd9a1c68f598bd71b85a1",
          "blockNumber": "0xf9823",
          "transactionHash": "0x24774a06a20008c837c3698cff1e8f28d59d44eb3b510562b1f88b9cfc86e840",
          "transactionIndex": "0x2",
          "logIndex": "0x2",
          "removed": false
        }
      ],
      "status": "0x1",
      "logsBloom": "0x00000000000000000000000000000000000000000000000000000000000000000000000000000000000000000000000000000000000000000000000000000000000000000000000000000080000000000000000000100000000000000000000000000000000000000000000000000000000000000000000000000000000000000000000000000000000000000000000000000000000000000000000000000000000000000000008000000000000000000000000000000000400000000000000000000000000000000000000000000000000000000000001040000000000000000000000000000000000000000004000000000000000000000000000000001010",
      "type": "0x2",
      "effectiveGasPrice": "0xb2d05e32"
    }
  ],
  "libraries": [],
  "pending": [],
  "returns": {},
  "timestamp": 1704918676,
  "chain": 36912,
  "multi": false,
  "commit": "fee576f"
}