{
  "transactions": [
    {
      "hash": "0x944ce9cd8fdd067429e1d124fa93b1f873a8e3467ab7979872970293ae8317a9",
      "transactionType": "CALL",
      "contractName": null,
      "contractAddress": "0x0dE97a5bc300d20A0D629179cF678296177854E8",
      "function": "newChannel(uint256,string,address,bytes)",
      "arguments": [
        "1",
        "\"ipfs://bafybeiczsscdsbs7ffqz55asqdf3smv6klcw3gofszvwlyarci47bgf354\"",
        "0x412CAEe8a5EE5741bED459951C091f8FfaA14778",
        "0x000000000000000000000000000000000000000000000000000000000000004000000000000000000000000000000000000000000000000000000000000000800000000000000000000000000000000000000000000000000000000000000001000000000000000000000000000000000000000000000000000000000000000100000000000000000000000000000000000000000000000000000000000000010000000000000000000000000000000000000000000000000000000000000002"
      ],
      "transaction": {
        "type": "0x02",
        "from": "0x33f59bfd58c16defb93612de65a5123f982f58ba",
        "to": "0x0de97a5bc300d20a0d629179cf678296177854e8",
        "gas": "0x47edd",
        "value": "0x0",
        "data": "0x3b4555a200000000000000000000000000000000000000000000000000000000000000010000000000000000000000000000000000000000000000000000000000000080000000000000000000000000412caee8a5ee5741bed459951c091f8ffaa1477800000000000000000000000000000000000000000000000000000000000001000000000000000000000000000000000000000000000000000000000000000042697066733a2f2f62616679626569637a73736364736273376666717a3535617371646633736d76366b6c637733676f66737a76776c7961726369343762676633353400000000000000000000000000000000000000000000000000000000000000000000000000000000000000000000000000000000000000000000000000c0000000000000000000000000000000000000000000000000000000000000004000000000000000000000000000000000000000000000000000000000000000800000000000000000000000000000000000000000000000000000000000000001000000000000000000000000000000000000000000000000000000000000000100000000000000000000000000000000000000000000000000000000000000010000000000000000000000000000000000000000000000000000000000000002",
        "nonce": "0x19f",
        "accessList": []
      },
      "additionalContracts": [],
      "isFixedGasLimit": false
    },
    {
      "hash": "0x2d53f544ebbaa844871a82a9ba8b92b500eabc09cece45c6fc88cecb30fb21e0",
      "transactionType": "CALL",
      "contractName": null,
      "contractAddress": "0xf35776f159614B573C2Ae10F95407ed8b70D4C73",
      "function": "newItems(uint256,(bytes,uint256[])[])",
      "arguments": [
        "1",
        "[(0x1358b4111fbfd1929d3d47cfab2f00bf134e3918697066733a2f2f62616679626569637a73736364736273376666717a3535617371646633736d76366b6c637733676f66737a76776c79617263693437626766333534, [1])]"
      ],
      "transaction": {
        "type": "0x02",
        "from": "0x33f59bfd58c16defb93612de65a5123f982f58ba",
        "to": "0xf35776f159614b573c2ae10f95407ed8b70d4c73",
        "gas": "0x410ef",
        "value": "0x0",
        "data": "0x5b773d930000000000000000000000000000000000000000000000000000000000000001000000000000000000000000000000000000000000000000000000000000004000000000000000000000000000000000000000000000000000000000000000010000000000000000000000000000000000000000000000000000000000000020000000000000000000000000000000000000000000000000000000000000004000000000000000000000000000000000000000000000000000000000000000c000000000000000000000000000000000000000000000000000000000000000561358b4111fbfd1929d3d47cfab2f00bf134e3918697066733a2f2f62616679626569637a73736364736273376666717a3535617371646633736d76366b6c637733676f66737a76776c796172636934376267663335340000000000000000000000000000000000000000000000000000000000000000000000000000000000010000000000000000000000000000000000000000000000000000000000000001",
        "nonce": "0x1a0",
        "accessList": []
      },
      "additionalContracts": [
        {
          "transactionType": "CREATE",
          "address": "0x7B7e6e4Db2B35573230cd8A154cd0D8E30316095",
          "initCode": "0x630000005780600e6000396000f3001358b4111fbfd1929d3d47cfab2f00bf134e3918697066733a2f2f62616679626569637a73736364736273376666717a3535617371646633736d76366b6c637733676f66737a76776c79617263693437626766333534"
        }
      ],
      "isFixedGasLimit": false
    }
  ],
  "receipts": [],
  "libraries": [],
  "pending": [
    "0x944ce9cd8fdd067429e1d124fa93b1f873a8e3467ab7979872970293ae8317a9",
    "0x2d53f544ebbaa844871a82a9ba8b92b500eabc09cece45c6fc88cecb30fb21e0"
  ],
  "returns": {},
  "timestamp": 1704943156,
  "chain": 36912,
  "multi": false,
  "commit": "46a02c8"
}