{
  "transactions": [
    {
      "hash": "0xefd841229f9498fc4ca3d766ec45dbfaf61c23673b10192bd11caae27d865fa7",
      "transactionType": "CALL",
      "contractName": null,
      "contractAddress": "0x372d44903056fCdF643B75a660Fb0e8D79A7293F",
      "function": "newChannel(uint256,uint256[],uint8[],string)",
      "arguments": [
        "1",
        "[1]",
        "[2]",
        "\"ipfs://bafybeiczsscdsbs7ffqz55asqdf3smv6klcw3gofszvwlyarci47bgf354\""
      ],
      "transaction": {
        "type": "0x02",
        "from": "0x33f59bfd58c16defb93612de65a5123f982f58ba",
        "to": "0x372d44903056fcdf643b75a660fb0e8d79a7293f",
        "gas": "0x435be",
        "value": "0x0",
        "data": "0x6b9a1b830000000000000000000000000000000000000000000000000000000000000001000000000000000000000000000000000000000000000000000000000000008000000000000000000000000000000000000000000000000000000000000000c0000000000000000000000000000000000000000000000000000000000000010000000000000000000000000000000000000000000000000000000000000000010000000000000000000000000000000000000000000000000000000000000001000000000000000000000000000000000000000000000000000000000000000100000000000000000000000000000000000000000000000000000000000000020000000000000000000000000000000000000000000000000000000000000042697066733a2f2f62616679626569637a73736364736273376666717a3535617371646633736d76366b6c637733676f66737a76776c79617263693437626766333534000000000000000000000000000000000000000000000000000000000000",
        "nonce": "0x197",
        "accessList": []
      },
      "additionalContracts": [],
      "isFixedGasLimit": false
    },
    {
      "hash": "0x24774a06a20008c837c3698cff1e8f28d59d44eb3b510562b1f88b9cfc86e840",
      "transactionType": "CALL",
      "contractName": null,
      "contractAddress": "0x5226c4A81ed525bdc4AA97558fb596ddd9B34e0E",
      "function": "newItems(uint256,(bytes,uint256[])[])",
      "arguments": [
        "1",
        "[(0x1358b4111fbfd1929d3d47cfab2f00bf134e3918697066733a2f2f62616679626569637a73736364736273376666717a3535617371646633736d76366b6c637733676f66737a76776c79617263693437626766333534, [1])]"
      ],
      "transaction": {
        "type": "0x02",
        "from": "0x33f59bfd58c16defb93612de65a5123f982f58ba",
        "to": "0x5226c4a81ed525bdc4aa97558fb596ddd9b34e0e",
        "gas": "0x44da3",
        "value": "0x0",
        "data": "0x5b773d930000000000000000000000000000000000000000000000000000000000000001000000000000000000000000000000000000000000000000000000000000004000000000000000000000000000000000000000000000000000000000000000010000000000000000000000000000000000000000000000000000000000000020000000000000000000000000000000000000000000000000000000000000004000000000000000000000000000000000000000000000000000000000000000c000000000000000000000000000000000000000000000000000000000000000561358b4111fbfd1929d3d47cfab2f00bf134e3918697066733a2f2f62616679626569637a73736364736273376666717a3535617371646633736d76366b6c637733676f66737a76776c796172636934376267663335340000000000000000000000000000000000000000000000000000000000000000000000000000000000010000000000000000000000000000000000000000000000000000000000000001",
        "nonce": "0x198",
        "accessList": []
      },
      "additionalContracts": [
        {
          "transactionType": "CREATE",
          "address": "0x28C174b10d24944704903aE100AF70e6B547e9D3",
          "initCode": "0x630000005780600e6000396000f3001358b4111fbfd1929d3d47cfab2f00bf134e3918697066733a2f2f62616679626569637a73736364736273376666717a3535617371646633736d76366b6c637733676f66737a76776c79617263693437626766333534"
        }
      ],
      "isFixedGasLimit": false
    }
  ],
  "receipts": [],
  "libraries": [],
  "pending": [
    "0xefd841229f9498fc4ca3d766ec45dbfaf61c23673b10192bd11caae27d865fa7",
    "0x24774a06a20008c837c3698cff1e8f28d59d44eb3b510562b1f88b9cfc86e840"
  ],
  "returns": {},
  "timestamp": 1704918670,
  "chain": 36912,
  "multi": false,
  "commit": "fee576f"
}