{
  "transactions": [
    {
      "hash": "0x944ce9cd8fdd067429e1d124fa93b1f873a8e3467ab7979872970293ae8317a9",
      "transactionType": "CALL",
      "contractName": null,
      "contractAddress": "0x0dE97a5bc300d20A0D629179cF678296177854E8",
      "function": "newChannel(uint256,string,address,bytes)",
      "arguments": [
        "1",
        "\"ipfs://bafybeiczsscdsbs7ffqz55asqdf3smv6klcw3gofszvwlyarci47bgf354\"",
        "0x412CAEe8a5EE5741bED459951C091f8FfaA14778",
        "0x000000000000000000000000000000000000000000000000000000000000004000000000000000000000000000000000000000000000000000000000000000800000000000000000000000000000000000000000000000000000000000000001000000000000000000000000000000000000000000000000000000000000000100000000000000000000000000000000000000000000000000000000000000010000000000000000000000000000000000000000000000000000000000000002"
      ],
      "transaction": {
        "type": "0x02",
        "from": "0x33f59bfd58c16defb93612de65a5123f982f58ba",
        "to": "0x0de97a5bc300d20a0d629179cf678296177854e8",
        "gas": "0x47edd",
        "value": "0x0",
        "data": "0x3b4555a200000000000000000000000000000000000000000000000000000000000000010000000000000000000000000000000000000000000000000000000000000080000000000000000000000000412caee8a5ee5741bed459951c091f8ffaa1477800000000000000000000000000000000000000000000000000000000000001000000000000000000000000000000000000000000000000000000000000000042697066733a2f2f62616679626569637a73736364736273376666717a3535617371646633736d76366b6c637733676f66737a76776c7961726369343762676633353400000000000000000000000000000000000000000000000000000000000000000000000000000000000000000000000000000000000000000000000000c0000000000000000000000000000000000000000000000000000000000000004000000000000000000000000000000000000000000000000000000000000000800000000000000000000000000000000000000000000000000000000000000001000000000000000000000000000000000000000000000000000000000000000100000000000000000000000000000000000000000000000000000000000000010000000000000000000000000000000000000000000000000000000000000002",
        "nonce": "0x19f",
        "accessList": []
      },
      "additionalContracts": [],
      "isFixedGasLimit": false
    },
    {
      "hash": "0x2d53f544ebbaa844871a82a9ba8b92b500eabc09cece45c6fc88cecb30fb21e0",
      "transactionType": "CALL",
      "contractName": null,
      "contractAddress": "0xf35776f159614B573C2Ae10F95407ed8b70D4C73",
      "function": "newItems(uint256,(bytes,uint256[])[])",
      "arguments": [
        "1",
        "[(0x1358b4111fbfd1929d3d47cfab2f00bf134e3918697066733a2f2f62616679626569637a73736364736273376666717a3535617371646633736d76366b6c637733676f66737a76776c79617263693437626766333534, [1])]"
      ],
      "transaction": {
        "type": "0x02",
        "from": "0x33f59bfd58c16defb93612de65a5123f982f58ba",
        "to": "0xf35776f159614b573c2ae10f95407ed8b70d4c73",
        "gas": "0x410ef",
        "value": "0x0",
        "data": "0x5b773d930000000000000000000000000000000000000000000000000000000000000001000000000000000000000000000000000000000000000000000000000000004000000000000000000000000000000000000000000000000000000000000000010000000000000000000000000000000000000000000000000000000000000020000000000000000000000000000000000000000000000000000000000000004000000000000000000000000000000000000000000000000000000000000000c000000000000000000000000000000000000000000000000000000000000000561358b4111fbfd1929d3d47cfab2f00bf134e3918697066733a2f2f62616679626569637a73736364736273376666717a3535617371646633736d76366b6c637733676f66737a76776c796172636934376267663335340000000000000000000000000000000000000000000000000000000000000000000000000000000000010000000000000000000000000000000000000000000000000000000000000001",
        "nonce": "0x1a0",
        "accessList": []
      },
      "additionalContracts": [
        {
          "transactionType": "CREATE",
          "address": "0x7B7e6e4Db2B35573230cd8A154cd0D8E30316095",
          "initCode": "0x630000005780600e6000396000f3001358b4111fbfd1929d3d47cfab2f00bf134e3918697066733a2f2f62616679626569637a73736364736273376666717a3535617371646633736d76366b6c637733676f66737a76776c79617263693437626766333534"
        }
      ],
      "isFixedGasLimit": false
    }
  ],
  "receipts": [
    {
      "transactionHash": "0x944ce9cd8fdd067429e1d124fa93b1f873a8e3467ab7979872970293ae8317a9",
      "transactionIndex": "0x1",
      "blockHash": "0x16dba1dcbfca779163bfeb4c41e0c1054414928a78f095b9c42f198f984dcc6a",
      "blockNumber": "0xfc7f6",
      "from": "0x33F59bfD58c16dEfB93612De65A5123F982F58bA",
      "to": "0x0dE97a5bc300d20A0D629179cF678296177854E8",
      "cumulativeGasUsed": "0x3dfdc",
      "gasUsed": "0x312eb",
      "contractAddress": null,
      "logs": [
        {
          "address": "0x412CAEe8a5EE5741bED459951C091f8FfaA14778",
          "topics": [
            "0x917593e0501ac95de65bba9fe73823c5a8faf60229a9d2a33c16c77361d0aeab"
          ],
          "data": "0x0000000000000000000000000de97a5bc300d20a0d629179cf678296177854e80000000000000000000000000000000000000000000000000000000000000001000000000000000000000000000000000000000000000000000000000000000100000000000000000000000000000000000000000000000000000000000000a000000000000000000000000000000000000000000000000000000000000000e00000000000000000000000000000000000000000000000000000000000000001000000000000000000000000000000000000000000000000000000000000000100000000000000000000000000000000000000000000000000000000000000010000000000000000000000000000000000000000000000000000000000000002",
          "blockHash": "0x16dba1dcbfca779163bfeb4c41e0c1054414928a78f095b9c42f198f984dcc6a",
          "blockNumber": "0xfc7f6",
          "transactionHash": "0x944ce9cd8fdd067429e1d124fa93b1f873a8e3467ab7979872970293ae8317a9",
          "transactionIndex": "0x1",
          "logIndex": "0x0",
          "removed": false
        },
        {
          "address": "0x0dE97a5bc300d20A0D629179cF678296177854E8",
          "topics": [
            "0xed44b069971bafcb883c76116bd42b045074190c4e3821285157bab4c4998b71"
          ],
          "data": "0x00000000000000000000000033f59bfd58c16defb93612de65a5123f982f58ba0000000000000000000000000000000000000000000000000000000000000001000000000000000000000000000000000000000000000000000000000000000100000000000000000000000000000000000000000000000000000000000000a0000000000000000000000000412caee8a5ee5741bed459951c091f8ffaa147780000000000000000000000000000000000000000000000000000000000000042697066733a2f2f62616679626569637a73736364736273376666717a3535617371646633736d76366b6c637733676f66737a76776c79617263693437626766333534000000000000000000000000000000000000000000000000000000000000",
          "blockHash": "0x16dba1dcbfca779163bfeb4c41e0c1054414928a78f095b9c42f198f984dcc6a",
          "blockNumber": "0xfc7f6",
          "transactionHash": "0x944ce9cd8fdd067429e1d124fa93b1f873a8e3467ab7979872970293ae8317a9",
          "transactionIndex": "0x1",
          "logIndex": "0x1",
          "removed": false
        }
      ],
      "status": "0x1",
      "logsBloom": "0x00000000000000000000000000000000000000000000000000000000000000000000000000000000000000000000000000000000000000000000010000000000000000000000000000000000000000000000000000000000000100000000000000000000000001000000000000000000000000000000000000000000000000000000000100000082000000000000000008000000000000000000000000000240000000000000000000000000000000000000000000000000000000000000000000000000000000000000000000000000000000000000020000000000000000000020000000000000000000000000001000000000000000000000000000000000",
      "type": "0x2",
      "effectiveGasPrice": "0xb2d05e32"
    },
    {
      "transactionHash": "0x2d53f544ebbaa844871a82a9ba8b92b500eabc09cece45c6fc88cecb30fb21e0",
      "transactionIndex": "0x2",
      "blockHash": "0x16dba1dcbfca779163bfeb4c41e0c1054414928a78f095b9c42f198f984dcc6a",
      "blockNumber": "0xfc7f6",
      "from": "0x33F59bfD58c16dEfB93612De65A5123F982F58bA",
      "to": "0xf35776f159614B573C2Ae10F95407ed8b70D4C73",
      "cumulativeGasUsed": "0x6d17b",
      "gasUsed": "0x2f19f",
      "contractAddress": null,
      "logs": [
        {
          "address": "0xf35776f159614B573C2Ae10F95407ed8b70D4C73",
          "topics": [
            "0xa2ba758028b7d21eee988892461f8630fe375441d69998d867174616c5eef8fb"
          ],
          "data": "0x00000000000000000000000033f59bfd58c16defb93612de65a5123f982f58ba000000000000000000000000000000000000000000000000000000000000000100000000000000000000000000000000000000000000000000000000000000010000000000000000000000000000000000000000000000000000000000000001",
          "blockHash": "0x16dba1dcbfca779163bfeb4c41e0c1054414928a78f095b9c42f198f984dcc6a",
          "blockNumber": "0xfc7f6",
          "transactionHash": "0x2d53f544ebbaa844871a82a9ba8b92b500eabc09cece45c6fc88cecb30fb21e0",
          "transactionIndex": "0x2",
          "logIndex": "0x2",
          "removed": false
        },
        {
          "address": "0xf35776f159614B573C2Ae10F95407ed8b70D4C73",
          "topics": [
            "0xcb8ed0ee097b44fc214187fb8b4aac936c98c2b9100a018852e798d2a225ad76"
          ],
          "data": "0x00000000000000000000000033f59bfd58c16defb93612de65a5123f982f58ba0000000000000000000000000000000000000000000000000000000000000001000000000000000000000000000000000000000000000000000000000000008000000000000000000000000000000000000000000000000000000000000000c00000000000000000000000000000000000000000000000000000000000000001000000000000000000000000000000000000000000000000000000000000000100000000000000000000000000000000000000000000000000000000000000010000000000000000000000007b7e6e4db2b35573230cd8a154cd0d8e30316095",
          "blockHash": "0x16dba1dcbfca779163bfeb4c41e0c1054414928a78f095b9c42f198f984dcc6a",
          "blockNumber": "0xfc7f6",
          "transactionHash": "0x2d53f544ebbaa844871a82a9ba8b92b500eabc09cece45c6fc88cecb30fb21e0",
          "transactionIndex": "0x2",
          "logIndex": "0x3",
          "removed": false
        }
      ],
      "status": "0x1",
      "logsBloom": "0x00000000000000000000000000000000000010000000000000000000000000000000000000000000000000000000000000000000008000000000000000000000000000000000000000000080000000000000000000000000000000000000000000000000000000000000000000000000000000000000000000000000000000000000000000000000000000000000000000000000000000000000000000000000000000000000008000000000000000000000000000000000000000000000000000000000000000000000000000000000000000000000000040002000000000000000000000000000000000000004000000000000000000000000000000001010",
      "type": "0x2",
      "effectiveGasPrice": "0xb2d05e32"
    }
  ],
  "libraries": [],
  "pending": [],
  "returns": {},
  "timestamp": 1704943163,
  "chain": 36912,
  "multi": false,
  "commit": "46a02c8"
}