{
  "transactions": [
    {
      "hash": "0xf3293450ff5da60121b87d6447b1c205d5381361916214002085ed40f6bcaf0e",
      "transactionType": "CALL",
      "contractName": null,
      "contractAddress": "0xd7CBFd1ACbb4314007AAf0fcA8BebdE91585302e",
      "function": "register(address)",
      "arguments": [
        "0x0000000000000000000000000000000000000000"
      ],
      "transaction": {
        "type": "0x02",
        "from": "0x33f59bfd58c16defb93612de65a5123f982f58ba",
        "to": "0xd7cbfd1acbb4314007aaf0fca8bebde91585302e",
        "gas": "0x1f0d1",
        "value": "0x0",
        "data": "0x4420e4860000000000000000000000000000000000000000000000000000000000000000",
        "nonce": "0x173",
        "accessList": []
      },
      "additionalContracts": [],
      "isFixedGasLimit": false
    },
    {
      "hash": "0x9de254f42512da782d5d390ac8639e9d2cd3c20702505e530e94f5373425c1b7",
      "transactionType": "CALL",
      "contractName": null,
      "contractAddress": "0x5a94bfaF87dB3f34F5abbD28eB2E4E8B4537B00b",
      "function": "newChannel(uint256,uint256[],uint8[],string)",
      "arguments": [
        "1",
        "[1]",
        "[2]",
        "\"ipfs://bafybeiczsscdsbs7ffqz55asqdf3smv6klcw3gofszvwlyarci47bgf354\""
      ],
      "transaction": {
        "type": "0x02",
        "from": "0x33f59bfd58c16defb93612de65a5123f982f58ba",
        "to": "0x5a94bfaf87db3f34f5abbd28eb2e4e8b4537b00b",
        "gas": "0x45546",
        "value": "0x0",
        "data": "0x6b9a1b830000000000000000000000000000000000000000000000000000000000000001000000000000000000000000000000000000000000000000000000000000008000000000000000000000000000000000000000000000000000000000000000c0000000000000000000000000000000000000000000000000000000000000010000000000000000000000000000000000000000000000000000000000000000010000000000000000000000000000000000000000000000000000000000000001000000000000000000000000000000000000000000000000000000000000000100000000000000000000000000000000000000000000000000000000000000020000000000000000000000000000000000000000000000000000000000000042697066733a2f2f62616679626569637a73736364736273376666717a3535617371646633736d76366b6c637733676f66737a76776c79617263693437626766333534000000000000000000000000000000000000000000000000000000000000",
        "nonce": "0x174",
        "accessList": []
      },
      "additionalContracts": [],
      "isFixedGasLimit": false
    },
    {
      "hash": "0xdf05a91d9dae52973e7b57c66d5979252b1b5d1194666cdcc499f9b2ff87f6d0",
      "transactionType": "CALL",
      "contractName": null,
      "contractAddress": "0xc285B55a5048BCaAb7B7D1112f3cc41C365328CF",
      "function": "newItems(uint256,address,(address,bytes,uint256[])[])",
      "arguments": [
        "1",
        "0x5a94bfaF87dB3f34F5abbD28eB2E4E8B4537B00b",
        "[(0x4Bc34f03ccEE9838A98c8cFbaC5a2300B20231cF, 0x697066733a2f2f62616679626569637a73736364736273376666717a3535617371646633736d76366b6c637733676f66737a76776c79617263693437626766333534, [1])]"
      ],
      "transaction": {
        "type": "0x02",
        "from": "0x33f59bfd58c16defb93612de65a5123f982f58ba",
        "to": "0xc285b55a5048bcaab7b7d1112f3cc41c365328cf",
        "gas": "0x4c492",
        "value": "0x0",
        "data": "0x8f78779d00000000000000000000000000000000000000000000000000000000000000010000000000000000000000005a94bfaf87db3f34f5abbd28eb2e4e8b4537b00b0000000000000000000000000000000000000000000000000000000000000060000000000000000000000000000000000000000000000000000000000000000100000000000000000000000000000000000000000000000000000000000000200000000000000000000000004bc34f03ccee9838a98c8cfbac5a2300b20231cf000000000000000000000000000000000000000000000000000000000000006000000000000000000000000000000000000000000000000000000000000000e00000000000000000000000000000000000000000000000000000000000000042697066733a2f2f62616679626569637a73736364736273376666717a3535617371646633736d76366b6c637733676f66737a76776c7961726369343762676633353400000000000000000000000000000000000000000000000000000000000000000000000000000000000000000000000000000000000000000000000000010000000000000000000000000000000000000000000000000000000000000001",
        "nonce": "0x175",
        "accessList": []
      },
      "additionalContracts": [
        {
          "transactionType": "CREATE",
          "address": "0x84A4FF7F55D2e8caEd9a11046dAde94398cd1Abd",
          "initCode": "0x630000004380600e6000396000f300697066733a2f2f62616679626569637a73736364736273376666717a3535617371646633736d76366b6c637733676f66737a76776c79617263693437626766333534"
        }
      ],
      "isFixedGasLimit": false
    }
  ],
  "receipts": [],
  "libraries": [],
  "pending": [
    "0xf3293450ff5da60121b87d6447b1c205d5381361916214002085ed40f6bcaf0e",
    "0x9de254f42512da782d5d390ac8639e9d2cd3c20702505e530e94f5373425c1b7",
    "0xdf05a91d9dae52973e7b57c66d5979252b1b5d1194666cdcc499f9b2ff87f6d0"
  ],
  "returns": {},
  "timestamp": 1704489142,
  "chain": 36912,
  "multi": false,
  "commit": "c80d0cd"
}