{
  "transactions": [
    {
      "hash": "0x366c3bb8f370800f112a334cad4728f31ba9a9d79de85782f7261ebeb184379a",
      "transactionType": "CALL",
      "contractName": null,
      "contractAddress": "0x05aD6cA9C2b3F71a6B30A8C7d414C95E10EC0217",
      "function": "postBatch((address,(uint256,uint256,uint8,bytes),uint16,bytes32,uint16,bytes)[])",
      "arguments": [
        "[(0x33F59bfD58c16dEfB93612De65A5123F982F58bA, (1, 1706853940, 1, 0x0000000000000000000000000000000000000000000000000000000000000020000000000000000000000000000000000000000000000000000000000000004000000000000000000000000000000000000000000000000000000000000001200000000000000000000000000000000000000000000000000000000000000001000000000000000000000000000000000000000000000000000000000000004000000000000000000000000000000000000000000000000000000000000000800000000000000000000000000000000000000000000000000000000000000020000000000000000000000000000000000000000000000000000000000000003b6261666b7265696736666d62646d376361636269736c7164697470786a6b6861647a646c6375777233756a7168736a346537686a726278786e61610000000000000000000000000000000000000000000000000000000000000000000000000100000000000000000000000000000000000000000000000000000000000000400000000000000000000000000000000000000000000000000000000000000060000000000000000000000000000000000000000000000000000000000000002000000000000000000000000000000000000000000000000000000000000000010000000000000000000000000000000000000000000000000000000000000001), 1, 0xe5ac3d213753d9b1f8ecee4b72a937d77d08e47bfafe8d8ee26fda993f6f7870, 1, 0x0de0dcd28709415e48b6f7b7a32d54444b1b4be014c00d9cec7205acca1a96977fd45e919bb48b1036eacbcffe78d88b587d8c65b6fa06273e3f2334c1a6be291b)]"
      ],
      "transaction": {
        "type": "0x02",
        "from": "0x33f59bfd58c16defb93612de65a5123f982f58ba",
        "to": "0x05ad6ca9c2b3f71a6b30a8c7d414c95e10ec0217",
        "gas": "0x103c2",
        "value": "0x0",
        "data": "0xcaa550b400000000000000000000000000000000000000000000000000000000000000200000000000000000000000000000000000000000000000000000000000000001000000000000000000000000000000000000000000000000000000000000002000000000000000000000000033f59bfd58c16defb93612de65a5123f982f58ba00000000000000000000000000000000000000000000000000000000000000c00000000000000000000000000000000000000000000000000000000000000001e5ac3d213753d9b1f8ecee4b72a937d77d08e47bfafe8d8ee26fda993f6f78700000000000000000000000000000000000000000000000000000000000000001000000000000000000000000000000000000000000000000000000000000036000000000000000000000000000000000000000000000000000000000000000010000000000000000000000000000000000000000000000000000000065bc86340000000000000000000000000000000000000000000000000000000000000001000000000000000000000000000000000000000000000000000000000000008000000000000000000000000000000000000000000000000000000000000002000000000000000000000000000000000000000000000000000000000000000020000000000000000000000000000000000000000000000000000000000000004000000000000000000000000000000000000000000000000000000000000001200000000000000000000000000000000000000000000000000000000000000001000000000000000000000000000000000000000000000000000000000000004000000000000000000000000000000000000000000000000000000000000000800000000000000000000000000000000000000000000000000000000000000020000000000000000000000000000000000000000000000000000000000000003b6261666b7265696736666d62646d376361636269736c7164697470786a6b6861647a646c6375777233756a7168736a346537686a726278786e6161000000000000000000000000000000000000000000000000000000000000000000000000010000000000000000000000000000000000000000000000000000000000000040000000000000000000000000000000000000000000000000000000000000006000000000000000000000000000000000000000000000000000000000000000200000000000000000000000000000000000000000000000000000000000000001000000000000000000000000000000000000000000000000000000000000000100000000000000000000000000000000000000000000000000000000000000410de0dcd28709415e48b6f7b7a32d54444b1b4be014c00d9cec7205acca1a96977fd45e919bb48b1036eacbcffe78d88b587d8c65b6fa06273e3f2334c1a6be291b00000000000000000000000000000000000000000000000000000000000000",
        "nonce": "0x10",
        "accessList": []
      },
      "additionalContracts": [],
      "isFixedGasLimit": false
    }
  ],
  "receipts": [],
  "libraries": [],
  "pending": [
    "0x366c3bb8f370800f112a334cad4728f31ba9a9d79de85782f7261ebeb184379a"
  ],
  "returns": {},
  "timestamp": 1706854569,
  "chain": 42170,
  "multi": false,
  "commit": "bd566c44"
}