{
  "transactions": [
    {
      "hash": "0xbc92843a5d25b9ec8d3b25ef813ecd72779d0d769dbc32e5cfdd45ff65d61294",
      "transactionType": "CALL",
      "contractName": null,
      "contractAddress": "0x05aD6cA9C2b3F71a6B30A8C7d414C95E10EC0217",
      "function": "postBatch((address,(uint256,uint256,uint8,bytes),uint16,bytes32,uint16,bytes)[])",
      "arguments": [
        "[(0x33F59bfD58c16dEfB93612De65A5123F982F58bA, (1, 1706853940, 5, 0x0000000000000000000000000000000000000000000000000000000000000020000000000000000000000000000000000000000000000000000000000000004000000000000000000000000000000000000000000000000000000000000000a0000000000000000000000000000000000000000000000000000000000000003b626166797265696733366634766b6e78706671746c693368656779323461347a35367a6568796c66706264627237347a67693634357577367875610000000000000000000000000000000000000000000000000000000000000000000000003b62616679726569616a65797a766f337663337a676f6e62677571617065697a326f3636327735616c36617635726f723667327976686166726e346d0000000000), 1, 0x318086c786d280eac74a628e78588e7aacac7e691d88627a62fe62c16419bc7b, 1, 0x45ed179d368e7ca96a36948c89115568612be6aa7cbb70832452476cfa42dbbc65eeb8019da78b6080c46cccfb15541eae8954e679a914d159eefbc65b26be541c)]"
      ],
      "transaction": {
        "type": "0x02",
        "from": "0x33f59bfd58c16defb93612de65a5123f982f58ba",
        "to": "0x05ad6ca9c2b3f71a6b30a8c7d414c95e10ec0217",
        "gas": "0x10128",
        "value": "0x0",
        "data": "0xcaa550b400000000000000000000000000000000000000000000000000000000000000200000000000000000000000000000000000000000000000000000000000000001000000000000000000000000000000000000000000000000000000000000002000000000000000000000000033f59bfd58c16defb93612de65a5123f982f58ba00000000000000000000000000000000000000000000000000000000000000c00000000000000000000000000000000000000000000000000000000000000001318086c786d280eac74a628e78588e7aacac7e691d88627a62fe62c16419bc7b0000000000000000000000000000000000000000000000000000000000000001000000000000000000000000000000000000000000000000000000000000028000000000000000000000000000000000000000000000000000000000000000010000000000000000000000000000000000000000000000000000000065bc86340000000000000000000000000000000000000000000000000000000000000005000000000000000000000000000000000000000000000000000000000000008000000000000000000000000000000000000000000000000000000000000001200000000000000000000000000000000000000000000000000000000000000020000000000000000000000000000000000000000000000000000000000000004000000000000000000000000000000000000000000000000000000000000000a0000000000000000000000000000000000000000000000000000000000000003b626166797265696733366634766b6e78706671746c693368656779323461347a35367a6568796c66706264627237347a67693634357577367875610000000000000000000000000000000000000000000000000000000000000000000000003b62616679726569616a65797a766f337663337a676f6e62677571617065697a326f3636327735616c36617635726f723667327976686166726e346d0000000000000000000000000000000000000000000000000000000000000000000000004145ed179d368e7ca96a36948c89115568612be6aa7cbb70832452476cfa42dbbc65eeb8019da78b6080c46cccfb15541eae8954e679a914d159eefbc65b26be541c00000000000000000000000000000000000000000000000000000000000000",
        "nonce": "0x11",
        "accessList": []
      },
      "additionalContracts": [],
      "isFixedGasLimit": false
    }
  ],
  "receipts": [
    {
      "transactionHash": "0xbc92843a5d25b9ec8d3b25ef813ecd72779d0d769dbc32e5cfdd45ff65d61294",
      "transactionIndex": "0x1",
      "blockHash": "0x78f01fc24cdb530182cefe466562b34e4af934abd8c7c26b96f3cb398386f1cc",
      "blockNumber": "0x2aba3a9",
      "from": "0x33F59bfD58c16dEfB93612De65A5123F982F58bA",
      "to": "0x05aD6cA9C2b3F71a6B30A8C7d414C95E10EC0217",
      "cumulativeGasUsed": "0xfbc9",
      "gasUsed": "0xfbc9",
      "contractAddress": null,
      "logs": [
        {
          "address": "0x05aD6cA9C2b3F71a6B30A8C7d414C95E10EC0217",
          "topics": [
            "0xbbd76ddf496bdc451129f83bf75dc2941b7ff0102da7d5f03f07a3a2f741fc70",
            "0x00000000000000000000000033f59bfd58c16defb93612de65a5123f982f58ba"
          ],
          "data": "0x",
          "blockHash": "0x78f01fc24cdb530182cefe466562b34e4af934abd8c7c26b96f3cb398386f1cc",
          "blockNumber": "0x2aba3a9",
          "transactionHash": "0xbc92843a5d25b9ec8d3b25ef813ecd72779d0d769dbc32e5cfdd45ff65d61294",
          "transactionIndex": "0x1",
          "logIndex": "0x0",
          "removed": false
        }
      ],
      "status": "0x1",
      "logsBloom": "0x00000000000000000000800000000000000000000000000000000000000000000000000000000000000000000000000000000000000800000000000000000000000000000110000000000000000000000000000000000000000000000000000000000000000000000000000000000400000000000000000000400000000000000000000000000000000000000000000000000000000000000000000000000000000000000000000000000000000000000000000000000000000000000008000000000000000000000008000002000000000000000000000000000000000000000000000000000000000000000000000000000000000000000000000000000000",
      "type": "0x2",
      "effectiveGasPrice": "0x989680"
    }
  ],
  "libraries": [],
  "pending": [],
  "returns": {},
  "timestamp": 1706854690,
  "chain": 42170,
  "multi": false,
  "commit": "bd566c44"
}