{
  "transactions": [
    {
      "hash": null,
      "transactionType": "CALL",
      "contractName": null,
      "contractAddress": "0x05aD6cA9C2b3F71a6B30A8C7d414C95E10EC0217",
      "function": "post((address,(uint256,uint256,uint8,bytes),uint16,bytes32,uint16,bytes))",
      "arguments": [
        "(0x33F59bfD58c16dEfB93612De65A5123F982F58bA, (1, 1706853740, 3, 0x0000000000000000000000000000000000000000000000000000000000000020000000000000000000000000000000000000000000000000000000000000004000000000000000000000000000000000000000000000000000000000000001400000000000000000000000000000000000000000000000000000000000000001000000000000000000000000000000000000000000000000000000000000004000000000000000000000000000000000000000000000000000000000000000a0000000000000000000000000000000000000000000000000000000000000002000000000000000000000000000000000000000000000000000000000000000426f6d52755957316c61324e6f595735755a57784f5957316c6132526c63324e796158423061573975636d4e6f595735755a5778455a584e6a636d6c7764476c7662670000000000000000000000000000000000000000000000000000000000000000000000000000000000000000000000000000000000000000000000000001000000000000000000000000000000000000000000000000000000000000004000000000000000000000000000000000000000000000000000000000000000a000000000000000000000000000000000000000000000000000000000000000400000000000000000000000000000000000000000000000000000000000000080000000000000000000000000000000000000000000000000000000000000000100000000000000000000000000000000000000000000000000000000000000010000000000000000000000000000000000000000000000000000000000000000), 1, 0xfb842e80547b1e3d0740c12fd9650222de86083f01eda901aa9502c3e76cea92, 1, 0xa07f70df4c5c4d4328886558118faa868842da63723eb9561062fceae33349180e8606e87aa0bac34bdc4f062743cf0ee9e0301b33adf87858c80645e17e18ab1c)"
      ],
      "transaction": {
        "type": "0x02",
        "from": "0x33f59bfd58c16defb93612de65a5123f982f58ba",
        "to": "0x05ad6ca9c2b3f71a6b30a8c7d414c95e10ec0217",
        "gas": "0xf568",
        "value": "0x0",
        "data": "0x3e26eb83000000000000000000000000000000000000000000000000000000000000002000000000000000000000000033f59bfd58c16defb93612de65a5123f982f58ba00000000000000000000000000000000000000000000000000000000000000c00000000000000000000000000000000000000000000000000000000000000001fb842e80547b1e3d0740c12fd9650222de86083f01eda901aa9502c3e76cea92000000000000000000000000000000000000000000000000000000000000000100000000000000000000000000000000000000000000000000000000000003c000000000000000000000000000000000000000000000000000000000000000010000000000000000000000000000000000000000000000000000000065bc856c0000000000000000000000000000000000000000000000000000000000000003000000000000000000000000000000000000000000000000000000000000008000000000000000000000000000000000000000000000000000000000000002600000000000000000000000000000000000000000000000000000000000000020000000000000000000000000000000000000000000000000000000000000004000000000000000000000000000000000000000000000000000000000000001400000000000000000000000000000000000000000000000000000000000000001000000000000000000000000000000000000000000000000000000000000004000000000000000000000000000000000000000000000000000000000000000a0000000000000000000000000000000000000000000000000000000000000002000000000000000000000000000000000000000000000000000000000000000426f6d52755957316c61324e6f595735755a57784f5957316c6132526c63324e796158423061573975636d4e6f595735755a5778455a584e6a636d6c7764476c7662670000000000000000000000000000000000000000000000000000000000000000000000000000000000000000000000000000000000000000000000000001000000000000000000000000000000000000000000000000000000000000004000000000000000000000000000000000000000000000000000000000000000a0000000000000000000000000000000000000000000000000000000000000004000000000000000000000000000000000000000000000000000000000000000800000000000000000000000000000000000000000000000000000000000000001000000000000000000000000000000000000000000000000000000000000000100000000000000000000000000000000000000000000000000000000000000000000000000000000000000000000000000000000000000000000000000000041a07f70df4c5c4d4328886558118faa868842da63723eb9561062fceae33349180e8606e87aa0bac34bdc4f062743cf0ee9e0301b33adf87858c80645e17e18ab1c00000000000000000000000000000000000000000000000000000000000000",
        "nonce": "0xe",
        "accessList": []
      },
      "additionalContracts": [],
      "isFixedGasLimit": false
    }
  ],
  "receipts": [],
  "libraries": [],
  "pending": [],
  "returns": {},
  "timestamp": 1706853372,
  "chain": 42170,
  "multi": false,
  "commit": "bd566c44"
}