{
  "transactions": [
    {
      "hash": "0x09e9a39dc0077a093671a0e90dee7ad4d0dca651e358e5de5cc75745d78092d0",
      "transactionType": "CALL",
      "contractName": null,
      "contractAddress": "0x5FbDB2315678afecb367f032d93F642f64180aa3",
      "function": "register(address)",
      "arguments": [
        "0xf39Fd6e51aad88F6F4ce6aB8827279cffFb92266"
      ],
      "transaction": {
        "type": "0x02",
        "from": "0xf39fd6e51aad88f6f4ce6ab8827279cfffb92266",
        "to": "0x5fbdb2315678afecb367f032d93f642f64180aa3",
        "gas": "0x28265",
        "value": "0x0",
        "data": "0x4420e486000000000000000000000000f39fd6e51aad88f6f4ce6ab8827279cfffb92266",
        "nonce": "0x3",
        "accessList": []
      },
      "additionalContracts": [],
      "isFixedGasLimit": false
    }
  ],
  "receipts": [
    {
      "transactionHash": "0x09e9a39dc0077a093671a0e90dee7ad4d0dca651e358e5de5cc75745d78092d0",
      "transactionIndex": "0x0",
      "blockHash": "0x36807e341794ec595d3817b7786db1726bf13f88086074cef21ddcdf6c1630eb",
      "blockNumber": "0x3",
      "from": "0xf39Fd6e51aad88F6F4ce6aB8827279cffFb92266",
      "to": "0x5FbDB2315678afecb367f032d93F642f64180aa3",
      "cumulativeGasUsed": "0x1d116",
      "gasUsed": "0x1d116",
      "contractAddress": null,
      "logs": [
        {
          "address": "0x5FbDB2315678afecb367f032d93F642f64180aa3",
          "topics": [
            "0xf2e19a901b0748d8b08e428d0468896a039ac751ec4fec49b44b7b9c28097e45",
            "0x000000000000000000000000f39fd6e51aad88f6f4ce6ab8827279cfffb92266"
          ],
          "data": "0x0000000000000000000000000000000000000000000000000000000000000001000000000000000000000000f39fd6e51aad88f6f4ce6ab8827279cfffb92266",
          "blockHash": "0x36807e341794ec595d3817b7786db1726bf13f88086074cef21ddcdf6c1630eb",
          "blockNumber": "0x3",
          "transactionHash": "0x09e9a39dc0077a093671a0e90dee7ad4d0dca651e358e5de5cc75745d78092d0",
          "transactionIndex": "0x0",
          "logIndex": "0x0",
          "transactionLogIndex": "0x0",
          "removed": false
        }
      ],
      "status": "0x1",
      "logsBloom": "0x00000000000000000000000000000000000000000000000000000000000000000000000000000000000000000000000000000000000000000000000000000000000020000000000000001000000000000000000000000000000000000000004000000040000000000000000100000000000000000000000000000000000000000000000000000000000000000000000000000000000000000000000200000000000000000000000000000000000000000000000000000000000000000000000000000040000000200000000000000000000000002000000000000000000000000000000000000000000000000000000000000000000000000000000000000000",
      "type": "0x2",
      "effectiveGasPrice": "0xe184bb43"
    }
  ],
  "libraries": [],
  "pending": [],
  "returns": {},
  "timestamp": 1706766393,
  "chain": 31337,
  "multi": false,
  "commit": "1c3f72bc"
}