{
  "transactions": [
    {
      "hash": "0xe085e45db3a981d975dee4cd2e7f7dcf2eb8de123790b19eb9a7cd695d7fdc21",
      "transactionType": "CALL",
      "contractName": null,
      "contractAddress": "0x5FbDB2315678afecb367f032d93F642f64180aa3",
      "function": "register(address)",
      "arguments": [
        "0xf39Fd6e51aad88F6F4ce6aB8827279cffFb92266"
      ],
      "transaction": {
        "type": "0x02",
        "from": "0xf39fd6e51aad88f6f4ce6ab8827279cfffb92266",
        "to": "0x5fbdb2315678afecb367f032d93f642f64180aa3",
        "gas": "0x28265",
        "value": "0x0",
        "data": "0x4420e486000000000000000000000000f39fd6e51aad88f6f4ce6ab8827279cfffb92266",
        "nonce": "0x3",
        "accessList": []
      },
      "additionalContracts": [],
      "isFixedGasLimit": false
    }
  ],
  "receipts": [
    {
      "transactionHash": "0xe085e45db3a981d975dee4cd2e7f7dcf2eb8de123790b19eb9a7cd695d7fdc21",
      "transactionIndex": "0x0",
      "blockHash": "0xbab1ad7a0f13834e940877cab90f33d4002cdf60f66c9d92b9a7285011736a48",
      "blockNumber": "0x4",
      "from": "0xf39Fd6e51aad88F6F4ce6aB8827279cffFb92266",
      "to": "0x5FbDB2315678afecb367f032d93F642f64180aa3",
      "cumulativeGasUsed": "0x1d116",
      "gasUsed": "0x1d116",
      "contractAddress": null,
      "logs": [
        {
          "address": "0x5FbDB2315678afecb367f032d93F642f64180aa3",
          "topics": [
            "0xf2e19a901b0748d8b08e428d0468896a039ac751ec4fec49b44b7b9c28097e45",
            "0x000000000000000000000000f39fd6e51aad88f6f4ce6ab8827279cfffb92266"
          ],
          "data": "0x0000000000000000000000000000000000000000000000000000000000000001000000000000000000000000f39fd6e51aad88f6f4ce6ab8827279cfffb92266",
          "blockHash": "0xbab1ad7a0f13834e940877cab90f33d4002cdf60f66c9d92b9a7285011736a48",
          "blockNumber": "0x4",
          "transactionHash": "0xe085e45db3a981d975dee4cd2e7f7dcf2eb8de123790b19eb9a7cd695d7fdc21",
          "transactionIndex": "0x0",
          "logIndex": "0x0",
          "transactionLogIndex": "0x0",
          "removed": false
        }
      ],
      "status": "0x1",
      "logsBloom": "0x00000000000000000000000000000000000000000000000000000000000000000000000000000000000000000000000000000000000000000000000000000000000020000000000000001000000000000000000000000000000000000000004000000040000000000000000100000000000000000000000000000000000000000000000000000000000000000000000000000000000000000000000200000000000000000000000000000000000000000000000000000000000000000000000000000040000000200000000000000000000000002000000000000000000000000000000000000000000000000000000000000000000000000000000000000000",
      "type": "0x2",
      "effectiveGasPrice": "0xdbae316b"
    }
  ],
  "libraries": [],
  "pending": [],
  "returns": {},
  "timestamp": 1706804731,
  "chain": 31337,
  "multi": false,
  "commit": "219784a2"
}